:020000040800F2
:1000000040060224B5030008E94C010871130108F9
:10001000F94B01081114000831E20108000000004A
:10002000000000000000000000000000E16C01087A
:100030006133000800000000D159010891740108E3
:10004000D3030008D3030008D3030008D303000838
:10005000D3030008D3030008D3030008D303000828
:10006000D3030008D3030008D30300085925000870
:1000700069250008792500088925000899250008C8
:10008000D3030008D3030008D30300086935000830
:10009000893500087935000899350008D303000830
:1000A000D3030008D3030008D3030008D3030008D8
:1000B00009770108D3030008D3030008D30300081D
:1000C000D3030008D3030008D3030008D3030008B8
:1000D000E96A010801A30108C9A40108D3030008C3
:1000E000D3030008D30300080000000019770108BB
:1000F000D3030008D3030008D3030008A925000890
:10010000D3030008D3030008D3030008D303000877
:10011000D3030008898F0108D3030008D303000824
:10012000B9250008D3030008D3030008C925000837
:10013000D9250008D3030008D3030008D30300081F
:1001400000000000000000000000000000000000AF
:10015000D3030008D3030008D3030008D303000827
:10016000D3030008D3030008D3030008D303000817
:10017000D303000859520108D3030008000000000F
:10018000D3030008D3030008D3030008D3030008F7
:10019000D3030008D3030008D3030008D3030008E7
:1001A000D3030008D3030008D303000800000000B5
:1001B000D3030008D3030008D3030008D3030008C7
:1001C000D3030008D3030008000000000000000073
:1001D0000000000000000000D30300080000000041
:1001E000000000000000000000000000000000000F
:1001F0000000000000000000D3030008D303000843
:10020000D3030008D303000800000000D303000854
:10021000D3030008D3030008D3030008D303000866
:10022000D303000800000000D30300080000000012
:10023000D3030008D303000800000000D303000824
:10024000D3030008D3030008D3030008D303000836
:10025000D3030008D3030008D3030008D303000826
:10026000D3030008D3030008D3030008D303000816
:10027000D3030008D3030008D303000800000000E4
:10028000D3030008D3030008D3030008D3030008F6
:1002900000000000D3030008D303000800000000A2
:1002A00000000000D3030008D3030008D3030008B4
:1002B000D3030008D3030008D3030008A9350008BE
:1002C000B9350008D3030008D303000800F002F892
:1002D00000F060F80AA090E8000C82448344AAF180
:1002E0000107DA4501D100F055F8AFF2090EBAE87E
:1002F0000F0013F0010F18BFFB1A43F0010318475A
:10030000E83A0200083B02000A444FF0000C10F8E3
:10031000013B13F0070408BF10F8014B1D1108BF83
:1003200010F8015B641E05D010F8016B641E01F823
:10033000016BF9D113F0080F1EBF10F8014BAD1C73
:100340000C1B09D16D1E58BF01F801CBFAD505E091
:1003500014F8016B01F8016B6D1EF9D59142D6D3EB
:10036000704700000023002400250026103A28BF13
:1003700078C1FBD8520728BF30C148BF0B60704717
:100380001FB522F072FC9DE8030000F0E5F91FBDE7
:1003900010B510BD00F04CFA1146FFF7F1FF1FF049
:1003A00043FA00F06AFA03B4FFF7F2FF03BC00F06F
:1003B0009BFA00000A4880470A4880470A480047DD
:1003C000FEE7FEE7FEE7FEE7FEE7FEE7FEE7FEE705
:1003D000FEE7FEE705480649064A074B704700005E
:1003E00041350008A1750108CD02000840EE012446
:1003F0004006022440F6012440F6012470B506466A
:1004000000F08EF9056806F10B0020F00704B442F5
:100410009CBF002070BD2B466A68BAB11068A0422C
:1004200010D304F1080188423CBF5068586007D3DC
:100430005168101941601168091B0160586014600F
:10044000101D70BD13465268002AE7D12146284688
:1004500000F06EF90028DED170BD70B50446051FAE
:1004600000F05EF90068002C14BF446870BD002CD9
:1004700018BFAC423CBF20466468F8D301680A1834
:10048000AA4218BF456003D12A680546114401609D
:1004900028684119A1421CBF6C6070BD6168696029
:1004A00021680844286070BD53EA020C00F069809E
:1004B0002DE9F04B4FF00006002B1FBFB3FA83F578
:1004C00003FA05F424FA05F65E4012BF1643B2FAA9
:1004D00082F502FA05F4C5F120051EBF22FA05FCDB
:1004E00044EA0C04203556EA044C4FEA144418BF81
:1004F000641C4FF000084FF00009904271EB030CB0
:1005000039D3002919BFB1FA81F701FA07F6B0FA19
:1005100080F700FA07F6C7F120071EBF20FA07FC94
:1005200046EA0C062037B6FBF4FCA7EB0507103FA4
:1005300007F01F0BCBF120062CFA06F60CFA0BFB8A
:1005400044BFB3460026202FA4BF5E464FF0000BE9
:100550005BEA060C08BF4FF0010B19EB0B0948EBE7
:100560000608ABFB027C06FB02CC0BFB03CCC01BDA
:1005700071EB0C01C1E70B46024641464846BDE817
:10058000F08B13B5084318BF4FF0FF300146AFF3AF
:100590000080BDE81C407047032A40F2308010F014
:1005A000030C00F0158011F8013BBCF1020F62440E
:1005B00098BF11F801CB00F8013B38BF11F8013B9F
:1005C000A2F1040298BF00F801CB38BF00F8013B4C
:1005D00011F0030300F02580083AC0F0088051F8BC
:1005E000043B083A51F804CBA0E80810F5E7121DC7
:1005F0005CBF51F8043B40F8043BAFF30080D207E6
:1006000024BF11F8013B11F801CB48BF11F8012BB1
:1006100024BF00F8013B00F801CB48BF00F8012BD4
:10062000704710B5203AC0F00B80B1E81850A0E830
:100630001850B1E81850A0E81850203ABFF4F5AFB0
:100640005FEA027C24BFB1E81850A0E8185044BF0C
:1006500018C918C0BDE810405FEA827C24BF51F879
:10066000043B40F8043B08BF7047D20728BF31F86D
:10067000023B48BF11F8012B28BF20F8023B48BFBE
:1006800000F8012B70474FF000020429C0F01280DF
:1006900010F0030C00F01B80CCF1040CBCF1020F35
:1006A00018BF00F8012BA8BF20F8022BA1EB0C010A
:1006B00000F00DB85FEAC17C24BF00F8012B00F800
:1006C000012B48BF00F8012B70474FF0000200B526
:1006D000134694469646203922BFA0E80C50A0E865
:1006E0000C50B1F12001BFF4F7AF090728BFA0E813
:1006F0000C5048BF0CC05DF804EB890028BF40F8DF
:10070000042B08BF704748BF20F8022B11F0804F20
:1007100018BF00F8012B7047704770477047000002
:100720000048704790020024704770477047704738
:1007300038B504460A4600206946AFF30080002819
:1007400008BF38BD02460099204600F04FF801204E
:1007500038BD012000F064B8F8B5AFF3008005465D
:1007600000200C46102000BF0646A819A0420DD953
:10077000324669460020AFF30080070008BF00F052
:100780004FF80098A04218BF0546C419FFF7C8FFEC
:1007900005600746F01D20F007004619284600F0C6
:1007A0000AF8B44208BFF8BDA21B31463868BDE85C
:1007B000F84000F01BB800210160C0E9011070474B
:1007C0001020704710B500F00DF8006810BD10B58E
:1007D000044600F007F8046010BD000000487047B0
:1007E00088020024004870478802002403464068BD
:1007F0008C46002818BF88423CBF03464068F8D3A7
:1008000018681844884207D00CF1030020F0070054
:10081000001D411A521A0146081D0A60FFF71DBE4D
:1008200010B500F039F8BDE8104000F02FB870475F
:100830007546FFF7D3FFAE4605006946534620F0E4
:100840000700854618B020B5FFF7C4FDBDE820407D
:100850004FF000064FF000074FF000084FF0000B7C
:10086000AC46ACE8C009ACE8C009ACE8C009ACE8EB
:10087000C00921F007018D46704710B50446AFF35B
:1008800000802046BDE81040FFF78DBD002801D054
:1008900000F02AB87047000010B5012805D00021EB
:1008A00003A000F027F8012010BD09A1F8E700001F
:1008B00053494752544D454D3A204F7574206F6649
:1008C0002068656170206D656D6F727900000000B1
:1008D0003A2048656170206D656D6F727920636F95
:1008E000727275707465640001491820ABBEFEE732
:1008F0002600020070B505460C460A2000E06D1C7B
:1009000000F011F835B128780028F8D102E0641C15
:1009100000F009F814B120780028F8D1BDE8704043
:100920000A20AFF3008008B569468DF80000032067
:10093000ABBE08BD0000000080B584B003900291FA
:100940000020ADF80600039820B1FFE702980228C6
:1009500001D8FFE71AE003980299023940F2AC028D
:10096000C2F20042128803F067F8ADF80600BDF845
:100970000600039A0299114401F8020C9DF8070041
:10098000039A0299114401F8010CFFE704B080BDFD
:1009900080B544F22410C2F200404EF64011C2F27B
:1009A00001414FF480720FF073FB43F27070C2F29A
:1009B000004000681021C4F20201884200F0B280B9
:1009C000FFE743F27070C2F2004000682821C4F2D1
:1009D0000201884200F0A680FFE743F27070C2F285
:1009E000004000684021C4F20201884200F09A8071
:1009F000FFE743F27070C2F2004000685821C4F271
:100A00000201884200F08E80FFE743F27070C2F26C
:100A1000004000687021C4F20201884200F0828028
:100A2000FFE743F27070C2F2004000688821C4F210
:100A30000201884276D0FFE743F27070C2F20040B4
:100A40000068A021C4F2020188426BD0FFE743F2A4
:100A50007070C2F200400068B821C4F202018842FE
:100A600060D0FFE743F27070C2F20040006840F2CD
:100A70001041C4F20201884254D0FFE743F2707083
:100A8000C2F20040006840F22841C4F202018842EC
:100A900048D0FFE743F27070C2F20040006840F2B5
:100AA0004041C4F2020188423CD0FFE743F270703B
:100AB000C2F20040006840F25841C4F2020188428C
:100AC00030D0FFE743F27070C2F20040006840F29D
:100AD0007041C4F20201884224D0FFE743F27070F3
:100AE000C2F20040006840F28841C4F2020188422C
:100AF00018D0FFE743F27070C2F20040006840F285
:100B0000A041C4F2020188420CD0FFE743F27070AA
:100B1000C2F20040006840F2B841C4F202018842CB
:100B20000AD1FFE743F27070C2F200400168086822
:100B300020F00800086009E043F27070C2F2004043
:100B40000168086820F004000860FFE780BD00002D
:100B500080B584B04EF64010C2F201400078AB2858
:100B600063D1FFE74EF64010C2F2014090F83F001B
:100B7000FD285AD1FFE700208DF80F00FFE79DF810
:100B80000F0003281CDCFFE79DF80F104EF6401005
:100B9000C2F2014000EB41025078927840EA022014
:100BA00001EB411241F62831C2F2004101EBC201D2
:100BB0004884FFE79DF80F0001308DF80F00DEE755
:100BC0004EF64010C2F201400090417A827A41EA2A
:100BD000022140F26412C2F20042118002A9019186
:100BE000C17A019A1170017B019A5170417B019A7F
:100BF0009170817B019AD170029941F62832C2F23C
:100C00000042C2F8DC1400F10F0140F62820C2F2C5
:100C100000401E22FFF7C0FC009890F83E0040F212
:100C20000831C2F200410870FFE704B080BD000047
:100C300080B58AB04EF64021C2F20141AA20087068
:100C400000208DF82700FFE79DF82700032824DC0B
:100C5000FFE79DF8273003EB431141F62830C2F23D
:100C60000040203000EBC1018A7A4EF64021C2F2EA
:100C7000014101EB43035A709DF8272002EB421318
:100C800000EBC300C07A01EB42018870FFE79DF8DA
:100C9000270001308DF82700D6E741F62830C2F250
:100CA000004000F58862069292ED030A9FEDA31AB8
:100CB0008DED071A20EE010ABDEEC00A10EE103AC3
:100CC0004EF64021C2F2014108914B7292ED030AA7
:100CD00020EE010ABDEEC00A10EE103A1B0A8B721C
:100CE00092ED040A20EE010ABDEEC00A10EE103AA1
:100CF000CB7292ED040A20EE010ABDEEC00A10EE9E
:100D0000103A1B0A0B7392ED2A0A20EE010ABDEE7F
:100D1000C00A10EE103A4B7392ED2A0A20EE010A37
:100D2000BDEEC00A10EE103A1B0A8B7392ED2E0A2C
:100D300020EE010ABDEEC00A10EE103ACB7392ED20
:100D40002E0A20EE010ABDEEC00A10EE102A120A89
:100D50000A7490F83005487441F61430C2F200402D
:100D6000007888744EF6E820C2F2014090ED000A47
:100D7000BCEEC00A10EE100AC8740020087545F6D3
:100D80003810C2F20040B0F91201002808D4FFE781
:100D900045F63810C2F20040B0F91201059008E0A3
:100DA00045F63810C2F20040B0F9120140420590F9
:100DB000FFE7059800EE100AB8EEC00A8DED040AB0
:100DC00045F63810C2F20040B0F91A02002808D4E3
:100DD000FFE745F63810C2F20040B0F91A0203905E
:100DE00008E045F63810C2F20040B0F91A0240425D
:100DF0000390FFE79DED041A039800EE100AB8EE89
:100E0000C00AB6EE002A20EE020AA1EE020ABDEEEA
:100E1000C00A10EE100A4EF64021C2F20141487598
:100E200045F63810C2F20040B0F91201002808D48B
:100E3000FFE745F63810C2F20040B0F91201029007
:100E400008E045F63810C2F20040B0F91201404205
:100E50000290FFE7029800EE100AB8EEC00A8DED8E
:100E6000010A45F63810C2F20040B0F91A02002813
:100E700008D4FFE745F63810C2F20040B0F91A0274
:100E8000009008E045F63810C2F20040B0F91A02AE
:100E900040420090FFE79DED011A009800EE100A15
:100EA000B8EEC00AB6EE002A20EE020AA1EE020A4F
:100EB000BDEEC00A10EE100A000A4EF64021C2F242
:100EC0000141887545F63810C2F200400279CA75B2
:100ED00090F84E0300F00100087641F62830C2F287
:100EE000004000F5AC6090ED000ABDEEC00A10EEC7
:100EF000102A4A7690ED000ABDEEC00A10EE100AE4
:100F0000000A887642F20820C2F2004090F8360FBC
:100F100000F00100C87640F2ED50C2F200400078C7
:100F200081F83E00FE2081F83F0044F22410C2F216
:100F30000040402210F0C8F80AB080BD00007A449A
:100F400080B540F60000C5F602000122114608F007
:100F5000EBFC80BD0000000080B540F60000C5F647
:100F600002000121002208F0DFFC80BD000000002B
:100F7000704700000000000080B540F60000C5F694
:100F800002000821012208F0CFFC80BD0000000013
:100F900080B540F60000C5F602000821002208F0E6
:100FA000C3FC80BD0000000070470000000000008E
:100FB00080B582B0ADF80600FFE7BDF80600411E1F
:100FC000ADF8061028B1FFE74FF47A7000F004F88E
:100FD000F3E702B080BD000086B0ADF81600002037
:100FE000049003900290019000904EF21400CEF213
:100FF000000000680090BDF81600C0EB0010400132
:1010000004904EF21800CEF2000000680390FFE753
:101010004EF21800CEF20000006802900298039988
:1010200088421ED0FFE702980399884207D2FFE763
:1010300003980299411A01980844019008E0009829
:101040000299401A03990144019808440190FFE76E
:101050000298039001980499884201D3FFE701E0C8
:10106000FFE7D5E706B0704780B582B000208DF865
:101070000700FFF77DFFFFF797FF1EF065F80146B9
:101080009DF8070008438DF807001EF025F901467A
:101090009DF8070008438DF807009DF8070002B08F
:1010A00080BD00000000000080B588B00790069168
:1010B00005920020009004900390FFF74DFF9220CE
:1010C00000F00AF9122003A90191062200F0CCF8E1
:1010D000FFF736FF9DF80C009DF80D1040EA012047
:1010E000ADF80A00BDF90A0000EE100AB8EEC00A19
:1010F00040F2A000C2F2004090ED001A20EE010A7A
:10110000069981ED000A9DF80E109DF80F2041EA26
:101110000221ADF80A10BDF90A1000EE101AB8EE5F
:10112000C00A90ED001A20EE010A069981ED010A2D
:101130009DF810109DF8112041EA0221ADF80A1027
:10114000BDF90A1000EE101AB8EEC00A90ED001AB0
:1011500020EE010A069880ED020AFFF719FF0098B9
:101160000199082200F080F8FFF706FF9DF80C00B7
:101170000F2844D1FFE79DF80E009DF80F1040EABC
:101180000120ADF80A00BDF90A0000EE100AB8EE21
:10119000C00A40F2A400C2F2004090ED001A20EE16
:1011A000010A079981ED000A9DF810109DF81120A1
:1011B00041EA0221ADF80A10BDF90A1000EE101A3A
:1011C000B8EEC00A90ED001A20EE010A079981EDF1
:1011D000010A9DF812109DF8132041EA0221ADF892
:1011E0000A10BDF90A1000EE101AB8EEC00A90ED10
:1011F000001A20EE010A079880ED020AFFE7FFF7C8
:10120000ABFEA22000F068F8222003A9022200F021
:101210002BF8FFF795FE9DF80C009DF80D10C0000F
:1012200040EA5110ADF80A00BDF90A00B0F5806F30
:1012300007DBFFE7BDF80A00A0F50060ADF80A0083
:10124000FFE7BDF90A0000EE100AB8EEC01AB4EECE
:10125000002AB3EE070AA1EE020A059880ED000A03
:1012600008B080BD0000000080B584B08DF80F008C
:1012700002918DF807209DF80F0040F0800000F0EB
:101280002BF8FFE79DF8070070B1FFE7552000F04D
:1012900023F8029908700298013002909DF8070027
:1012A00001388DF80700EDE704B080BD00000000B4
:1012B00080B582B08DF8070000919DF8070040F0DE
:1012C000800000F009F8552000F006F80099087039
:1012D00002B080BD0000000080B582B08DF807002C
:1012E00069464FF47A70086043F62470C2F20040F9
:1012F0000DF107010DF1060201230CF059FF9DF8D5
:10130000060002B080BD000080B582B08DF80700F5
:101310008DF806109DF80700FFF7DEFF9DF8060028
:10132000FFF7DAFF02B080BD80B582B043F6AC7043
:10133000C2F20040042101910EF0C6F845F24C7053
:10134000C2F200400090322114F0DAFB0098019ABA
:1013500045F26071C2F2004114F06EFB02B080BD34
:1013600080B582B0ADF8060043F6AC70C2F2004022
:1013700004210EF071FCBDF80600D0B1FFE7FFE7D5
:10138000BDF8060043F6AC71C2F200410A68D062B3
:10139000BDF80600C860FFE7BDF80600410843F647
:1013A000AC70C2F200400268916304210EF08CF828
:1013B000FFE702B080BD000080B584B003908DF8D7
:1013C0000B1000200190FFE701989DF80B10884258
:1013D0000FDAFFE70398019900EB810145F24C70A9
:1013E000C2F2004014F058FBFFE701980130019071
:1013F000EAE740F2E820C2F200400068022200233F
:1014000019461FF05DFE04B080BD00000000000022
:10141000FFE7FEE70000000080B586B0059004916C
:1014200005980068029040F20121884206D0FFE74B
:101430000298A0F20220022822D35EE0049B93F8D7
:1014400000C059789A78D87841EA0C2140EA022203
:1014500093F804C0587940EA0C2093F90630EC4622
:10146000CCF8003003B245F63810C2F20040083024
:1014700009B212B201F050F8082002F045F83DE040
:1014800005980068A0F202208DF80F009DF80F006B
:1014900000EB401145F63810C2F2004000EBC100ED
:1014A00000F58870DDF810C09CF800E09CF8011091
:1014B0009CF802309CF8032041EA0E2142EA032204
:1014C0009CF804E09CF8053043EA0E239CF906C022
:1014D000EE46CEF800C01BB209B212B201F01CF801
:1014E0009DF80F000930C0B202F00EF89DF80F0011
:1014F0000930C0B202F008F800E0FFE706B080BD96
:1015000080B584B00390029103980068019011287F
:101510000ED0FFE70198122817D0FFE70198132893
:1015200020D0FFE7019840F20521884227D049E00A
:10153000029942F20820C2F2004000F555701DF0F9
:10154000D3FF052001F0E0FF3DE0029942F20820C0
:10155000C2F2004000F5AB601DF0C6FF062001F0AE
:10156000D3FF30E0029942F20820C2F2004000F5B9
:10157000CA601EF02DF8072001F0C6FF23E0029B91
:1015800093F800C059789A78D87841EA0C2140EA5B
:10159000022293F804C0587940EA0C2093F90630EF
:1015A000EC46CCF8003003B242F20820C2F2004010
:1015B00000F58A6009B212B200F0AEFF042001F01B
:1015C000A3FF00E0FFE704B080BD000000000000C2
:1015D00082B00190009101980068B0F5407F01D180
:1015E000FFE700E0FFE702B07047000000000000E6
:1015F00080B592B0002008900A900B9002210591CE
:101600000C91012106910D910E900F9043F6600010
:10161000C2F2004002900AA9049106F0BDFD059AAD
:10162000089B029869460B60114606F041FE069938
:10163000089A029806F06CFC089A02984FF0007124
:10164000079106F065FC069A0298114606F050FDD7
:10165000029807F029FF049943F60010C2F20040F7
:10166000039006F099FD059A089B039869460B6064
:10167000114606F01DFE069A0398114606F038FD45
:101680000699089A039806F043FC0799089A03986C
:1016900006F03EFC039807F007FF049943F6A010FC
:1016A000C2F20040099006F077FD059A089B099860
:1016B00069460B60114606F0FBFD069A0998114633
:1016C00006F016FD0699089A099806F021FC07997C
:1016D000089A099806F01CFC099807F0E5FE12B07C
:1016E00080BD00000000000084B08DF80F00029162
:1016F000ADF806209DF80F000146009123281DD863
:101700000099DFE801F012131415161B1B1B1B1B9D
:101710001B1B1B1B1B1B1B1B1B1B1B1B1B1B1B1B19
:101720001B1B1B1B1B1B1718191A08E007E006E000
:1017300005E004E003E002E001E000E0FFE7002054
:1017400004B0704700000000002070470000000057
:1017500080B582B043F24C10C2F20040009041F2DA
:101760000E31C2F200410022019219F03DFB0098B7
:1017700040F60E31C2F2004119F016FB019802B09A
:1017800080BD00000000000080B584B0039002918D
:101790000398029909681CF0DBFD039943F24C1091
:1017A000C2F20040019019F0FFFA019819F0A0FA76
:1017B000002004B080BD000083B0029001918DF83C
:1017C000032000208DF802009DF9020003B070474D
:1017D00080B586B00490ADF80E1000208DF80D0095
:1017E00043F24C10C2F20040D0F8BC0202900298C2
:1017F000D0F8140220B1FFE701208DF8170013E0A4
:101800000499BDF80E2043F24C10C2F20040019042
:1018100019F0EAFA019819F0F3FB8DF80D009DF824
:101820000D008DF81700FFE79DF8170006B080BD8A
:1018300080B588B041F62830C2F20040049000F52F
:10184000A4609FED6E0A15F00BFE049890F88005D9
:1018500040B9FFE741F62830C2F20040D0F86005F9
:101860000790FFE79DED070A9FED651AB4EE410A68
:10187000F1EE10FA09DBFFE79DED070A9FED611A13
:1018800030EE010A8DED070AFFE79DED070A9FED97
:101890005E1AB4EE410AF1EE10FA09DAFFE79DEDA7
:1018A000070A9FED5A1A30EE010A8DED070AFFE78D
:1018B0004CF6CD40C3F6CC500690002005909DED2F
:1018C000070A9DED061AB4EE410AF1EE10FA09DDA1
:1018D000FFE79DED070A9DED061A30EE410A8DEDFA
:1018E000050A1EE09DED070A9DED061AB1EE411AAC
:1018F000B4EE410AF1EE10FA09DAFFE79DED070AAE
:101900009DED061A30EE010A8DED050A08E0002073
:10191000059041F62831C2F20041C1F84C05FFE7BD
:10192000FFE79DED050AF1EE400A41F62830C2F2CC
:101930000040039000F5A76002909FED300A13F07D
:101940006BFF0299039891ED070A00F5886090ED0E
:101950003A1A30EE010A80ED020A90ED020A90ED8B
:10196000051AB1EE411AB4EE410AF1EE10FA0DDC9F
:10197000FFE741F62830C2F2004000F2544090EDFB
:10198000000AB1EE400A8DED010A2AE041F6283046
:10199000C2F2004000F5886090ED020A90ED051A51
:1019A000B4EE410AF1EE10FA0BDBFFE741F6283006
:1019B000C2F2004000F2544090ED000A8DED000AA2
:1019C0000AE041F62830C2F2004000F5896090ED4F
:1019D000000A8DED000AFFE79DED000A8DED010A7A
:1019E000FFE79DED010A41F62830C2F2004000F504
:1019F000896080ED000A08B080BD00BF00000000D3
:101A0000000034430000B4C3000034C30000B443FA
:101A100080B584B041F62830C2F2004090F88005CD
:101A2000002840F08480FFE741F62830C2F20040F1
:101A300000F59C6015F078FCB5EE400AF1EE10FA66
:101A40000BDBFFE741F62830C2F2004000F59C6056
:101A500015F06AFC8DED030A0CE041F62830C2F265
:101A6000004000F59C6015F05FFCB1EE400A8DED82
:101A7000030AFFE79DED030A41F62830C2F2004059
:101A800000F24C4191ED001A80EE010A8DED020A40
:101A900000F59E6015F048FCB5EE400AF1EE10FA34
:101AA0000BDBFFE741F62830C2F2004000F59E60F4
:101AB00015F03AFC8DED010A0CE041F62830C2F237
:101AC000004000F59E6015F02FFCB1EE400A8DED50
:101AD000010AFFE79DED020A9DED011A41F628304B
:101AE000C2F2004000F58A6090ED002A81EE021AF1
:101AF00030EE010A9FED1F1AB4EE410AF1EE10FA22
:101B00000BDDFFE741F62831C2F200414CF6CD4033
:101B1000C3F6CC60C1F8740508E041F62831C2F282
:101B200000414FF07E50C1F87405FFE708E041F630
:101B30002831C2F200414FF07C50C1F87405FFE734
:101B400041F62830C2F20040009000F2544191ED7D
:101B5000000A00F2745191ED001A20EE010A00F51E
:101B6000A46015F07DFC0099D1F82805C1F848045F
:101B700004B080BDCDCC4C3D80B588B041F6283056
:101B8000C2F2004007900021C4F2D23101604160EE
:101B90000021C4F2962181600021C160016190EDB5
:101BA000000A90ED031AF0EE000ACDED050A80EE72
:101BB000200A30EE010A20F05FF8DDED050A0798F3
:101BC0008DED060A90ED010A90ED041A80EE200AD0
:101BD00030EE010A20F050F8B0EE401A9DED060AF2
:101BE00030EE010A20F09CFC079880ED050A90ED8C
:101BF000020A9FED421A20EE011A9FED410A80EE83
:101C0000010A9FED401A20EE010A80ED060A00212C
:101C1000CCF2E011C0F8641500F2645090ED000AB7
:101C20009FED391AB4EE410AF1EE10FA0FDDFFE72D
:101C300041F62830C2F2004000F2645090ED000AF4
:101C40009FED321A30EE010A80ED000AFFE741F6FF
:101C50002830C2F20040029040F20A51A0F8681504
:101C600000F59C609FED2A0A8DED000ADFED290A40
:101C7000CDED030A15F060FB9DED000A0298DDED45
:101C8000030A00F59E6015F057FB0298DDED030A8C
:101C900000F5A4609FED200A8DED010A15F04CFBC4
:101CA0009DED010A0298DDED030A00F5A06015F034
:101CB00043FB0298DDED030A00F5A2609FED170AD1
:101CC00015F03AFB42F20820C2F20040049000F600
:101CD000DC000A2101F08CFE049800F5E960022185
:101CE00001F086FE049800F55A60322101F080FE72
:101CF00000F016F800F0D0F808B080BDDB0FC94046
:101D0000000070423C3C7C410000B4430000B4C37E
:101D10000000204200000000CDCCCC3D9A99193E35
:101D200080B582B041F62830C2F20040009000F544
:101D3000A7609FED0F0ADFED0F0ACDED010AB1EEAE
:101D4000081AF1EE001AB2EE0E2A13F045FD0098C3
:101D5000DDED011A00F2B440B2EE042AB0EE610AE1
:101D6000F0EE610AB0EE611A13F036FD02B080BDEC
:101D7000CDCC4C3E0000000081B045F6D400C2F24C
:101D80000040807A032808D1FFE741F62831C2F2EB
:101D90000041002081F8800500E0FFE741F628308F
:101DA000C2F2004090F88005D8BBFFE740F2EC504B
:101DB000C2F200400078C00790B3FFE741F6283038
:101DC000C2F2004090F870050146009120B1FFE793
:101DD0000098012811D021E045F6D400C2F200405D
:101DE000407A022808D1FFE741F62831C2F20041CB
:101DF000012081F87005FFE711E045F6D400C2F23A
:101E00000040407A032808D1FFE741F62831C2F2AA
:101E10000041002081F87005FFE700E0FFE7FFE7E1
:101E200000E0FFE701B0704783B002908DF8071023
:101E30008DF806200298013801460091072826D81F
:101E40000099DFE801F0040C241C2424241441F63A
:101E50002831C2F20041FF2081F8340518E041F634
:101E60002831C2F20041012081F8360510E041F628
:101E70002831C2F20041012081F8370508E041F61F
:101E80002831C2F20041FF2081F8350500E0FFE76C
:101E900003B070470000000080B586B041F62963AA
:101EA000C0F600030F20009000210391022204924B
:101EB00014F026FA0098039941F61973C0F600034E
:101EC0000322019214F01CFA0399049A41F68973D3
:101ED000C0F600034FF4986014F012FA0399049AC4
:101EE00042F23143C0F600034FF4804014F008FA88
:101EF000019A03994AF2F123C0F6010305931020D9
:101F0000029014F0FDF902980399049A059B14F0CD
:101F1000F7F906B080BD000083B002908DF807107D
:101F20008DF806200298013801460091072826D82E
:101F30000099DFE801F0040C241C2424241441F649
:101F40002831C2F20041002081F8340518E041F642
:101F50002831C2F20041002081F8360510E041F638
:101F60002831C2F20041002081F8370508E041F62F
:101F70002831C2F20041002081F8350500E0FFE77A
:101F800003B070470000000080B584B003908DF866
:101F90000B108DF80A2041F62830C2F2004090F86C
:101FA000700540B1FFE741F62831C2F20041002040
:101FB00081F8700541E003980190402804D0FFE7C4
:101FC0000198802816D036E041F62830C2F2004051
:101FD000009000F5A76013F0EFFB0098012180F856
:101FE000701500F2544191ED000A00F5A46015F05F
:101FF00037FA21E041F62830C2F2004000F5AB602C
:1020000090ED000AB5EE400AF1EE10FA0AD1FFE7B2
:1020100041F62831C2F200410020C4F27010C1F82C
:10202000580507E041F62831C2F200410020C1F80E
:102030005805FFE700E0FFE7FFE704B080BD0000C0
:1020400081B041F62830C2F200400021CCF2E0110C
:10205000C0F8641500F2645090ED000A9FED2D1A4F
:10206000B4EE410AF1EE10FA0FDBFFE741F628303B
:10207000C2F2004000F2645090ED000A9FED261A73
:1020800030EE010A80ED000AFFE741F62830C2F287
:10209000004000F2645090ED000AB5EE400AF1EE07
:1020A00010FA0FDAFFE741F62830C2F2004000F2E2
:1020B000645090ED000A9FED171A30EE010A80ED92
:1020C000000AFFE70120ADF80200BDF80200012878
:1020D00016D1FFE742F20820C2F20040D0F8981370
:1020E00041F62830C2F2004000F5A760416390ED50
:1020F0000B1A90ED0D0A30EE410A80ED0A0A07E056
:1021000041F62831C2F200410020C1F86005FFE726
:1021100001B070470000B4430000B4C300000000E9
:1021200080B594B041F62830C2F20040119000F51D
:10213000AC600E9090ED000A9FED7A1A8DED0F1AAB
:1021400020EE010A9FED781A8DED101A80EE010A3B
:10215000B7EEC00A20F0C4F80E989DED0F2A9DED51
:10216000101AB7EEC00B8DED130A90ED000A20EEA9
:10217000020A80EE010AB7EEC00A1FF07DFCB7EE3E
:10218000C00B8DED120A00F0D3F8119890F870058D
:10219000012819D1FFE741F62830C2F2004000F2D1
:1021A000745191ED001A00F5886090ED030A20EE5D
:1021B000010A80ED030A91ED001A90ED040A20EE69
:1021C000010A80ED040AFFE740F2EC50C2F2004041
:1021D0000078C007B8B3FFE745F6D400C2F200406C
:1021E0000A90B0F9040000EE100AB8EEC00A41F6F9
:1021F0002830C2F200400D9000F588610B9191EDFE
:10220000031A20EE010A9FED491A8DED0C1A80EE9B
:10221000010A00F59C6015F023F90A9A0B999DEDCF
:102220000C1A0D98B2F9062000EE102AB8EEC00A7A
:1022300091ED042A20EE020A80EE010A00F59E606C
:1022400015F00EF92CE041F62830C2F2004009905A
:1022500000F58861089191ED040A90F9341590F920
:102260003625114401EE101AB8EEC11A20EE010A0B
:1022700000F59E6015F0F4F80899099891ED030AAD
:1022800090F9371590F93525114401EE101AB8EE82
:10229000C11A20EE010A00F59C6015F0E1F8FFE795
:1022A00041F62830C2F20040009000F588610791A5
:1022B00000F59C60039015F037F800988DED020A48
:1022C0009DED120A8DED010A00F59E60049015F057
:1022D0002BF89DED012A9DED021A039807999DEDBB
:1022E000133A20EE030A91EE420A81ED000A15F03E
:1022F0001BF804988DED060A9DED130A8DED050A75
:1023000015F012F89DED052A9DED061A07989DED32
:10231000123A20EE030AA1EE420A80ED010A14B03F
:1023200080BD00BFDB0F494000003443000025445E
:1023300080B584B041F62830C2F20040019000F52B
:102340009C6015F00DF8019800F58861029100F588
:102350009E6015F005F8019800F5A46015F000F8EE
:102360000199029891ED000A91ED011A30EE010AEF
:10237000B1EE001A80EE010A8DED030A40F26412FC
:10238000C2F20042138800EE103AB8EEC00A9FED88
:10239000263A80EE030AB7EEC00A9FED1D2B80EEB1
:1023A000020B30EE000B9FED1C1B20EE010B91ED9C
:1023B000024AB7EEC44A20EE040BB7EEC00B80ED24
:1023C000030AC368C1F85034128800EE102AB8EE30
:1023D000C00A9DED034A80EE040A80EE030AB7EEC0
:1023E000C00A80EE020B30EE000B20EE010B91EDE7
:1023F000021AB7EEC11A20EE010B9FED091B80EE09
:10240000010BB7EEC00B80ED050A04B080BD00BF24
:10241000C3F5285C8FC22D4000000060FB210940FD
:1024200000000080BE9FF63F0000704200000000E8
:1024300082B001908DF803108DF8022041F628300B
:10244000C2F2004090F8300540B9FFE741F628316C
:10245000C2F20041012081F8300510E041F6283039
:10246000C2F2004090F83005012808D1FFE741F69C
:102470002831C2F20041002081F83005FFE702B0A8
:10248000704700000000000080B584B003908DED1F
:10249000020ACDED010A8DED001A039850309DED32
:1024A000020ADDED010A9DED001AB1EE411A13F0AA
:1024B000A3F8039890ED190ADDED000A13F0ACF9CA
:1024C0000399C869C1F8800004B080BD0000000015
:1024D00087B006908DED050ACDED040A8DED031A47
:1024E000CDED021A8DED012ACDED002A0598069951
:1024F00008600498069948600398069988600298D5
:102500000699C862019806998862009806994862FF
:1025100007B070470000000080B583B0844605987E
:10252000CDF808C0ADF80610ADF80420ADF80230C3
:102530008DF80100BDF8060002990880BDF804007E
:1025400002994880BDF80200029988809DF8010038
:102550000299887103B080BD80B543F22840C2F271
:10256000004003F09DFB80BD80B543F2A040C2F265
:10257000004003F095FB80BD80B543F29050C2F25D
:10258000004003F08DFB80BD80B543F20860C2F2CD
:10259000004003F085FB80BD80B543F21850C2F2C5
:1025A000004003F07DFB80BD80B543F2E870C2F2CD
:1025B000004003F075FB80BD80B543F27070C2F23D
:1025C000004003F06DFB80BD80B543F28060C2F235
:1025D000004003F065FB80BD80B543F2F860C2F2B5
:1025E000004003F05DFB80BD83B00290029801685B
:1025F00001201022C4F202029142009000F0A38058
:10260000FFE70298016801202822C4F202029142E9
:10261000009000F09880FFE70298016801204022B6
:10262000C4F202029142009000F08D80FFE7029810
:10263000016801205822C4F202029142009000F089
:102640008280FFE70298016801207022C4F2020232
:102650009142009077D0FFE702980168012088221C
:10266000C4F20202914200906DD0FFE70298016827
:102670000120A022C4F202029142009063D0FFE741
:10268000029801680120B822C4F20202914200902F
:1026900059D0FFE702980168012040F21042C4F2CD
:1026A0000202914200904ED0FFE70298016801209B
:1026B00040F22842C4F202029142009043D0FFE768
:1026C00002980168012040F24042C4F202029142A5
:1026D000009038D0FFE702980168012040F258428C
:1026E000C4F20202914200902DD0FFE702980168E7
:1026F000012040F27042C4F202029142009022D0C6
:10270000FFE702980168012040F28842C4F2020209
:102710009142009017D0FFE702980168012040F233
:10272000A042C4F20202914200900CD0FFE702984E
:1027300000684FF64831CBF6FD710844B0FA80F0DE
:1027400040090090FFE70098C00740B3FFE70298F8
:10275000007810384AF6AB21CAF6AA21A0FB011076
:1027600000090190019800F0070143F22020C0F613
:102770000200405C0299C8650198042807D3FFE76E
:1027800002990868042262F30900886506E002994C
:10279000086840F2FF3290438865FFE705E0029940
:1027A000086820F0FF008865FFE70298806D03B09D
:1027B000704700000000000084B003900398006898
:1027C000019003980168012045F20842C5F6020213
:1027D000914200904ED0FFE703980168012045F236
:1027E0001C42C5F602029142009043D0FFE70398D5
:1027F0000168012045F23042C5F602029142009084
:1028000038D0FFE703980168012045F24442C5F63D
:102810000202914200902DD0FFE703980168012049
:1028200045F25842C5F602029142009022D0FFE7DD
:1028300003980168012045F26C42C5F602029142FC
:10284000009017D0FFE703980168012045F280420D
:10285000C5F60202914200900CD0FFE70398006891
:102860004AF66C31CAF2FD710844B0FA80F04009B2
:102870000090FFE70098C00710B3FFE703980078C7
:1028800008384CF6CD41CCF6CC41A0FB0110000934
:102890000290029945F60000C5F6020000EB8100A7
:1028A00003990866039945F68000C5F6020048665C
:1028B000029800F01F01012088400399886635E0E6
:1028C0000398007810384AF6AB21CAF6AA21A0FB7B
:1028D000011000090290019840F2B841C4F20201CF
:1028E00088420CD8FFE7019840F21041C4F202017F
:1028F000884204D3FFE7029808300290FFE702996C
:1029000040F60000C4F2020000EB81000399086663
:10291000039940F68000C4F202004866029800F075
:102920001F010120884003998866FFE704B07047C3
:1029300083B002900298007901900198002800F07D
:102940008A80FFE70198082800F28580FFE7029857
:102950000168012045F20842C5F60202914200904A
:102960004ED0FFE702980168012045F21C42C5F6EF
:1029700002029142009043D0FFE7029801680120D3
:1029800045F23042C5F602029142009038D0FFE78E
:1029900002980168012045F24442C5F602029142C4
:1029A00000902DD0FFE702980168012045F25842BF
:1029B000C5F602029142009022D0FFE7029801681A
:1029C000012045F26C42C5F602029142009017D0F8
:1029D000FFE702980168012045F28042C5F6020235
:1029E000914200900CD0FFE7029800684AF66C31E3
:1029F000CAF2FD710844B0FA80F040090090FFE788
:102A00000098C00780B1FFE7019945F6FC00C5F6C4
:102A1000020000EB81000299C866029945F6401059
:102A2000C5F6020008670FE0019940F6FC00C4F209
:102A3000020000EB81000299C866029940F640103E
:102A4000C4F202000867FFE70198411E0120884098
:102A500002994867FFE703B07047000000000000DC
:102A600085B0049000208DF80F000498806918BB91
:102A7000FFE70498806A029003281BD80299DFE8D8
:102A800001F0020D0218049890F82F00C00720B141
:102A9000FFE701208DF80F00FFE70CE00498C06A03
:102AA000B0F1C07F04D1FFE701208DF80F00FFE7F0
:102AB00001E000E0FFE747E004988069B0F5005FBF
:102AC00026D1FFE70498806A019003281ED8019957
:102AD000DFE801F00206021101208DF80F0016E078
:102AE000049890F82F00C00720B1FFE701208DF86F
:102AF0000F00FFE70BE00498C06AB0F1C07F04D17B
:102B0000FFE701208DF80F00FFE700E0FFE71AE084
:102B10000498806A0090032804D3FFE700980328F4
:102B200004D00EE001208DF80F000BE0049890F81F
:102B30002F00C00720B1FFE701208DF80F00FFE74D
:102B400000E0FFE7FFE7FFE79DF80F0005B07047E3
:102B500089B008900791069205930898806D0490BB
:102B60000898806D03900898016801201022C4F233
:102B700002029142029000F00381FFE70898016889
:102B800001202822C4F202029142029000F0F88053
:102B9000FFE70898016801204022C4F20202914236
:102BA000029000F0ED80FFE70898016801205822AC
:102BB000C4F202029142029000F0E280FFE708981E
:102BC000016801207022C4F202029142029000F0DA
:102BD000D780FFE70898016801208822C4F202022A
:102BE0009142029000F0CC80FFE708980168012034
:102BF000A022C4F202029142029000F0C180FFE7DD
:102C0000089801680120B822C4F2020291420290A1
:102C100000F0B680FFE708980168012040F21042FA
:102C2000C4F202029142029000F0AA80FFE70898E5
:102C30000168012040F22842C4F20202914202904F
:102C400000F09E80FFE708980168012040F24042B2
:102C5000C4F202029142029000F09280FFE70898CD
:102C60000168012040F25842C4F2020291420290EF
:102C700000F08680FFE708980168012040F270426A
:102C8000C4F20202914202907AD0FFE708980168EC
:102C9000012040F28842C4F20202914202906FD0B9
:102CA000FFE708980168012040F2A042C4F2020246
:102CB0009142029064D0FFE708980168012040F239
:102CC000B842C4F202029142029059D0FFE708983C
:102CD0000168012045F20842C5F6020291420290C5
:102CE0004ED0FFE708980168012045F21C42C5F666
:102CF00002029142029043D0FFE708980168012048
:102D000045F23042C5F602029142029038D0FFE708
:102D100008980168012045F24442C5F6020291423A
:102D200002902DD0FFE708980168012045F2584233
:102D3000C5F602029142029022D0FFE7089801688E
:102D4000012045F26C42C5F602029142029017D072
:102D5000FFE708980168012045F28042C5F60202AB
:102D6000914202900CD0FFE7089800684AF66C3157
:102D7000CAF2FD710844B0FA80F040090290FFE702
:102D80000298C00770B1FFE70898416E806E4860F6
:102D90000898C06E28B1FFE70898016F406F48603F
:102DA000FFE7FFE70898016801201022C4F2020241
:102DB0009142019000F0A380FFE70898016801208C
:102DC0002822C4F202029142019000F09880FFE7AD
:102DD0000898016801204022C4F202029142019049
:102DE00000F08D80FFE70898016801205822C4F2A6
:102DF00002029142019000F08280FFE7089801688A
:102E000001207022C4F202029142019077D0FFE7C4
:102E10000898016801208822C4F2020291420190C0
:102E20006DD0FFE7089801680120A022C4F20202D9
:102E30009142019063D0FFE7089801680120B82211
:102E4000C4F202029142019059D0FFE7089801684C
:102E5000012040F21042C4F20202914201904ED091
:102E6000FFE708980168012040F22842C4F20202FC
:102E70009142019043D0FFE708980168012040F299
:102E80004042C4F202029142019038D0FFE7089814
:102E90000168012040F25842C4F2020291420190BE
:102EA0002DD0FFE708980168012040F27042C4F27B
:102EB00002029142019022D0FFE7089801680120A8
:102EC00040F28842C4F202029142019017D0FFE71B
:102ED00008980168012040F2A042C4F20202914227
:102EE00001900CD0FFE7089800684FF64831CBF608
:102EF000FD710844B0FA80F040090190FFE70198A5
:102F0000C00750B3FFE70898C06D00F01F013F20D5
:102F100088400499886008980168086820F4802037
:102F200008600598089909684860089880684028F2
:102F300009D1FFE7069808990968886007980899F9
:102F40000968C86008E007980899096888600698C9
:102F500008990968C860FFE782E0089801680120C5
:102F600045F20842C5F60202914200904ED0FFE7BA
:102F700008980168012045F21C42C5F60202914200
:102F8000009043D0FFE708980168012045F23042E5
:102F9000C5F602029142009038D0FFE70898016818
:102FA000012045F24442C5F60202914200902DD024
:102FB000FFE708980168012045F25842C5F6020271
:102FC0009142009022D0FFE708980168012045F265
:102FD0006C42C5F602029142009017D0FFE70898B4
:102FE0000168012045F28042C5F60202914200903C
:102FF0000CD0FFE7089800684AF66C31CAF2FD7100
:103000000844B0FA80F040090090FFE70098C0073C
:1030100020B3FFE70898C06D00F01F010120884031
:10302000039948600598089909684860089880687D
:10303000402809D1FFE70698089909688860079831
:1030400008990968C86008E00798089909688860C5
:10305000069808990968C860FFE700E0FFE7FFE706
:1030600009B070470000000080B584B00390029161
:1030700003990878497840EA01206FF3DF2002992C
:10308000088002990888A0F5806008800399487834
:103090008978C00840EA41106FF3DF200299488028
:1030A00002994888A0F58060488003998878CA789A
:1030B0000979800940EA820040EA81206FF3DF202D
:1030C0000299888002998888A0F580608880039999
:1030D00008794979400840EAC1106FF3DF2002996E
:1030E000C8800299C888A0F58060C8800298B0F9AD
:1030F000000000EE100AB8EEC00ADFED3F0ACDED89
:10310000010A00F005F9DDED010ABDEEC00A10EE7E
:10311000100A029908800298B0F9020000EE100A25
:10312000B8EEC00A00F0F4F8DDED010ABDEEC00A09
:1031300010EE100A029948800298B0F9040000EEDF
:10314000100AB8EEC00A00F0E3F8DDED010ABDEEAA
:10315000C00A10EE100A029988800298B0F90600A1
:1031600000EE100AB8EEC00A00F0D2F8BDEEC00AB8
:1031700010EE100A0299C8800299087A88720299A2
:10318000487AC872039840798009029908720398B6
:103190004079C0F301100299487203998879C9797E
:1031A00040EA0120029988810399087A497A40EA25
:1031B00001200299C8810399887AC97A40EA0120DE
:1031C000029908820398007B029988740398407BD7
:1031D0000299C8740399887BC97B40EA012002994F
:1031E00088820399087C497C40EA0120A0F5806030
:1031F0000299C88204B080BD000020420000000097
:1032000082B001900091019800880099088001988F
:1032100040880099488001988088009988800198AA
:10322000C08840420099C8800198007A009948728D
:103230000198407A009988720198807A00994873C1
:103240000198C07A00998873019880890099088252
:103250000198C089009948820198008A0099888263
:103260000198807C009988750198C07C0099C87588
:103270000198808A009908830198C08A0099488340
:1032800002B070470000000081B000904EF6FC5183
:10329000CEF20001086840F08070086041F204013D
:1032A000CEF200010020086041F20002CEF20002DE
:1032B000116841F001011160009944F24022C0F20E
:1032C0000F024A4340F2EC21C2F200410A600A6850
:1032D00044F6D353C1F26203A2FB0332920940F2D7
:1032E000F023C2F200431A6009684DF68362C4F20B
:1032F0001B32A1FB0221890C40F2F422C2F20042EF
:10330000116040F2F821C2F20041086001B070473C
:1033100083B08DED010ACDED000A9DED010A9DED12
:10332000001AB1EE411AB4EE410AF1EE10FA0DDDC9
:10333000FFE79DED010A9DED001AB4EE410AF1EEA2
:1033400010FA03DAFFE70020029002E001980290F1
:10335000FFE79DED020A03B0704700000000000087
:10336000704700000000000080B582B08DF80700B3
:103370009DF807000C2818D1FFE745F63010C2F27F
:1033800000400168013101600068022801D8FFE7B0
:103390000BE045F63010C2F2004000680B2801D364
:1033A000FFE7FFE7FDF7F4FAFFE702B080BD00009A
:1033B00081B08DF8030001B07047000000000000EC
:1033C00080B584B0642101910023039318461A4606
:1033D00000F06EF80199039B012000901A4600F05E
:1033E00067F80199039B02201A4600F061F80199E1
:1033F000039B03201A4600F05BF80199039B04200D
:103400001A4600F055F80199039B05201A4600F072
:103410004FF80199039B06201A4600F049F80199DC
:10342000039B07201A4600F043F800980199039B7C
:1034300042F2C002C2F2004282F8580082F86C00E8
:1034400008201A4600F034F80199039B09201A4617
:1034500000F02EF80199039B0A201A4600F028F884
:10346000039B0B204FF4FA7102911A4600F020F8EA
:103470000199039B0C201A4600F01AF80299039B4D
:1034800042F6D912C0F601020D2000F011F80199A0
:10349000039B0E201A4600F00BF80299039B0F20A5
:1034A0001A4600F005F804B080BD000000000000DE
:1034B00084B08DF80F0002910192009302989DF85C
:1034C0000F1001EB810242F2C001C2F2004141F84B
:1034D00022009DF80F0000EB800001EB800200202D
:1034E000107201989DF80F2002EB820201EB82021C
:1034F000D06000989DF80F2002EB820201EB820160
:10350000086104B07047000080B582B08DF80700F4
:1035100006F022FA9DF8071001EB810242F2C00189
:10352000C2F2004101EB8201486002B080BD0000A0
:1035300081B0EFF3108072B60090FFE7FEE7000065
:1035400044F60C01C5F60201086840F0020008606C
:10355000FFE744F60400C5F6020000688004002876
:1035600001D4FFE7F5E7704780B543F66000C2F28B
:10357000004005F0D5F880BD80B543F66000C2F28A
:10358000004005F0CDF880BD80B543F60010C2F2D2
:10359000004005F0C5F880BD80B543F60010C2F2CA
:1035A000004005F0BDF880BD80B543F6A010C2F222
:1035B000004005F0B5F880BD80B543F6A010C2F21A
:1035C000004005F0ADF880BD84B002900298406BD9
:1035D000009002980068D0F884004FF6FC71884390
:1035E000009940EA810002990968C1F884000298B4
:1035F0000068D0F8840020F47F00029A1168926B72
:1036000040EA0240C1F884000298816B00980844A7
:10361000009002980068D0F888006FF38F0000993E
:1036200040EA810002990968C1F8880002980068A0
:10363000D0F8880020F4FE00029A1168D26B40EAAC
:103640000240C1F888000298C16B009800EB41006D
:10365000009002980068D0F8A0006FF38F000099E6
:1036600040EA810002990968C1F8A0000298006848
:10367000D0F8A00020F4FE00029A1168126C40EA13
:103680000240C1F8A0000299086C496C009A00FB46
:103690000120009002980068D0F8B0006FF38F000E
:1036A000009940EA810002990968C1F8B0000298C7
:1036B0000068D0F8B00020F4FE00029A1168926C05
:1036C00040EA0240C1F8B0000299886CC96C009AC7
:1036D00000FB0120009002980068D0F8AC006FF366
:1036E0008F00009940EA810002990968C1F8AC0096
:1036F0000299086D496D009A00FB01200090029824
:103700000068D0F8F0006FF38F00009940EA810064
:1037100002990968C1F8F00002980068D0F8F0003A
:1037200020F47C10029A1168926D40EA0240C1F8C0
:10373000F0000298816D009800EB41000090029823
:103740000068D0F8C0006FF38F00009940EA810054
:1037500002990968C1F8C00002980068D0F8C0005A
:1037600020F47C10029A1168D26D40EA0240C1F840
:10377000C00002980068D0F8C00020F07C50029A87
:103780001168126E40EA0260C1F8C00002994A6BEB
:103790004AF60040C4F2000000EB8200C8660299BD
:1037A0008A6BC86E00EB820008670299CA6B086FCB
:1037B00000EBC200486702990A6C4B6C486F5A4391
:1037C00000EB8200886702998A6CCB6C886F5A4341
:1037D00000EB8200C86702990A6D4B6DC86F5A43AF
:1037E00000EB8200C1F8800002998A6DD1F8800058
:1037F00000EBC200C1F884000299CA6D8B6ED1F84B
:1038000084005A4300EB8200C1F8880002990A6ED6
:103810008B6ED1F888005A4300EB8200C1F890000B
:103820000298D0F890004DF2FD31C4F200018842B8
:103830000FD3FFE70299D1F89C0040F02000C1F8B7
:103840009C000299032081F8980001208DF80F0058
:1038500017E00298C06E0190FFE701980299D1F835
:103860009010884208D2FFE7019900200860FFE726
:10387000019804300190F0E7FFE700208DF80F0079
:10388000FFE79DF80F0004B0704700000000000043
:1038900088B007900691059204930698406848B94D
:1038A000FFE70698016882680069104340EA81409A
:1038B000039009E006980168826800691043084394
:1038C00040F080400390FFE70698D0F820C0C16820
:1038D00042698369C06940EA0C601843104340EABA
:1038E000014002900798826ED0F8840004995143F9
:1038F00000EB810001900398019908600198043061
:10390000019002980199086001980430019000200C
:103910000090FFE700980699CA6843F21021C0F6AC
:103920000201895C88420DD2FFE705980099405852
:1039300001990860019804300190FFE70098043075
:103940000090E7E708B0704785B002A900910146F2
:103950000098049180ED010A00200290ADF8060065
:10396000FFE7BDF806000499B1F8901101398842CB
:103970001DDAFFE70098049ABDF8063002EB8301D8
:10398000496842F823100499BDF8062001EB820132
:1039900091ED001A90ED000A30EE010A80ED000A68
:1039A000FFE7BDF806000130ADF80600D9E7009842
:1039B0000399049AB2F8903102EB830242F8041C96
:1039C00090ED011A90ED000A30EE010A80ED000A38
:1039D00090ED000A0498B0F8900101EE100AB8EEDC
:1039E000C11A80EE010A05B0704700000000000017
:1039F00082B00190ADF80210BDF802000199A1F863
:103A000090010020ADF80000FFE7BDF80000BDF810
:103A1000021088420DDAFFE70199BDF8002000206E
:103A200041F82200FFE7BDF800000130ADF80000CA
:103A3000EBE702B07047000084B002900191ADF84E
:103A40000220029828B9FFE74FF6FF70ADF80E008C
:103A500021E0FFE70198411E0191B8B1FFE702980C
:103A6000411C029100788DF80100BDF802109DF80C
:103A700001004840C2B243F6E630C0F6020030F81A
:103A8000120080EA1120ADF80200E3E7BDF8020061
:103A9000ADF80E00FFE7BDF80E0004B0704700005F
:103AA00082B00190ADF802108DF80120FFE7BDF85B
:103AB0000200411EADF8021098B1FFE79DF8010029
:103AC00001994A1C0192097848408DF800009DF840
:103AD000001043F20010C0F60200405C8DF80100B7
:103AE000E5E79DF8010002B070470000000000000B
:103AF00040F20040C2F2004090ED690A70470000B9
:103B000040F20040C2F2004090ED680A70470000A9
:103B100080B584B04EF60000C1F6F17000680390E5
:103B20004EF60400C1F6F170006802904EF60800EF
:103B3000C1F6F17000680190019903980844039060
:103B4000039888B1FFE7039840F22421C2F20041B4
:103B50000091023108220EF0E3FE00990298123122
:103B600004220EF0DDFEFFE704B080BD000000007F
:103B700040F20040C2F2004090ED6A0A7047000037
:103B800082B001908DF803108DF8022042F20820D7
:103B9000C2F2004090EDA80A9FED1A1AB4EE410A55
:103BA000F1EE10FA10DDFFE742F20821C2F2004107
:103BB0000020C4F2A000C1F8A0020020C1F8F0016A
:103BC000012081F8360F1BE042F20820C2F20040CB
:103BD00090EDA80AB2EE0E1AB4EE410AF1EE10FA18
:103BE0000DDAFFE742F20821C2F200410020C4F2E0
:103BF000C820C1F8A002002081F8360FFFE7FFE7D8
:103C000002B070470000964280B540F2EC50C2F21C
:103C100000400078C00718B1FFE700F0C5FA02E0E5
:103C200000F0CAF9FFE780BD80B542F20821C2F278
:103C30000041012081F8340F4EF6B420C2F2014059
:103C4000007818B1FFE700F093FE0EE040F2EC5070
:103C5000C2F200400078C00718B1FFE700F0A4FAF4
:103C600002E000F0A9F9FFE7FFE780BD00000000D7
:103C700080B584B042F20820C2F2004003900021D7
:103C8000C4F270210191C0F8F8110021CCF250115A
:103C9000C0F8FC1100210291C0F8E011D0F8E02139
:103CA000C0F8F0210022C4F2BE22C0F8A8220023EE
:103CB000C4F2A003C0F8AC32C0F88C22D0F88C2239
:103CC000C0F8A02241604268C261C0F8A810D0F8D4
:103CD000A810C0F8C01000F55A603221FFF788FE26
:103CE000039800F6DC000A21FFF782FE039800F536
:103CF000E9600221FFF77CFE019A0298039981F89E
:103D0000340F4870C1F83823C1F83C034FF07E529D
:103D1000C1F840230022C4F22012C1F8442300223B
:103D2000CCF2A002C1F84823C1F84C03012081F86D
:103D3000500300F005F800F02BFA04B080BD00003D
:103D400080B58EB042F20820C2F20040079000F524
:103D50000270B1EE080ADFED620ACDED0D0A9FEDAB
:103D6000611ADFED611A9FED612A8DED062A11F0CF
:103D700033FD9DED062A079800F516709FED5C0A4D
:103D8000DFED5C0ACDED020A9FED5B1ADFED5B1AF9
:103D9000DFED5B2AFEF79CFB079800F50C70BFEE89
:103DA000000ADFED580ABAEE001AF7EE001ACDED60
:103DB000001AB2EE042A8DED052A11F00DFDDDED9D
:103DC000001A9DED051A079800F536709FED4E0A12
:103DD000DFED4E0AB2EE0E2A11F0FEFC9DED062A32
:103DE000079824309FED4A0ADFED4A0AB0EE0C1A1C
:103DF000DFED491ACDED011A11F0EEFC0798743091
:103E00009FED460ADFED460A9FED461ADFED461AA2
:103E10009FED462ADFED462AFEF75AFBDDED011A3B
:103E200007984C309FED430ADFED430ACDED040ABD
:103E30009FED421A9FED422A8DED0C2A11F0CCFC29
:103E4000DDED040A9DED051ADDED061A07989DEDDE
:103E50000C2AC8309FED3B0A8DED030A11F0BCFC23
:103E6000DDED022A07989DED0C2A00F58C709FED80
:103E7000360A8DED080AF6EE000ACDED090A9FED2F
:103E8000331A8DED0A1ADFED321ACDED0B1AFEF75B
:103E90001FFB9DED030ADDED040A9DED051ADDED26
:103EA000061A07989DED0C2ADDED0D2A00F5A67087
:103EB0000FF07AFD07989DED080ADDED090A9DEDEA
:103EC0000A1ADDED0B1A9DED0C2A9DED0D3A00F559
:103ED000D270DFED202A0FF073FC0EB080BD00BF62
:103EE00000000000CDCCCC3E0000FA4300C0DA4513
:103EF000000096423333333F0000F0420000484355
:103F00009A99193F6F1283BA6666E63F6F12833A39
:103F10009A99B9400AD7A33C00007A4400001442A1
:103F20008FC2F53C00002D4300002F440000FA44EE
:103F30006666E63E0000A543CDCCCC3D00E02B46B6
:103F40000060EA460000484200008C430000F04355
:103F50000000C842CDCC4C3F42F20820C2F20040E3
:103F600000210170007828BBFFE745F6D400C2F2BB
:103F70000040B0F91A00B0F5C87F08DCFFE745F64D
:103F8000D400C2F20040C07D012809D1FFE742F20F
:103F90000821C2F200410120487081F8340F08E086
:103FA00042F20821C2F200410020487081F8340F2B
:103FB000FFE700E0FFE7704780B588B042F20820D5
:103FC000C2F2004090F8340FC00768B1FFE742F238
:103FD0000821C2F200414DF20A70C3F6A330C1F8C5
:103FE000740AC1F8700A10E042F20821C2F20041DE
:103FF0004DF20A70C3F62330C1F8740A44F2D0407F
:10400000C3F65830C1F8700AFFE745F6D400C2F293
:1040100000400590B0F9100000EE100AB8EEC00A9A
:1040200042F20820C2F20040079000F5E9610691D3
:1040300091EDCB1A20EE010A00F6DC00FFF784FCBC
:1040400005990698079BB0EE401A93ED300A30EEC2
:10405000410A83ED300AD3F8C020DA61B1F91210B9
:1040600000EE101AB8EEC00A90EDCA1A20EE010A4E
:10407000FFF76AFC0798B0EE401A90ED7C0A30EE2C
:10408000010A80ED7C0A90EDA80A90EDAB1AB4EE1F
:10409000410AF1EE10FA09DCFFE742F20820C2F211
:1040A000004090EDAB0A8DED040A24E042F20820B6
:1040B000C2F2004090EDA80A90EDAA1AB4EE410AAF
:1040C000F1EE10FA09DBFFE742F20820C2F20040ED
:1040D00090EDAA0A8DED030A08E042F20820C2F230
:1040E000004090EDA80A8DED030AFFE79DED030A5D
:1040F0008DED040AFFE79DED040A42F20820C2F2AA
:10410000004080EDA80A90ED7C0A90ED7F1AB4EE95
:10411000410AF1EE10FA09DCFFE742F20820C2F290
:10412000004090ED7F0A8DED020A24E042F2082063
:10413000C2F2004090ED7C0A90ED7E1AB4EE410A86
:10414000F1EE10FA09DBFFE742F20820C2F200406C
:1041500090ED7E0A8DED010A08E042F20820C2F2DD
:10416000004090ED7C0A8DED010AFFE79DED010A0C
:104170008DED020AFFE79DED020A42F20820C2F22D
:10418000004080ED7C0A08B080BD00000000000007
:1041900080B543F68133C0F600034FF40050002190
:1041A000022212F0ADF880BD85B045F6D401C2F20E
:1041B0000041B1F9000000EE100AB8EEC00A9FED10
:1041C000821A20EE010A9FED811A80EE011A42F256
:1041D0000820C2F20040049090ED300A30EE010A4F
:1041E00080ED300AD0F8C020C261B1F9021000EEB3
:1041F000101AB8EEC00B9FED701B20EE010B9FED67
:10420000701B80EE011B90ED7C0AB7EEC00A30EE09
:10421000010BB7EEC00B80ED7C0A90ED7C0A90EDAF
:104220007F1AB4EE410AF1EE10FA09DCFFE742F220
:104230000820C2F2004090ED7F0A8DED030A24E0D1
:1042400042F20820C2F2004090ED7C0A90ED7E1A06
:10425000B4EE410AF1EE10FA09DBFFE742F2082062
:10426000C2F2004090ED7E0A8DED020A08E042F2B3
:104270000820C2F2004090ED7C0A8DED020AFFE7B3
:104280009DED020A8DED030AFFE79DED030A42F260
:104290000820C2F2004080ED7C0A45F6D400C2F24C
:1042A0000040407A012838D1FFE745F6D400C2F239
:1042B0000040407B032830D1FFE745F63810C2F2BA
:1042C000004090F82003C00738BBFFE742F2082007
:1042D000C2F2004090EDA80A9FED3D1AB4EE410AEB
:1042E000F1EE10FA0DDAFFE742F20821C2F20041C6
:1042F0000020C4F2C820C1F8A002002081F8360FC7
:104300000AE042F20821C2F200410020C1F8A002F6
:10431000012081F8360FFFE7FFE745F6D401C2F22E
:104320000041487A487342F20820C2F2004090ED02
:10433000A80A90EDAB1AB4EE410AF1EE10FA09DCCE
:10434000FFE742F20820C2F2004090EDAB0A8DED8B
:10435000010A24E042F20820C2F2004090EDA80ACF
:1043600090EDAA1AB4EE410AF1EE10FA09DBFFE76C
:1043700042F20820C2F2004090EDAA0A8DED000A38
:1043800008E042F20820C2F2004090EDA80A8DED4C
:10439000000AFFE79DED000A8DED010AFFE79DEDA4
:1043A000010A42F20820C2F2004080EDA80A05B0DE
:1043B000704700BF00BF00BF666666666666D63F90
:1043C0000000000000A084409A9999BE0000254496
:1043D000000048420000000080B584B040F2A831DF
:1043E000C2F2004191ED050AB1EE400A42F2082006
:1043F000C2F20040029080ED2F0A4A6BC0F8AC2058
:1044000090ED2B0AB0F95024A2F6481201EE102AC2
:10441000B8EEC11A9FEDDE2A81EE021A9FEDDD2A69
:10442000A1EE020A80ED020AD0F87823826191EDB4
:10443000040AB1EE400A80ED7B0A096BC0F8E41172
:1044400000F2946191ED000A9FEDD31A30EE010A5B
:1044500080EDA50A90ED790A00F5AB6191ED081A9F
:104460009FEDCE2A31EE021A9FEDCD2AA1EE020A6F
:104470009FEDCC1A30EE010A80EDA40AD0F8742624
:10448000C0F89C2291ED110A9FEDC72A30EE020A76
:1044900030EE410A9FEDC51A30EE013A90ED790AEF
:1044A00090EDA52A30EE030A30EE420A41F628319B
:1044B000C2F2004101F5AF6181ED000A90EDA50A5D
:1044C000B4EE410AF1EE10FA0DDDFFE742F20820EA
:1044D000C2F2004090EDA50A9FEDAE1A30EE010A3F
:1044E00080EDA50A1BE042F20820C2F2004090EDE8
:1044F000A50A9FEDAF1AB4EE410AF1EE10FA0DDAFB
:10450000FFE742F20820C2F2004090EDA50A9FEDBD
:10451000A91A30EE010A80EDA50AFFE7FFE742F293
:104520000820C2F2004090EDA50A9FEDE81AB4EE13
:10453000410AF1EE10FA1DDBFFE742F20820C2F259
:10454000004090EDA50A9FEDE81AB4EE410AF1EEA5
:1045500010FA0FDCFFE742F20821C2F2004100200E
:10456000C4F27020C1F800020020CCF25010C1F853
:10457000040271E042F20820C2F2004090EDA50A68
:10458000B2EE041AB4EE410AF1EE10FA28DBFFE7AE
:1045900042F20820C2F2004090EDA50A9FEDD11A28
:1045A000B4EE410AF1EE10FA1ADAFFE742F20820FF
:1045B000C2F200400021C4F2BA21C0F8001290ED0E
:1045C000A50ABBEE021A20EE010AB2EE041A80EE32
:1045D000010A9FEDC61A30EE010A80ED810A3AE029
:1045E00042F20820C2F2004090EDA50AB2EE0E1A87
:1045F000B4EE410AF1EE10FA1DDAFFE742F20820AC
:10460000C2F2004090EDA50AB9EE041AB4EE410AD8
:10461000F1EE10FA0FDBFFE742F20821C2F200418F
:104620000020C4F2BA20C1F800020020C4F2B42075
:10463000C1F804020EE042F20821C2F2004100205B
:10464000C4F2BA20C1F800020020CCF22010C1F858
:104650000402FFE7FFE7FFE742F20820C2F2004052
:10466000019041F62831C2F2004101F5AF6191EDB0
:10467000002A90ED800A90EDA51A30EE020A9FED17
:10468000962A31EE421A30EE010A80ED7E0A91ED53
:10469000003A90ED810A90EDA51A30EE030A31EE52
:1046A000421A30EE010A80ED7F0A0021039190ED5D
:1046B0002B0A90ED2C1A30EE410A9FED8D1AB4EEC4
:1046C000410AF1EE10FA11DAFFE742F20820C2F2D5
:1046D000004090ED2B0A90ED2C2A9FED811A31EECF
:1046E000421A30EE010A8DED030A30E042F2082052
:1046F000C2F2004090ED2B0A90ED2C1A30EE410AE8
:104700009FED7C1AB4EE410AF1EE10FA11DDFFE7DD
:1047100042F20820C2F2004090ED2B0A90ED2C1AD4
:104720009FED6C2A30EE020A30EE410A8DED030A4D
:104730000CE042F20820C2F2004090ED2B0A90ED0E
:104740002C1A30EE410A8DED030AFFE7FFE79DEDDD
:10475000031A42F20820C2F2004090ED2D0A30EE1A
:10476000010A80ED2D0AFFE742F20820C2F2004064
:1047700090ED2D1A90ED300A30EE410A01209FEDA8
:10478000571AB4EE410AF1EE10FA009029DA13E05C
:10479000000000460000B4C32656544250761BBEAB
:1047A000E12E65420000B4424D2D0BC100003443A0
:1047B000000034C30000B44342F20820C2F20040BB
:1047C00090ED2D0A90ED301A30EE410A9FED431A1C
:1047D0000020B4EE410AF1EE10FAA8BF01200090CB
:1047E000FFE70098C00700283FD0FFE742F208200B
:1047F000C2F2004090ED2D1A90ED300A30EE410AE1
:104800009FED361AB4EE410AF1EE10FA0DDBFFE728
:1048100042F20820C2F2004090ED300A9FED2D1ABE
:1048200030EE010A80ED300AFFE742F20820C2F2C2
:10483000004090ED2D0A90ED301A30EE410A9FEDC8
:10484000271AB4EE410AF1EE10FA0DDBFFE742F24F
:104850000820C2F2004090ED300A9FED211A30EEA0
:10486000010A80ED300AFFE77EE742F20820C2F23B
:104870000040D0F8AC10C0F8B01090ED2D0AB0F99F
:104880005014A1F6481101EE101AB8EEC11A9FEDAE
:10489000102A81EE021A9FED0F2AA1EE020A80ED86
:1048A000040A4EF6B421C2F20141097800EE101A52
:1048B000B8EE400A00F55A60FFF746F84EF6E820D9
:1048C000C2F2014080ED000A04B080BD00007042D9
:1048D000000000460000B4C30000B44200003443AE
:1048E0000000B443000070420000DC420000BA4205
:1048F000000087C30000874345F24870C2F20040C1
:10490000007841F62831C2F2004191F870158842D2
:1049100001D1FFE72AE041F62830C2F2004090F8CA
:10492000701545F24872C2F20042117090F870059D
:1049300001280DD1FFE742F20821C2F2004148F2FE
:104940000000C4F23B6048664FF07C5008650DE003
:1049500042F20821C2F200410020C4F27A404866C7
:104960004CF6CD40C3F6CC500865FFE77047000019
:1049700084B042F20820C2F2004090ED300A9FED70
:10498000B91A80EE010AB5EE400AF1EE10FA13DD15
:10499000FFE742F20820C2F2004090ED300A9FED9E
:1049A000B11A80EE010AB6EE001A30EE010ABDEE31
:1049B000C00A8DED030A12E042F20820C2F2004064
:1049C00090ED300A9FEDA71A80EE010ABEEE001AA4
:1049D00030EE010ABDEEC00A8DED030AFFE79DED42
:1049E000030AB8EEC01A4EF6B420C2F2014090EDB0
:1049F000050A9FED9C2AA1EE020A42F20820C2F2AB
:104A0000004090ED301A30EE410A9FED971AB4EE57
:104A1000410AF1EE10FA13DDFFE79DED030AB8EE4F
:104A2000C02A4EF6B420C2F2014090ED050A9FED77
:104A30008D1AA2EE010A30EE410A8DED020A42E023
:104A40009DED030AB8EEC01A4EF6B420C2F2014042
:104A500090ED050A9FED832AA1EE020A42F208209A
:104A6000C2F2004090ED301A30EE410A9FED7F1AFD
:104A7000B4EE410AF1EE10FA13DAFFE79DED030AF6
:104A8000B8EEC02A4EF6B420C2F2014090ED050AFD
:104A90009FED741AA2EE010A30EE010A8DED020AB2
:104AA00010E09DED030AB8EEC01A4EF6B420C2F233
:104AB000014090ED050A9FED6B2AA1EE020A8DEDF3
:104AC000020AFFE7FFE7029942F20820C2F2004023
:104AD000C0F8C01090ED021A90ED2B0A30EE410A9A
:104AE0004EF63860C2F2014080ED000AFFE74EF654
:104AF0003860C2F2014090ED000A9FED5B1AB4EEFF
:104B0000410AF1EE10FA0DDDFFE74EF63860C2F211
:104B1000014090ED000A9FED561A30EE010A80ED3B
:104B2000000AE4E7FFE74EF63860C2F2014090ED7C
:104B3000000A9FED4E1AB4EE410AF1EE10FA0DDABA
:104B4000FFE74EF63860C2F2014090ED000A9FED9B
:104B5000451A30EE010A80ED000AE4E74EF63860AF
:104B6000C2F2014090ED000AB5EE400AF1EE10FAF3
:104B70000BDAFFE74EF63860C2F2014090ED000A12
:104B8000B1EE400A80ED000AFFE74EF63860C2F24F
:104B9000014090ED000AB3EE021AB4EE410AF1EEC4
:104BA00010FA09DCFFE742F20820C2F2004090F858
:104BB000360FC00740B1FFE742F20821C2F20041C0
:104BC000D1F8C000C861FFE74EF6B420C2F2014040
:104BD000016A42F20820C2F20040C0F8F01190EDE4
:104BE0007C0A90ED7F1AB4EE410AF1EE10FA09DC6E
:104BF000FFE742F20820C2F2004090ED7F0A8DEDFF
:104C0000010A24E042F20820C2F2004090ED7C0A42
:104C100090ED7E1AB4EE410AF1EE10FA09DBFFE7DF
:104C200042F20820C2F2004090ED7E0A8DED000AAB
:104C300008E042F20820C2F2004090ED7C0A8DEDBF
:104C4000000AFFE79DED000A8DED010AFFE79DEDEB
:104C5000010A42F20820C2F2004080ED7C0A04B052
:104C6000704700BF0000B44300003443000034C369
:104C70000000B4C30000000080B58AB0089004F0C2
:104C80006BFE0490089828B9FFE701208DF82700F3
:104C900000F0AABC089890F8350002280ED0FFE773
:104CA000089980204865FFE70899002081F83400C2
:104CB000FFE701208DF8270000F096BC08980168F6
:104CC00001201022C4F202029142039000F0A3805E
:104CD000FFE70898016801202822C4F202029142ED
:104CE000039000F09880FFE70898016801204022B7
:104CF000C4F202029142039000F08D80FFE7089811
:104D0000016801205822C4F202029142039000F08F
:104D10008280FFE70898016801207022C4F2020235
:104D20009142039077D0FFE708980168012088221C
:104D3000C4F20202914203906DD0FFE70898016827
:104D40000120A022C4F202029142039063D0FFE747
:104D5000089801680120B822C4F20202914203902F
:104D600059D0FFE708980168012040F21042C4F2D0
:104D70000202914203904ED0FFE70898016801209B
:104D800040F22842C4F202029142039043D0FFE76E
:104D900008980168012040F24042C4F202029142A8
:104DA000039038D0FFE708980168012040F258428C
:104DB000C4F20202914203902DD0FFE708980168E7
:104DC000012040F27042C4F202029142039022D0CC
:104DD000FFE708980168012040F28842C4F202020D
:104DE0009142039017D0FFE708980168012040F234
:104DF000A042C4F20202914203900CD0FFE708984F
:104E000000684FF64831CBF6FD710844B0FA80F0E7
:104E100040090390FFE70398C00780B1FFE70898B7
:104E20000168086820F01E00086008980168486959
:104E300020F08000486108980068059009E0089813
:104E40000168086820F00E00086008980068059066
:104E5000FFE70898016801201022C4F20202914283
:104E6000029000F00381FFE70898016801202822E2
:104E7000C4F202029142029000F0F880FFE7089825
:104E8000016801204022C4F202029142029000F027
:104E9000ED80FFE70898016801205822C4F2020261
:104EA0009142029000F0E280FFE70898016801203B
:104EB0007022C4F202029142029000F0D780FFE714
:104EC0000898016801208822C4F2020291420290EF
:104ED00000F0CC80FFE7089801680120A022C4F20E
:104EE00002029142029000F0C180FFE70898016839
:104EF0000120B822C4F202029142029000F0B68072
:104F0000FFE708980168012040F21042C4F2020253
:104F10009142029000F0AA80FFE708980168012002
:104F200040F22842C4F202029142029000F09E80B8
:104F3000FFE708980168012040F24042C4F20202F3
:104F40009142029000F09280FFE7089801680120EA
:104F500040F25842C4F202029142029000F0868070
:104F6000FFE708980168012040F27042C4F2020293
:104F7000914202907AD0FFE708980168012040F240
:104F80008842C4F20202914202906FD0FFE7089873
:104F90000168012040F2A042C4F202029142029054
:104FA00064D0FFE708980168012040F2B842C4F2DB
:104FB00002029142029059D0FFE70898016801204F
:104FC00045F20842C5F60202914202904ED0FFE738
:104FD00008980168012045F21C42C5F60202914280
:104FE000029043D0FFE708980168012045F2304263
:104FF000C5F602029142029038D0FFE70898016896
:10500000012045F24442C5F60202914202902DD0A1
:10501000FFE708980168012045F25842C5F60202F0
:105020009142029022D0FFE708980168012045F2E2
:105030006C42C5F602029142029017D0FFE7089831
:105040000168012045F28042C5F6020291420290B9
:105050000CD0FFE7089800684AF66C31CAF2FD717F
:105060000844B0FA80F040090290FFE70298C007B8
:1050700038B1FFE70898016E086820F48070086076
:10508000FFE7089800681021C4F20201884200F08E
:105090008180FFE7089800682821C4F20201884255
:1050A00078D0FFE7089800684021C4F202018842E6
:1050B00070D0FFE7089800685821C4F202018842C6
:1050C00068D0FFE7089800687021C4F202018842A6
:1050D00060D0FFE7089800688821C4F20201884286
:1050E00058D0FFE708980068A021C4F20201884266
:1050F00050D0FFE708980068B821C4F20201884246
:1051000048D0FFE70898006840F21041C4F202015D
:1051100088423FD0FFE70898006840F22841C4F277
:105120000201884236D0FFE70898006840F240410B
:10513000C4F2020188422DD0FFE70898006840F2CF
:105140005841C4F20201884224D0FFE70898006861
:1051500040F27041C4F2020188421BD0FFE7089878
:10516000006840F28841C4F20201884212D0FFE791
:105170000898006840F2A041C4F20201884209D0B8
:10518000FFE70898006840F2B841C4F20201884283
:1051900007D1FFE708980168086820F0010008605F
:1051A00006E008980168086820F001000860FFE741
:1051B000FFE705980068C007C8B1FFE704F0CCFB23
:1051C0000499401A062811D3FFE708992020486562
:1051D0000899032081F83500FFE70899002081F83D
:1051E0003400FFE701208DF82700FDE1E1E7089892
:1051F000016801201022C4F202029142019000F0E5
:10520000A380FFE70898016801202822C4F2020267
:105210009142019000F09880FFE708980168012012
:105220004022C4F202029142019000F08D80FFE71B
:105230000898016801205822C4F2020291420190AC
:1052400000F08280FFE70898016801207022C4F214
:1052500002029142019077D0FFE70898016801208F
:105260008822C4F20202914201906DD0FFE70898B3
:1052700001680120A022C4F202029142019063D091
:10528000FFE7089801680120B822C4F202029142A7
:10529000019059D0FFE708980168012040F21042C0
:1052A000C4F20202914201904ED0FFE708980168D3
:1052B000012040F22842C4F202029142019043D000
:1052C000FFE708980168012040F24042C4F2020260
:1052D0009142019038D0FFE708980168012040F220
:1052E0005842C4F20202914201902DD0FFE7089883
:1052F0000168012040F27042C4F202029142019022
:1053000022D0FFE708980168012040F28842C4F2E9
:1053100002029142019017D0FFE70898016801202E
:1053200040F2A042C4F20202914201900CD0FFE789
:10533000089800684FF64831CBF6FD710844B0FA82
:1053400080F040090190FFE70198C00760B1FFE7D6
:105350000898806D07900898C06D00F01F013F20ED
:105360008840079988600BE00898806D069008983F
:10537000C06D00F01F010120884006994860FFE7DA
:105380000898016801201022C4F2020291420090A4
:1053900000F00381FFE70898016801202822C4F289
:1053A00002029142009000F0F880FFE7089801683F
:1053B00001204022C4F202029142009000F0ED80F0
:1053C000FFE70898016801205822C4F202029142C6
:1053D000009000F0E280FFE7089801680120702249
:1053E000C4F202029142009000F0D780FFE70898D3
:1053F000016801208822C4F202029142009000F06C
:10540000CC80FFE7089801680120A022C4F20202C4
:105410009142009000F0C180FFE7089801680120E8
:10542000B822C4F202029142009000F0B680FFE779
:1054300008980168012040F21042C4F20202914231
:10544000009000F0AA80FFE708980168012040F270
:105450002842C4F202029142009000F09E80FFE7D1
:1054600008980168012040F24042C4F202029142D1
:10547000009000F09280FFE708980168012040F258
:105480005842C4F202029142009000F08680FFE789
:1054900008980168012040F27042C4F20202914271
:1054A00000907AD0FFE708980168012040F2884216
:1054B000C4F20202914200906FD0FFE708980168A1
:1054C000012040F2A042C4F202029142009064D056
:1054D000FFE708980168012040F2B842C4F20202D6
:1054E0009142009059D0FFE708980168012045F2E9
:1054F0000842C5F60202914200904ED0FFE708989C
:105500000168012045F21C42C5F60202914200905A
:1055100043D0FFE708980168012045F23042C5F604
:1055200002029142009038D0FFE7089801680120FC
:1055300045F24442C5F60202914200902DD0FFE7A9
:1055400008980168012045F25842C5F602029142CE
:10555000009022D0FFE708980168012045F26C42D4
:10556000C5F602029142009017D0FFE70898016843
:10557000012045F28042C5F60202914200900CD013
:10558000FFE7089800684AF66C31CAF2FD710844DA
:10559000B0FA80F040090090FFE70098C007A0B182
:1055A000FFE70898416E806E48600898C06E58B159
:1055B000FFE70898C16E086820F4807008600898BA
:1055C000016F406F4860FFE7FFE70899012081F80D
:1055D0003500FFE70899002081F83400FFE7FFE776
:1055E00000208DF82700FFE79DF827000AB080BD56
:1055F00080B586B00490049820B9FFE701208DF8AB
:10560000170046E3049890F83500022807D0FFE71A
:1056100004998020486501208DF8170039E304982B
:10562000016801201022C4F202029142029000F0AF
:10563000A380FFE70498016801202822C4F2020237
:105640009142029000F09880FFE7049801680120E1
:105650004022C4F202029142029000F08D80FFE7E6
:105660000498016801205822C4F20202914202907B
:1056700000F08280FFE70498016801207022C4F2E4
:1056800002029142029077D0FFE70498016801205E
:105690008822C4F20202914202906DD0FFE7049882
:1056A00001680120A022C4F202029142029063D05C
:1056B000FFE7049801680120B822C4F20202914277
:1056C000029059D0FFE704980168012040F210428F
:1056D000C4F20202914202904ED0FFE704980168A2
:1056E000012040F22842C4F202029142029043D0CB
:1056F000FFE704980168012040F24042C4F2020230
:105700009142029038D0FFE704980168012040F2EE
:105710005842C4F20202914202902DD0FFE7049851
:105720000168012040F27042C4F2020291420290EC
:1057300022D0FFE704980168012040F28842C4F2B9
:1057400002029142029017D0FFE7049801680120FD
:1057500040F2A042C4F20202914202900CD0FFE754
:10576000049800684FF64831CBF6FD710844B0FA52
:1057700080F040090290FFE70298C007002800F07F
:105780009D80FFE70499042081F8350004980068A3
:105790001021C4F20201884200F08180FFE70498E2
:1057A00000682821C4F20201884278D0FFE70498FB
:1057B00000684021C4F20201884270D0FFE70498DB
:1057C00000685821C4F20201884268D0FFE70498BB
:1057D00000687021C4F20201884260D0FFE704989B
:1057E00000688821C4F20201884258D0FFE704987B
:1057F0000068A021C4F20201884250D0FFE704985B
:105800000068B821C4F20201884248D0FFE704983A
:10581000006840F21041C4F2020188423FD0FFE725
:105820000498006840F22841C4F20201884236D050
:10583000FFE70498006840F24041C4F20201884248
:105840002DD0FFE70498006840F25841C4F20201ED
:10585000884224D0FFE70498006840F27041C4F207
:10586000020188421BD0FFE70498006840F288419B
:10587000C4F20201884212D0FFE70498006840F2A7
:10588000A041C4F20201884209D0FFE704980068F1
:1058900040F2B841C4F20201884207D1FFE7049800
:1058A0000168086820F00100086006E004980168BB
:1058B000086820F001000860FFE7E5E1049801684E
:1058C000086820F00E000860049800681021C4F2F7
:1058D0000201884200F08180FFE7049800682821D7
:1058E000C4F20201884278D0FFE7049800684021A2
:1058F000C4F20201884270D0FFE704980068582182
:10590000C4F20201884268D0FFE704980068702161
:10591000C4F20201884260D0FFE704980068882141
:10592000C4F20201884258D0FFE704980068A02121
:10593000C4F20201884250D0FFE704980068B82101
:10594000C4F20201884248D0FFE70498006840F2A0
:105950001041C4F2020188423FD0FFE7049800687A
:1059600040F22841C4F20201884236D0FFE7049891
:10597000006840F24041C4F2020188422DD0FFE7A6
:105980000498006840F25841C4F20201884224D0D1
:10599000FFE70498006840F27041C4F202018842B7
:1059A0001BD0FFE70498006840F28841C4F202016E
:1059B000884212D0FFE70498006840F2A041C4F288
:1059C0000201884209D0FFE70498006840F2B8411C
:1059D000C4F20201884207D1FFE704980168086811
:1059E00020F00100086006E004980168086820F0D3
:1059F00001000860FFE70498016801201022C4F24A
:105A000002029142019000F00381FFE704980168CF
:105A100001202822C4F202029142019000F0F88095
:105A2000FFE70498016801204022C4F2020291427B
:105A3000019000F0ED80FFE70498016801205822F2
:105A4000C4F202029142019000F0E280FFE7049864
:105A5000016801207022C4F202029142019000F01C
:105A6000D780FFE70498016801208822C4F202026F
:105A70009142019000F0CC80FFE70498016801207A
:105A8000A022C4F202029142019000F0C180FFE71F
:105A9000049801680120B822C4F2020291420190E8
:105AA00000F0B680FFE704980168012040F2104240
:105AB000C4F202029142019000F0AA80FFE704982C
:105AC0000168012040F22842C4F202029142019092
:105AD00000F09E80FFE704980168012040F24042F8
