:020000040800F2
:1000000040060224B503000809D3000839AB0008F4
:10001000B9D20008A90F0008314B01080000000008
:10002000000000000000000000000000F1F70008E0
:10003000991E00080000000061DE000841FC000875
:10004000D3030008D3030008D3030008D303000838
:10005000D3030008D3030008D3030008D303000828
:10006000D3030008D3030008D30300089118000845
:10007000A1180008B1180008C1180008D11800081C
:10008000D3030008D3030008D3030008D11F0008DE
:10009000F11F0008E11F000801200008D303000839
:1000A000D3030008D3030008D3030008D3030008D8
:1000B00021FE0008D3030008D3030008D30300087F
:1000C000D3030008D3030008D3030008D3030008B8
:1000D000F9F60008A1200108B1200108D3030008A7
:1000E000D3030008D30300080000000031FE00081D
:1000F000D3030008D3030008D3030008E118000865
:10010000D3030008D3030008D3030008D303000877
:10011000D303000841100108D3030008D3030008EB
:10012000F1180008D3030008D303000801190008E0
:1001300011190008D3030008D3030008D3030008F3
:1001400000000000000000000000000000000000AF
:10015000D3030008D3030008D3030008D303000827
:10016000D3030008D3030008D3030008D303000817
:10017000D303000879DC0008D30300080000000066
:10018000D3030008D3030008D3030008D3030008F7
:10019000D3030008D3030008D3030008D3030008E7
:1001A000D3030008D3030008D303000800000000B5
:1001B000D3030008D3030008D3030008D3030008C7
:1001C000D3030008D3030008000000000000000073
:1001D0000000000000000000D30300080000000041
:1001E000000000000000000000000000000000000F
:1001F0000000000000000000D3030008D303000843
:10020000D3030008D303000800000000D303000854
:10021000D3030008D3030008D3030008D303000866
:10022000D303000800000000D30300080000000012
:10023000D3030008D303000800000000D303000824
:10024000D3030008D3030008D3030008D303000836
:10025000D3030008D3030008D3030008D303000826
:10026000D3030008D3030008D3030008D303000816
:10027000D3030008D3030008D303000800000000E4
:10028000D3030008D3030008D3030008D3030008F6
:1002900000000000D3030008D303000800000000A2
:1002A00000000000D3030008D3030008D3030008B4
:1002B000D3030008D3030008D3030008112000086B
:1002C00021200008D3030008D303000800F002F83F
:1002D00000F060F80AA090E8000C82448344AAF180
:1002E0000107DA4501D100F055F8AFF2090EBAE87E
:1002F0000F0013F0010F18BFFB1A43F0010318475A
:100300000C9301002C9301000A444FF0000C10F8EC
:10031000013B13F0070408BF10F8014B1D1108BF83
:1003200010F8015B641E05D010F8016B641E01F823
:10033000016BF9D113F0080F1EBF10F8014BAD1C73
:100340000C1B09D16D1E58BF01F801CBFAD505E091
:1003500014F8016B01F8016B6D1EF9D59142D6D3EB
:10036000704700000023002400250026103A28BF13
:1003700078C1FBD8520728BF30C148BF0B60704717
:100380001FB518F07CF99DE8030000F0E5F91FBDEA
:1003900010B510BD00F04CFA1146FFF7F1FF15F053
:1003A000FFFE00F06AFA03B4FFF7F2FF03BC00F0AF
:1003B0009BFA00000A4880470A4880470A480047DD
:1003C000FEE7FEE7FEE7FEE7FEE7FEE7FEE7FEE705
:1003D000FEE7FEE705480649064A074B704700005E
:1003E000A11F000849FD0008CD02000840EE0124CD
:1003F0004006022440F6012440F6012470B506466A
:1004000000F08EF9056806F10B0020F00704B442F5
:100410009CBF002070BD2B466A68BAB11068A0422C
:1004200010D304F1080188423CBF5068586007D3DC
:100430005168101941601168091B0160586014600F
:10044000101D70BD13465268002AE7D12146284688
:1004500000F06EF90028DED170BD70B50446051FAE
:1004600000F05EF90068002C14BF446870BD002CD9
:1004700018BFAC423CBF20466468F8D301680A1834
:10048000AA4218BF456003D12A680546114401609D
:1004900028684119A1421CBF6C6070BD6168696029
:1004A00021680844286070BD53EA020C00F069809E
:1004B0002DE9F04B4FF00006002B1FBFB3FA83F578
:1004C00003FA05F424FA05F65E4012BF1643B2FAA9
:1004D00082F502FA05F4C5F120051EBF22FA05FCDB
:1004E00044EA0C04203556EA044C4FEA144418BF81
:1004F000641C4FF000084FF00009904271EB030CB0
:1005000039D3002919BFB1FA81F701FA07F6B0FA19
:1005100080F700FA07F6C7F120071EBF20FA07FC94
:1005200046EA0C062037B6FBF4FCA7EB0507103FA4
:1005300007F01F0BCBF120062CFA06F60CFA0BFB8A
:1005400044BFB3460026202FA4BF5E464FF0000BE9
:100550005BEA060C08BF4FF0010B19EB0B0948EBE7
:100560000608ABFB027C06FB02CC0BFB03CCC01BDA
:1005700071EB0C01C1E70B46024641464846BDE817
:10058000F08B13B5084318BF4FF0FF300146AFF3AF
:100590000080BDE81C407047032A40F2308010F014
:1005A000030C00F0158011F8013BBCF1020F62440E
:1005B00098BF11F801CB00F8013B38BF11F8013B9F
:1005C000A2F1040298BF00F801CB38BF00F8013B4C
:1005D00011F0030300F02580083AC0F0088051F8BC
:1005E000043B083A51F804CBA0E80810F5E7121DC7
:1005F0005CBF51F8043B40F8043BAFF30080D207E6
:1006000024BF11F8013B11F801CB48BF11F8012BB1
:1006100024BF00F8013B00F801CB48BF00F8012BD4
:10062000704710B5203AC0F00B80B1E81850A0E830
:100630001850B1E81850A0E81850203ABFF4F5AFB0
:100640005FEA027C24BFB1E81850A0E8185044BF0C
:1006500018C918C0BDE810405FEA827C24BF51F879
:10066000043B40F8043B08BF7047D20728BF31F86D
:10067000023B48BF11F8012B28BF20F8023B48BFBE
:1006800000F8012B70474FF000020429C0F01280DF
:1006900010F0030C00F01B80CCF1040CBCF1020F35
:1006A00018BF00F8012BA8BF20F8022BA1EB0C010A
:1006B00000F00DB85FEAC17C24BF00F8012B00F800
:1006C000012B48BF00F8012B70474FF0000200B526
:1006D000134694469646203922BFA0E80C50A0E865
:1006E0000C50B1F12001BFF4F7AF090728BFA0E813
:1006F0000C5048BF0CC05DF804EB890028BF40F8DF
:10070000042B08BF704748BF20F8022B11F0804F20
:1007100018BF00F8012B7047704770477047000002
:100720000048704770020024704770477047704758
:1007300038B504460A4600206946AFF30080002819
:1007400008BF38BD02460099204600F04FF801204E
:1007500038BD012000F064B8F8B5AFF3008005465D
:1007600000200C46102000BF0646A819A0420DD953
:10077000324669460020AFF30080070008BF00F052
:100780004FF80098A04218BF0546C419FFF7C8FFEC
:1007900005600746F01D20F007004619284600F0C6
:1007A0000AF8B44208BFF8BDA21B31463868BDE85C
:1007B000F84000F01BB800210160C0E9011070474B
:1007C0001020704710B500F00DF8006810BD10B58E
:1007D000044600F007F8046010BD000000487047B0
:1007E00068020024004870476802002403464068FD
:1007F0008C46002818BF88423CBF03464068F8D3A7
:1008000018681844884207D00CF1030020F0070054
:10081000001D411A521A0146081D0A60FFF71DBE4D
:1008200010B500F039F8BDE8104000F02FB870475F
:100830007546FFF7D3FFAE4605006946534620F0E4
:100840000700854618B020B5FFF7C4FDBDE820407D
:100850004FF000064FF000074FF000084FF0000B7C
:10086000AC46ACE8C009ACE8C009ACE8C009ACE8EB
:10087000C00921F007018D46704710B50446AFF35B
:1008800000802046BDE81040FFF78DBD002801D054
:1008900000F02AB87047000010B5012805D00021EB
:1008A00003A000F027F8012010BD09A1F8E700001F
:1008B00053494752544D454D3A204F7574206F6649
:1008C0002068656170206D656D6F727900000000B1
:1008D0003A2048656170206D656D6F727920636F95
:1008E000727275707465640001491820ABBEFEE732
:1008F0002600020070B505460C460A2000E06D1C7B
:1009000000F011F835B128780028F8D102E0641C15
:1009100000F009F814B120780028F8D1BDE8704043
:100920000A20AFF3008008B569468DF80000032067
:10093000ABBE08BD00000000002800F09C80032929
:1009400038BF70472DE9F04140F2B802A1F1020C26
:10095000C2F2004249F2E6331CF00306A1F1030E95
:100960001288C0F6010311D00446012E14F8015B71
:1009700085EA0205EDB233F8157087EA12220DD12F
:100980003E0AF046BEF1030F28D26DE00026E04695
:100990000446BEF1030F21D266E000BFD2B2447814
:1009A000022E82EA040233F8125085EA172207D198
:1009B000A1F10408841C2E0ABEF1030F0ED253E0ED
:1009C000D2B28478A1F105086240C41C33F81260E9
:1009D00086EA1522360ABEF1030F45D3043C14F80B
:1009E000046F65785640F6B233F8166086EA122234
:1009F0006A40A578D2B233F8122082EA16266E40F9
:100A0000F6B233F81670E67887EA12227240B8F12F
:100A10000406D2B233F8125085EA172223D000BF61
:100A200014F8047F043E657887EA0207FFB233F8C2
:100A3000177087EA122282EA0502A578D2B233F84B
:100A4000122082EA172787EA0507E578FFB233F814
:100A5000177087EA122282EA0502D2B233F81250E6
:100A600085EA1722DCD12E0A014400F80C2001F897
:100A7000016CBDE8F041704780B544F208304EF695
:100A8000A021C2F20040C2F201414FF4807209F08D
:100A900097F843F6541040F20F41C2F20040C4F2FE
:100AA0000201006888426FF0080111DC6F22C4F275
:100AB0000202904222DC3F22C4F20202904239DC60
:100AC0001022C4F2020290425CD0282254E000BFFF
:100AD00040F26F42C4F2020290421BDC40F23F42FD
:100AE000C4F2020290422DDC40F21042C4F2020233
:100AF000904247D040F228423EE000BF9F22C4F21D
:100B00000202904228DC7022C4F20202904239D0E4
:100B1000882231E040F29F42C4F20202904223DC7C
:100B200040F27042C4F2020290422BD040F288425E
:100B300022E000BF4022C4F20202904222D058229A
:100B40001AE000BF40F24042C4F20202904219D0C3
:100B500040F2584210E000BFA022C4F202029042CC
:100B600010D0B82208E000BF40F2A042C4F2020256
:100B7000904207D040F2B842C4F20202904218BF3D
:100B80006FF0040102681140016080BD00000000A8
:100B900010B54EF6A024C2F201442078AB2832D121
:100BA00094F83F00FD2818BF10BD41F6D851B4F8A5
:100BB0000100C2F2004140F27212C2F200424884C7
:100BC000B4F80300A1F82A01B4F80500A1F8320234
:100BD000B4F80700A1F83A03B4F809001080D4F87B
:100BE0000B00C1F8DC0440F2416004F10F01C2F2D5
:100BF00000401E22FFF7D0FC40F25F6194F83E00F7
:100C0000C2F20041087010BD41F6D85040F2A65122
:100C1000C2F20040C2F20041AA23428D4A80B0F8DD
:100C200032218A80B0F83A22B0F84203CA800881A3
:100C3000087881F83F00FE2081F8400044F2083037
:100C4000C2F20040402201F8013F09F001BF00005C
:100C500040F600000121C5F60200012204F0D4BADA
:100C600040F600000121C5F60200002204F0CCBAD3
:100C7000704700000000000040F600000821C5F6A3
:100C80000200012204F0C0BA40F600000821C5F6B7
:100C90000200002204F0B8BA704700000000000013
:100CA00010B5002808BF10BD4EF2180145F2003CF7
:100CB000CEF20001C0F2070C03E000BF01380204CD
:100CC0001AD051F804EC0B68002208E01A44A34241
:100CD000A2EB0402234698BF72446245EED20C6830
:100CE000A342F3D10C68A34204BF0C68A342EDD128
:100CF0000C68A342F3D0E9E710BD0000000000003B
:100D000080B54EF21801C0EB0010CEF200014FEAA0
:100D1000401E002351F804CC0A6808E013448242C4
:100D2000A3EB0003024698BF634473450CD20868E6
:100D30008242F3D10868824204BF08688242EDD142
:100D400008688242F3D0E9E780BD0000000000009F
:100D500010B5FFF78DFFFFF79FFF14F0C1FE0446AB
:100D600014F0E6FF204310BD2DE9F04F83B002924E
:100D70000E460190FFF774FF922000F0C5F8922014
:100D800000F0C2F8552000F0BFF88046552000F072
:100D9000BBF88346552000F0B7F88246552000F096
:100DA000B3F80446552000F0AFF80746552000F090
:100DB000ABF80546FFF74CFF48EA0B2040F2B009BC
:100DC00000B2C2F2004900EE100A4AEA042000B262
:100DD00099ED001AB8EEC00A21EE000A01EE100AE1
:100DE00047EA052086ED000A00B299ED002A00EEE0
:100DF000100AB8EEC11AB8EEC00A22EE011A86ED4A
:100E0000011A22EE000A86ED020AFFF73DFF80205C
:100E100000F07AF8552000F077F80646552000F0EB
:100E200073F8552000F070F88246552000F06CF8F9
:100E30000546552000F068F88346552000F064F818
:100E40000446552000F060F80746552000F05CF895
:100E50008046FFF711FF0F2E25D14AEA052099EDB4
:100E6000011A00B2019900EE100A4BEA042000B208
:100E7000B8EEC00A21EE000A01EE100A47EA082087
:100E800081ED000A00B299ED012A00EE100AB8EED9
:100E9000C11AB8EEC00A22EE011A81ED011A22EE43
:100EA000000A81ED020AFFF7DBFEA22000F02CF819
:100EB000A22000F029F8552000F026F8044655201D
:100EC00000F022F80546FFF7C3FEE0004FF60003EE
:100ED00040EA55110022CFF6FF73B2EB902F18BFF6
:100EE0001943B4EE001AB3EE072A00EE101A029866
:100EF000B8EEC00AA0EE012A80ED002A03B0BDE8DA
:100F0000F08F00000000000080B582B08DF807006F
:100F100044F20810C2F200400DF107010DF1060283
:100F200001234FF47A7CCDF800C007F07DFA9DF8DC
:100F3000060002B080BD000010B544F290100421FC
:100F4000C2F2004008F074FA45F604143221C2F2ED
:100F5000004420460DF004F845F618110422C2F2B0
:100F600000412046BDE810400CF0AEBF000000007C
:100F700070B569B145F604160C460546C2F2004646
:100F8000304629460CF0BCFF013C05F10405F7D1C1
:100F900040F2D4200021C2F2004002220023006867
:100FA000BDE8704016F0CCB9FEE70000000000007C
:100FB00010B582B00468A4F20220022824D204F101
:100FC000FE004B88C2B2B1F804C0520152FA80F060
:100FD00045F6B022C2F2004202EBC0000A8891F945
:100FE000061000F588700091D1BADABA9CFABCF309
:100FF00000F046FC0734E0B200F0BAFFE0B202B005
:10100000BDE8104000F0B4BF40F20120844217D187
:101010000A888C884B8891F9060045F6B02100902B
:10102000C2F2004101F10800D1BADABAE3BA00F025
:1010300027FC0824E0B202B0BDE8104000F098BFE1
:1010400002B010BD0000000080B582B00068122818
:1010500012DC112832D012282ED142F29040C2F276
:10106000004000F5986014F097FF062002B0BDE83C
:10107000804000F07DBF00BF13282DD040F2052234
:10108000904219D10A88B1F804C04B8891F9060042
:1010900042F290410090C2F2004101F56E70D1BA67
:1010A000DABA9CFABCF300F0EBFB042002B0BDE816
:1010B000804000F05DBF00BF02B080BD42F29040B2
:1010C000C2F2004000F5307014F066FF052002B057
:1010D000BDE8804000F04CBF42F29040C2F20040B8
:1010E00000F5B76014F0D0FF072002B0BDE88040E3
:1010F00000F03EBF0000000070B58AB043F6442502
:1011000002ACC2F2004500260220049001202146D4
:10111000CDE9050628460796CDE9026603F0A8F852
:101120000221022200232846009603F0E9F801215B
:101130000022284602F0A4FF4FF00071002228464A
:1011400002F09EFF01210122284603F05DF82846A7
:1011500003F03EFF43F6E4252146C2F2004528464F
:1011600003F086F80221022200232846009603F0AD
:10117000C7F801210122284603F046F80121002288
:10118000284602F07DFF4FF000710022284602F051
:1011900077FF284603F01CFF43F684352146C2F250
:1011A0000045284603F064F8022102220023284665
:1011B000009603F0A5F801210122284603F024F847
:1011C00001210022284602F05BFF4FF0007100224F
:1011D000284602F055FF284603F0FAFE0AB070BD1B
:1011E0000020704700000000002070470000000051
:1011F00010B543F2303441F2C451C2F20044C2F29D
:1012000000410022204611F0BFF940F6C4512046AB
:10121000C2F2004111F0A8F9002010BD000000004A
:10122000B0B50968044613F0AFFD43F230352146EE
:10123000C2F20045284611F097F9284611F070F9DE
:101240000020B0BD0000000000207047000000003A
:1012500010B543F23032C2F20042D2F8BC22D2F8CA
:101260001422002A1CBF012010BD43F230340A466C
:10127000C2F200440146204611F086F92046BDE83E
:10128000104011F011BA000070B52DED048B41F63D
:10129000D8550020C2F2004500219FED589AC4F2B3
:1012A000D2309FED578A2860C4F29621B0EE490AE9
:1012B000C5E901010020E86047F61061286147F2A6
:1012C0005E60F0EE480AC4F29431C4F20000C5E951
:1012D0000510002005F23454CCF27D30C5F86005CD
:1012E00040F20A50A5F8640505F59C600EF068FC14
:1012F000B0EE490AF0EE480A05F59E600EF060FC7B
:101300009FED409AF0EE480AB0EE490A05F5A46058
:101310000EF056FCB0EE490AF0EE480A05F5A06062
:101320000EF04EFCF0EE480A05F5A2609FED360A7D
:101330000EF046FC42F290460A21C2F2004606F642
:10134000440000F0E5FE06F5D660022100F0E0FE64
:1013500006F60850192100F0DBFEB5EE000AB2EEE9
:10136000021AF1EE001AB2EE0E2AF0EE480A2046FA
:101370000CF01AFDB0EE490A20460CF021FDB2EE49
:10138000042AB0EE480AF0EE480AB0EE481AF0EE31
:10139000481A05F2B4400CF007FD41F211430F204A
:1013A000C0F60003002102220DF04AF841F2694321
:1013B0000F20C0F60003002103220DF041F841F296
:1013C000C1434FF49860C0F60003002102220DF0E3
:1013D00037F842F299041020C0F6010400210322DC
:1013E00023460DF02DF81020002102222346BDECEB
:1013F000048BBDE870400DF023B800BF0000204210
:1014000000000000CDCCCC3D9A99193E00000000B0
:10141000013807281DD8DFE800F0050D1C151C1C3D
:101420001C1D00BF41F6D850FF21C2F2004080F8D9
:101430003015704741F6D8500121C2F2004080F8C3
:101440003215704741F6D850FF21C2F2004080F8B3
:101450003115704741F6D8500121C2F2004080F8A2
:101460003315704700000000013807281DD8DFE859
:1014700000F0050D1C151C1C1C1D00BF41F6D850AA
:101480000021C2F2004080F83015704741F6D85074
:101490000021C2F2004080F83215704741F6D85062
:1014A0000021C2F2004080F83115704741F6D85053
:1014B0000021C2F2004080F83315704700000000A0
:1014C00010B541F6D854C2F2004494F86C1519B125
:1014D000002084F86C0510BD402818BF10BD04F230
:1014E00034500CF059FC04F25440012184F86C157E
:1014F00090ED000A04F5A460BDE810400EF094BB26
:101500002DE9F0412DED068B41F6D8579FED8E8ADF
:10151000C2F200479FED8D9A07F25C5494ED000AE9
:1015200020EE080A80EE090AB7EEC00A16F014FC95
:1015300094ED001A21EE081AB0EE408B81EE091AE4
:10154000B7EEC11AB0EE410B16F006FBB0EE409BB1
:1015500007F59C6420460EF03BFB07F59E6507F5FA
:10156000886628460EF034FB07F5A4600EF030FBC9
:1015700040F2721097ED000A97ED011AC2F2004096
:1015800030EE010AB5EE001A00889FED712A9FED3A
:101590006A3B20EE010A01EE100A97F86C05B8EEDE
:1015A000411A012881EE000A81EE021A80EE020A39
:1015B000B7EEC11A9FED5E2BB7EEC00A81EE021B9B
:1015C00080EE020B31EE011B97ED022A30EE000B8C
:1015D000B7EEC22A21EE031B20EE030B9FED583B12
:1015E00021EE021B20EE020B80EE032BB7EEC10BA7
:1015F00086ED030AB7EEC21B86ED040A86ED051AD6
:1016000018D097F87405012822D140F2A437B7EE1C
:1016100008AAC2F20047204697ED000A20EE0A0A07
:101620000EF002FB97ED010A284620EE0A0A0EF0A2
:10163000FBFA59E007F5AE6090ED001A21EE000AC2
:1016400086ED030A86ED040A97F874050128DCD0BC
:1016500040F27010C2F20040007828B345F66C28C2
:101660009FED3CAAC2F20048B8F9040001EE100A4E
:101670002046B8EEC11A20EE010A80EE0A0A0EF0EA
:10168000D3FAB8F9060000EE100A07F58A6090ED6B
:10169000001A2846B8EEC00A21EE000A80EE0A0AB7
:1016A0000EF0C2FA20E000BF97F9300597F9321525
:1016B000084401EE100A2846B8EEC11A20EE010ACD
:1016C0000EF0B2FA97F9330597F93115084407F28D
:1016D0004C4100EE100A204691ED001AB8EEC00A07
:1016E00021EE000A0EF0A0FAB7EEC99B2046B7EE35
:1016F000C8AB0EF061FA2846B0EE408A0EF05CFAF4
:1017000020EE0A0A204698EE490A86ED000A0EF0FD
:1017100053FA2846B0EE408A0EF04EFA20EE090A3F
:10172000A8EE4A0A86ED010ABDEC068BBDE8F08101
:10173000C3F5285C8FC22D4000000060FB210940EA
:1017400000000080BE9FF63FDB0F4940000034439D
:101750000000704200002544B7EE002A90ED1D3ACB
:1017600090ED1C4A30EE600A90ED165A32EE432A94
:1017700090ED146AD0ED060AD0ED021AF1EE602A5F
:1017800022EE042A90ED1A4A016E80ED180AC16516
:10179000A1EE432A90ED153AA0EE034A80ED1C2AF3
:1017A00025EE023A90ED1F5AB1EE457A84FE455A75
:1017B000A0EE063AB4EE474AF1EE10FA35FE074ABB
:1017C00090ED1E5AB1EE456A90ED037A80ED1A4A0B
:1017D00033EE043A90ED084A80ED047A83FE455AD0
:1017E000B4EE463AF1EE10FA35FE063A90ED096A8B
:1017F00080ED193A33EE411AB1EE443AB0EEC15AD7
:10180000B4EE456A9FED175AF1EE10FA90ED056AB5
:1018100035FE011A90ED015A80ED031AA1EE056A1A
:1018200031EE475A21EE855AC6FE600AB4EE626A6E
:1018300090ED006AF1EE10FAA1EE065A30FEA26AAF
:1018400080ED056A35EE060A80FE442AB4EE430AAE
:10185000F1EE10FA32FE030A80ED070A80ED200A4D
:10186000704700BF0000000080EC030AC0ED092AA9
:1018700080ED0A2AC0ED0B1A70470000000000003E
:1018800001800099428083808171704700000000D0
:1018900043F20C60C2F2004001F0C2BA0000000046
:1018A00043F28460C2F2004001F0BABA00000000C6
:1018B00043F27470C2F2004001F0B2BA00000000BE
:1018C00043F2EC70C2F2004001F0AABA000000003E
:1018D00043F2FC60C2F2004001F0A2BA0000000036
:1018E00043F6CC10C2F2004001F09ABA00000000AA
:1018F00043F65410C2F2004001F092BA000000001A
:1019000043F66400C2F2004001F08ABA0000000011
:1019100043F6DC00C2F2004001F082BA0000000091
:1019200040F20F42D0F800C0C4F20202944511DC2C
:101930006F22C4F20202944522DC3F22C4F202026A
:10194000944539DC1022C4F2020294455AD0282270
:1019500054E000BF40F26F42C4F2020294451BDC27
:1019600040F23F42C4F2020294452DDC40F21042A4
:10197000C4F20202944545D040F228423EE000BF46
:101980009F22C4F20202944528DC7022C4F20202B3
:10199000944537D0882231E040F29F42C4F20202DF
:1019A000944523DC40F27042C4F20202944529D0EF
:1019B00040F2884222E000BF4022C4F20202944575
:1019C00020D058221AE000BF40F24042C4F2020286
:1019D000944517D040F2584210E000BFA022C4F254
:1019E000020294450ED0B82208E000BF40F2B8428F
:1019F000C4F20202944505D040F2A042C4F20202B1
:101A0000944517D10CF0F8024AF6AB23103ACAF607
:101A1000AA23A2FB03310AA35F2AC1F302115B5C74
:101A200040F2FF312CEA0101C36588BF04318165B2
:101A3000084670472CF0FF0181650846704700BFDB
:101A4000000610160006101670B540F26F44D0F86C
:101A500000C0C4F20204D0F858E0A4451ADC9F2567
:101A6000C4F20205AC4533DC5725C4F20205AC458F
:101A70005ADC1025C4F20205AC4500F098802825F8
:101A8000C4F20205AC4500F092804025C4F2020584
:101A90008AE000BF45F22F45C5F60205AC452DDCB6
:101AA00040F2B745C4F20205AC454BDC40F270454C
:101AB000C4F20205AC457AD040F28845C4F2020572
:101AC000AC4574D040F2A045C4F202056CE000BF02
:101AD00040F22745C4F20205AC4543DCA025C4F220
:101AE0000205AC4563D0B825C4F20205AC455ED012
:101AF00040F21045C4F2020556E000BF45F26B45C6
:101B0000C5F60205AC453FDC45F23045C5F6020599
:101B1000AC454CD045F24445C5F60205AC4546D02F
:101B200045F258453EE000BF5825C4F20205AC45D9
:101B30003DD07025C4F20205AC4538D08825C4F2EA
:101B4000020531E040F2B845C4F20205AC452ED0A2
:101B500045F20845C5F60205AC4528D045F21C45BE
:101B600020E000BF40F22845C4F20205AC451ED07B
:101B700040F24045C4F20205AC4518D040F2584549
:101B8000C4F2020510E000BF45F26C45C5F602053F
:101B9000AC450CD045F29445C5F60205AC4506D0DF
:101BA00045F28045C5F60205AC4540F0D580456E4E
:101BB000C66E002E866E6E601CBFD0E91C566E602D
:101BC000A44515DC9F24C4F20204A4452CDC572450
:101BD000C4F20204A44551DC1024C4F20204A4455A
:101BE0007AD02824C4F20204A44575D040246FE0C2
:101BF00045F22F44C5F60204A44529DC40F2B7445F
:101C0000C4F20204A44545DC40F27044C4F202046C
:101C1000A44561D040F28844C4F20204A4455BD0DC
:101C200040F2A04454E000BF40F22744C4F2020452
:101C3000A4453FDCA024C4F20204A4454CD0B8243F
:101C4000C4F20204A44547D040F2104440E000BF73
:101C500045F26B44C5F60204A44555DC45F2304418
:101C6000C5F60204A44561D045F24444C5F6020419
:101C7000A4455BD045F2584454E000BF5824C4F258
:101C80000204A44528D07024C4F20204A44523D041
:101C900088241DE040F2B844C4F20204A4451BD0DD
:101CA00045F20844C5F60204A4453FD045F21C4461
:101CB00038E000BF40F22844C4F20204A4450BD02F
:101CC00040F24044C4F20204A44505D040F2584416
:101CD000C4F20204A4453FD18468C06D00F01F0027
:101CE0003F2505FA00F0CEF80800DCF80000402C93
:101CF00020F48020CCF80000CCF8043023D0CCF8BD
:101D00000810CCF80C2070BD45F26C44C5F60204F6
:101D1000A4450BD045F28044C5F60204A44505D085
:101D200045F29444C5F60204A44515D1C46D8068FB
:101D300004F01F040125402805FA04F4CEF80440FD
:101D4000CCF8043004D1CCF80820CCF80C1070BDCD
:101D5000CCF80810CCF80C2070BD0000000000008A
:101D60002DE9F0410378427862F30A23A3F58068F5
:101D7000A1F8008090F801C0A3F2D93390F802E0F6
:101D80004F2B4FEADC026EF34A12A2F580644C80BE
:101D900090F802C0077990F803E0A2F2D9324FEA36
:101DA0008E0646EA9C1667F38A26A6F580678F8022
:101DB00090F804C090F805E038BF4FF000084F2AB3
:101DC0004FEA5C05A1F80080A6F2D93238BF0024A2
:101DD0006EF3CA154F2A4C80A5F5806C38BF0027DA
:101DE000A5F2D9324F2A8F8038BF4FF0000C0A7A03
:101DF0008A724A7AA1F806C0CA72427992090A72B6
:101E00004279C2F301124A72C2888A810289CA8168
:101E100042890A82027B8A74427BCA74C2898A829E
:101E2000008AA0F58060C882BDE8F0810000000053
:101E300080B54EF6FC514FF0000CCEF200010A685E
:101E400042F080720A6041F2000144F24022CEF278
:101E50000001C0F20F02504344F6D352C1F804C04F
:101E6000C1F262020B68A0FB022E4DF6836243F0C2
:101E700001030B6040F29041C4F21B32C2F20041F8
:101E8000A0FB022308604FEA9E104860980CC1E94D
:101E9000020C80BD00000000704700000000000040
:101EA00042F250300123C2F20040642200214FF47C
:101EB000FA7C80F8583080F86C304BF629230260A9
:101EC000C0F600030172C0E9031142610177C0E965
:101ED0000811826280F83010C0E90D11C26380F8E9
:101EE0004410C0E912110265C0E917114266C0E949
:101EF0001C11826780F88010C0E92111C0F88C2085
:101F000080F89410C0E92611C0F8A02080F8A8102D
:101F1000C0E92B11C0F8B42080F8BC10C0E9301122
:101F2000C0F8C82080F8D010C0E93511C0F8DCC076
:101F300080F8E410C0E93A11C0F8F02080F8F810F9
:101F4000C0E93F11C0F804C180F80C11C0E9443168
:101F5000C0F8182180F82011C0E94911C0F82CC13F
:101F600080F83411C0E94E117047000000000000F5
:101F700010B5044603F050F904EB840142F25032EC
:101F8000C2F2004202EB8101486010BD0000000077
:101F9000EFF3108072B600BFFEE700000000000003
:101FA00044F60400C5F60200816841F00201816038
:101FB0000168890409D4016889045CBF01685FEA8B
:101FC000814102D401688904F2D570470000000005
:101FD00043F64420C2F2004002F016BB00000000AD
:101FE00043F64420C2F2004002F00EBB00000000A5
:101FF00043F6E420C2F2004002F006BB00000000FD
:1020000043F6E420C2F2004002F0FEBA00000000F5
:1020100043F68430C2F2004002F0F6BA000000003D
:1020200043F68430C2F2004002F0EEBA0000000035
:10203000B0B5B0F890110229A1F1010E08D38A1EA3
:102040000EF0030C032A07D29FED2F1A002329E07C
:102050009FED2D1A49E000BF2EF00302A0F11004FD
:102060009FED291A002300BF94ED052A94ED063A4E
:1020700031EE021A94ED074A94ED085A043304F144
:10208000100584ED042A31EE031A84ED053A84ED3F
:10209000064A9A4284ED075A2C4631EE041A31EE74
:1020A000051AE1D1BCF1000F1FD05A1CBCF1010F81
:1020B00000EB820400EB830294ED002A31EE021A59
:1020C00082ED002A11D00233BCF1020F00EB830332
:1020D00093ED002A84ED002A31EE021A05D092ED2C
:1020E000032A83ED002A31EE021A02EE101A31EEB5
:1020F000001A00EB8E00B8EE422A80ED000A81EE55
:10210000021AB0EE410AB0BD00000000000000005D
:1021100080B50029A0F8901108BF80BD8900FEF7A6
:10212000D4FA80BD0000000040F2F860C2F2004026
:1021300090ED690A7047000040F2F860C2F200407A
:1021400090ED680A7047000040F2F860C2F200406B
:1021500090ED6A0A7047000042F290409FED101A1D
:10216000C2F2004090ED830AB4EE410AF1EE10FA9B
:1021700008DD0021C4F2A001C0F80C120021C0F853
:102180005C117047B2EE0E1AB4EE410AF1EE10FA8D
:10219000A8BF70470021C4F2BE21C0F80C127047DE
:1021A000000096420000000010B52DED0A8B9FED57
:1021B000509A42F29044B1EE080AB0EE492AC2F2B7
:1021C0000044DFED480A04F5BA709FED471ADFEDD1
:1021D000471A0BF0E9FD9FED488AB0EE492AF0EE70
:1021E000480A04F5E2709FED430A9FED441ADFEDC3
:1021F000441ADFED442AFFF737FBB7EE00BAB2EE20
:1022000004AABFEE000ABAEE001A04F5CE70DFEDA4
:102210003E0AF0EE4B1AB0EE4A2A0BF0C5FDB2EEC4
:102220000E2AB0EE4A1AF0EE4B1A04F511709FED2B
:10223000370ADFED370A0BF0B7FD9FED38BAB0EE85
:102240000C1AF0EE4B1AB0EE492A04F124009FED6F
:10225000310ADFED310A0BF0A7FD04F174009FEDA8
:10226000300ADFED300A9FED301ADFED301A9FEDB6
:10227000302ADFED302AFFF7F7FA9FED30CAF0EE93
:102280004B1AF0EE4C0A04F14C009FED2B0A9FED27
:102290002C1A9FED2C2A0BF087FD9FED2CBAF0EE47
:1022A0004C0AB0EE4A1AF0EE491AB0EE4B2A04F18D
:1022B000C8009FED250A0BF077FDF6EE000A04F545
:1022C0008C709FED230AB0EE4B2A9FED221AF0EEA0
:1022D000482ADFED211ABDEC0A8BBDE81040FFF75C
:1022E000C3BA00BF00000000CDCCCC3E0000FA43D2
:1022F00000C0DA45000096423333333F0000F0421D
:10230000000048439A99193F6F1283BA6666E63F08
:102310006F12833A9A99B9400AD7A33C00007A44D5
:10232000000014428FC2F53C00002D4300002F44F2
:102330000000FA446666E63E0000A543CDCCCC3DE5
:1023400000E02B4600504347000048420060EA4648
:10235000000066430000D7430000C84200000000B0
:10236000F0B581B040F2AC3740F20C51C2F20047F8
:1023700042F29040C2F20041C2F200403A7891ED40
:10238000050AB0F8B843B1EE400A012A91ED0D1AE2
:1023900080ED2F0A80ED2B1A02D17A887B6803E04A
:1023A00023B201223A702246A61A9FED932A35B233
:1023B000324615F5805F9FED914AB8BF02F5005295
:1023C000B5F5805F9FED8E5AC8BFA6F500527C80A0
:1023D00003FA82F241F2FB33D31A7A6000EE103A2C
:1023E00000F59C63D0F8E422826193ED003AB8EEE8
:1023F000C00A33EE053A9FED835A20EE020AB0EE92
:10240000412AA0EE042A80ED022A91ED0C2A80EDEB
:10241000542AA3EE052A91ED043A00F2FC51B1EEE4
:10242000433A9FED795A80ED563A91ED003A80EDAE
:10243000803AD0F8DC1532EE055A9FED752AB4EEDD
:10244000423A80ED7F5AF1EE10FAC0F8081203DD2F
:102450009FED6E4A07E000BF9FED6E5AB4EE453A1D
:10246000F1EE10FA03DA33EE043A80ED803A9FED94
:102470006A4AB4EE443AF1EE10FA0BDB9FED675A6C
:10248000B4EE453AF1EE10FA04DC00219FED655AF6
:1024900029E000BFB2EE0E5AB4EE453AF1EE10FA62
:1024A0000CDBB4EE443AF1EE10FA07DABFEE084A5C
:1024B0000021C4F2A00123EE045A16E0B4EE453A1E
:1024C000F1EE10FA0CDAB9EE044AB4EE443AF1EE49
:1024D00010FA05DB00219FED525AC4F2A00104E07E
:1024E000B9EE045A0021CCF2F011C0F86C1190ED55
:1024F0002C4A9FED4D6A31EE443A80ED5C5AB4EEC1
:10250000463AF1EE10FA07DA9FED3C3A33EE443AE0
:1025100031EE033A0DE000BF9FED445AB4EE453A68
:10252000F1EE10FA05DD9FED393A31EE033A33EE64
:10253000443A90ED2D4A002133EE043A90ED304AB2
:1025400080ED2D3A34EE435AB4EE425AF1EE10FAD1
:10255000A8BF012106DA33EE445AB4EE425AF1EE36
:1025600010FA30DB9FED295A9FED246A34EE057A8C
:1025700011F0010104FE074A33EE447A74EE060AB4
:10258000B4EE472AF1EE10FA34FE204A41B9B4EE17
:10259000427AF1EE10FAA8BF80ED304A02E000BFA7
:1025A00080ED304A34EE437A0021B4EE427AF1EE07
:1025B00010FAA8BF0121D9DA33EE447AB4EE427A98
:1025C000F1EE10FAD2DA4EF6A4319FED0C2AC2F2E7
:1025D0000141A0EE023A80ED2C1A097880ED043A10
:1025E00000F6085000EE101AB8EE400AFFF720FD82
:1025F00087ED020A01B0F0BD000000B90000B4434D
:102600009C6A8B3FE12E65420000B4420000B4C3D7
:1026100000003443000034C300008C420000C84274
:10262000CDCC9C400000DCC2000087C30000874383
:102630002DE9F041044602F0EFFD1CB3054694F885
:102640003500022822D140F20F462768C4F2020664
:1026500040F26F48B7426FF00E00C4F202081DDC72
:102660006F21C4F202018F422ADC3F21C4F2020131
:102670008F4241DC1021C4F202018F4263D0282135
:102680005CE000BF0120BDE8F08100BF80206065F4
:102690000120002184F83410BDE8F08147451BDC9F
:1026A00040F23F41C4F202018F422DDC40F2104162
:1026B000C4F202018F4246D040F228413EE000BF02
:1026C0009F21C4F202018F4228DC7021C4F2020172
:1026D0008F4238D0882131E040F29F41C4F202019C
:1026E0008F4223DC40F27041C4F202018F422AD0B3
:1026F00040F2884122E000BF4021C4F202018F4233
:1027000021D058211AE000BF40F24041C4F202013A
:102710008F4218D040F2584110E000BFA021C4F20F
:1027200002018F420FD0B82108E000BF40F2B8414B
:10273000C4F202018F4206D040F2A041C4F202016D
:102740008F42394607D13946386820F01E0041F8DB
:10275000140B6FF080000A68474500EA0200086029
:102760001ADC9F20C4F20200874233DC5720C4F2F7
:10277000020087425ADC1020C4F20200874200F0B7
:1027800097802820C4F20200874200F09180402008
:10279000C4F202008AE000BF45F22F40C5F60200F5
:1027A00087422DDC40F2B740C4F2020087424BDC86
:1027B00040F27040C4F20200874279D040F2884073
:1027C000C4F20200874273D040F2A040C4F202007B
:1027D0006CE000BF40F22740C4F20200874243DCB5
:1027E000A020C4F20200874262D0B820C4F20200E6
:1027F00087425DD040F21040C4F2020056E000BFB4
:1028000045F26B40C5F6020087423FDC45F230409E
:10281000C5F6020087424BD045F24440C5F602009F
:10282000874245D045F258403EE000BF5820C4F2F0
:10283000020087423CD07020C4F20200874237D0A9
:102840008820C4F2020031E040F2B840C4F2020035
:1028500087422DD045F20840C5F60200874227D0B6
:1028600045F21C4020E000BF40F22840C4F20200C4
:1028700087421DD040F24040C4F20200874217D088
:1028800040F25840C4F2020010E000BF45F26C4034
:10289000C5F6020087420BD045F29440C5F602000F
:1028A000874205D045F28040C5F60200874204D138
:1028B000206E016821F480710160386820F0010009
:1028C000386000BF3868C00710D002F0A5FC401B7C
:1028D0000628F7D320206065032084F83500012006
:1028E000002184F83410BDE8F08100BF2068B042B8
:1028F00010DC6F21C4F2020188421DDC3F21C4F2CA
:102900000201884234DC1021C4F20201884255D011
:1029100028214FE040451BDC40F23F41C4F2020158
:1029200088422DDC40F21041C4F20201884245D0B9
:1029300040F228413EE000BF9F21C4F202018842DC
:1029400028DC7021C4F20201884237D0882131E0AE
:1029500040F29F41C4F20201884223DC40F2704100
:10296000C4F20201884229D040F2884122E000BF2F
:102970004021C4F20201884220D058211AE000BF51
:1029800040F24041C4F20201884217D040F258415F
:1029900010E000BFA021C4F2020188420ED0B8218D
:1029A00008E000BF40F2B841C4F20201884205D0FD
:1029B00040F2A041C4F2020188425BD1D4E9161270
:1029C00002F01F023F2303FA02F28A6040455BDCFB
:1029D0009F21C4F20201884214DC5721C4F2020193
:1029E000884227DC1021C4F20201884200F0A28054
:1029F0002821C4F20201884200F09C804021C4F2E8
:102A0000020195E040F22741C4F2020188421FDC36
:102A1000A021C4F20201884200F08C80B821C4F2E7
:102A20000201884200F0868040F21041C4F20201A7
:102A30007EE000BF5821C4F2020188427AD07021A2
:102A4000C4F20201884275D08821C4F202016FE00D
:102A500040F22841C4F2020188426BD040F240416A
:102A6000C4F20201884265D040F25841C4F202012A
:102A70005EE000BFD4E9161202F01F02012303FA40
:102A800002F24A604045A3DD45F22F41C5F602013E
:102A9000884217DC40F2B741C4F20201884227DCC9
:102AA00040F27041C4F20201884243D040F28841B2
:102AB000C4F2020188423DD040F2A041C4F20201BA
:102AC00036E000BF45F26B41C5F6020188421FDCCB
:102AD00045F23041C5F6020188422BD045F244410F
:102AE000C5F60201884225D045F258411EE000BFDC
:102AF00040F2B841C4F2020188421BD045F20841BD
:102B0000C5F60201884215D045F21C410EE000BF17
:102B100045F26C41C5F6020188420BD045F2944162
:102B2000C5F60201884205D045F28041C5F6020192
:102B300088420BD1616EA26EE06E4A6030B10168CE
:102B400021F480710160D4E91C014160012084F806
:102B500035000020002184F83410BDE8F081000029
:102B600080B5D8B190F83510022919D140F20F4242
:102B70000168C4F20202914216DC6F23C4F2020320
:102B8000994227DC3F23C4F2020399423EDC102322
:102B9000C4F2020399425FD0282359E0012080BD8E
:102BA00080214165012080BD40F26F43C4F20203E1
:102BB00099421BDC40F23F43C4F2020399422DDCF0
:102BC00040F21043C4F20203994245D040F2284338
:102BD0003EE000BF9F23C4F20203994228DC702329
:102BE000C4F20203994237D0882331E040F29F4378
:102BF000C4F20203994223DC40F27043C4F20203A0
:102C0000994229D040F2884322E000BF4023C4F219
:102C10000203994220D058231AE000BF40F24043FB
:102C2000C4F20203994217D040F2584310E000BFAB
:102C3000A023C4F2020399420ED0B82308E000BFDB
:102C400040F2B843C4F20203994205D040F2A043D7
:102C5000C4F20203994275D191424FF0040280F808
:102C6000352011DC6F20C4F20200814222DC3F20BB
:102C7000C4F20200814239DC1020C4F20200814219
:102C800059D0282054E000BF40F26F40C4F2020047
:102C900081421BDC40F23F40C4F2020081422DDC45
:102CA00040F21040C4F20200814244D040F2284079
:102CB0003EE000BF9F20C4F20200814228DC702069
:102CC000C4F20200814236D0882031E040F29F40B9
:102CD000C4F20200814223DC40F27040C4F20200E0
:102CE000814228D040F2884022E000BF4020C4F258
:102CF000020081421FD058201AE000BF40F240403D
:102D0000C4F20200814216D040F2584010E000BFE9
:102D1000A020C4F2020081420DD0B82008E000BF1C
:102D200040F2B840C4F20200814204D040F2A04018
:102D3000C4F202008142086820F00100086000200F
:102D400080BD00BF0A6822F00E020A6045F25742B9
:102D5000C5F6020291420A6822F001020A600FDC05
:102D600045F22F42C5F60202914219DC45F20842B3
:102D7000C5F60202914229D045F21C4222E000BF72
:102D800045F27F42C5F60202914213DC45F25842F9
:102D9000C5F60202914219D045F26C4212E000BF22
:102DA00045F23042C5F6020291420FD045F244424C
:102DB00008E000BF45F29442C5F60202914205D0F8
:102DC00045F28042C5F6020291421AD1D0E9181CA0
:102DD000D0E916E30A6822F480720A6003F01F014A
:102DE000012202FA01F1CEF80410816ECCF8041031
:102DF000C16E31B10A6822F480720A60D0E91C12F7
:102E00004A60012180F83510026D002180F83410ED
:102E10000AB190470021084680BD00000000000074
:102E20002DE9F04782B00021019140F2A80104464B
:102E3000C2F2004148F2B512C1F64E32A56D0968E2
:102E400040F26F490068C4F20209A1FB021848452C
:102E50002E68296816DC9F21C4F2020188422DDC0D
:102E60005721C4F20201884252DC1021C4F202014F
:102E700088427CD02821C4F20201884277D04021C8
:102E800070E000BF45F22F42C5F60202904229DCF5
:102E900040F2B742C4F20202904245DC40F2704177
:102EA000C4F20201884262D040F28841C4F20201B9
:102EB00088425CD040F2A04154E000BF40F227417C
:102EC000C4F2020188423FDCA021C4F20201884220
:102ED0004DD0B821C4F20201884248D040F21041DE
:102EE00040E000BF45F26B42C5F60202904275DC3D
:102EF00045F23042C5F60202904200F0828045F26F
:102F00004442C5F6020290427BD045F2584273E03B
:102F10005821C4F20201884229D07021C4F2020172
:102F2000884224D088211DE040F2B842C4F2020257
:102F300090421CD045F20842C5F60202904260D091
:102F400045F21C4258E000BF40F22841C4F20201A1
:102F500088420CD040F24041C4F20201884206D0BF
:102F600040F25841C4F20201884240F05A83E16DB8
:102F7000082201F01F0140F20F4A8A40C4F2020AFF
:102F8000324200F0E68050454FF0040312DC6F2718
:102F9000C4F20207B8426FDC3F27C4F20207B8420E
:102FA00000F3A4801027C4F20207B84200F0C580E5
:102FB0002827BDE048456BDC40F23F47C4F20207DA
:102FC000B84200F39B8040F21047C4F20207B842B7
:102FD00000F0B38040F22847AAE000BF45F26C42FF
:102FE000C5F6020290420CD045F28042C5F60202BC
:102FF000904206D045F29442C5F60202904240F05B
:1030000010830268E36D03F01F0304279F400F4203
:1030100018BF12F0040621D102279F400F4218BFAB
:1030200012F002064CD1D940090740F1FA8212F0A1
:10303000080100F0F682016821F00E010160012014
:1030400000FA03F16960606584F835000020E16CE6
:1030500084F83400002940F0DC82E2E211046F6061
:1030600026D4910603D4016821F004010160216C8B
:10307000002940F0CE82D4E29F27C4F20207B84272
:1030800046DC7027C4F20207B84256D088274FE0CA
:1030900040F29F47C4F20207B84241DC40F2704759
:1030A000C4F20207B84248D040F2884740E000BF6F
:1030B000D00300F1B382A16C002940F0AA82B0E2F3
:1030C00011046F6000F1B082910609D4016821F00B
:1030D0000A010160012084F83500002084F83400E2
:1030E000E16B002940F095829BE200BF4027C4F2CB
:1030F0000207B84221D058271AE000BF40F24047EB
:10310000C4F20207B84218D040F2584710E000BF9E
:10311000A027C4F20207B8420FD0B82708E000BFCA
:1031200040F2A047C4F20207B84206D040F2B847C6
:10313000C4F20207B84218BF082307681F4208D02C
:10314000036823F004030360AA60626D42F0010289
:10315000626501228A4032426FD0504510DC6F23F5
:10316000C4F2020398421DDC3F23C4F202039842DA
:1031700034DC1023C4F20203984256D028234FE0D7
:1031800048451BDC40F23F43C4F2020398422DDC69
:1031900040F21043C4F20203984246D040F2284362
:1031A0003EE000BF9F23C4F20203984228DC702354
:1031B000C4F20203984238D0882331E040F29F43A2
:1031C000C4F20203984223DC40F27043C4F20203CB
:1031D00098422AD040F2884322E000BF4023C4F244
:1031E0000203984221D058231AE000BF40F2404326
:1031F000C4F20203984218D040F2584310E000BFD6
:10320000A023C4F2020398420FD0B82308E000BF05
:1032100040F2A043C4F20203984206D040F2B84301
:10322000C4F20203984240F0058243691B0604D5AC
:10323000AA60626D42F00202626504228A40324254
:103240006FD0504510DC6F23C4F2020398421DDC9E
:103250003F23C4F20203984234DC1023C4F2020379
:10326000984256D028234FE048451BDC40F23F43AC
:10327000C4F2020398422DDC40F21043C4F2020370
:10328000984246D040F228433EE000BF9F23C4F25C
:103290000203984228DC7023C4F20203984238D01B
:1032A000882331E040F29F43C4F20203984223DCBA
:1032B00040F27043C4F2020398422AD040F288439D
:1032C00022E000BF4023C4F20203984221D05823D9
:1032D0001AE000BF40F24043C4F20203984218D003
:1032E00040F2584310E000BFA023C4F2020398420A
:1032F0000FD0B82308E000BF40F2A043C4F202039D
:10330000984206D040F2B843C4F20203984240F01B
:10331000998103689B0704D5AA60626D42F004029C
:103320006265102202FA01F1314200F081805045BD
:103330004FF0080210DC6F23C4F2020398421DDC38
:103340003F23C4F20203984234DC1023C4F2020388
:10335000984256D028234FE048451BDC40F23F43BB
:10336000C4F2020398422DDC40F21043C4F202037F
:10337000984246D040F228433EE000BF9F23C4F26B
:103380000203984228DC7023C4F20203984238D02A
:10339000882331E040F29F43C4F20203984223DCC9
:1033A00040F27043C4F2020398422AD040F28843AC
:1033B00022E000BF4023C4F20203984221D05823E8
:1033C0001AE000BF40F24043C4F20203984218D012
:1033D00040F2584310E000BFA023C4F20203984219
:1033E0000FD0B82308E000BF40F2A043C4F20203AC
:1033F000984206D040F2B843C4F20203984218BF84
:1034000004220368134213D0A960016849030168CC
:1034100008D4C90508D4016821F008010160216CB5
:1034200021B905E008034FD4216C09B12046884733
:10343000E06D00F01F01202000FA01F2324200F09E
:10344000AB8020681023504510DC6F27C4F20207C0
:10345000B8421DDC3F27C4F20207B84238DC10270F
:10346000C4F20207B8425AD0282753E048451BDC73
:1034700040F23F47C4F20207B84231DC40F2104745
:10348000C4F20207B8424AD040F2284742E000BFE7
:103490009F27C4F20207B8422CDC7027C4F202074F
:1034A000B8423CD0882735E040F29F47C4F202077B
:1034B000B84227DC40F27047C4F20207B8422ED06F
:1034C00040F2884726E000BFA16C0029AED1AFE7EB
:1034D0004027C4F20207B84221D058271AE000BFA3
:1034E00040F24047C4F20207B84218D040F25847B1
:1034F00010E000BFA027C4F20207B8420FD0B827DF
:1035000008E000BF40F2A047C4F20207B84206D06C
:1035100040F2B847C4F20207B84218BF0223076856
:103520001F4239D0AA6094F83520042A02681BD1C2
:1035300022F016020260426922F080024261226C8F
:103540000AB9A26C1AB1026822F0080202603F2098
:103550008840A860012084F83500216D00200029F2
:1035600084F8340055D15CE0510301680CD4C905DE
:103570000ED4016821F010010160012084F83500AB
:10358000002084F8340003E0080301D4616C00E0FB
:10359000E16B09B120468847606D002841D0606D1D
:1035A000C00734D0042084F8350020684FEA982101
:1035B000026822F001020260019A013201928A42FD
:1035C0001AD80268D20717D0019A013201928A42B2
:1035D00012D80268D2070FD0019A013201928A42B2
:1035E0000AD80268D20707D0019A013201928A42B2
:1035F00002D80268D207DFD10068C0074FF003008D
:1036000008BF012084F83500002084F83400E16C04
:1036100039B1204602B0BDE8F0470847216C0029C7
:10362000F7D102B0BDE8F087D0030DD4616C00295A
:10363000EFD1F6E7026804228A4032427FF401AEFD
:103640006FE600BF02686CE6E16B0029E1D1E8E7B4
:103650002DE9F04381B0044601F0DEFD002C00F0BE
:10366000AF8040F26F4805462068C4F2020840452A
:1036700016DC9F21C4F2020188422DDC5721C4F2DE
:103680000201884254DC1021C4F20201884200F099
:103690007E802821C4F20201884278D0402171E066
:1036A00045F22F41C5F60201884229DC40F2B741BC
:1036B000C4F20201884247DC40F27041C4F20201C8
:1036C000884264D040F28841C4F2020188425ED050
:1036D00040F2A04156E000BF40F22741C4F202018F
:1036E000884241DCA021C4F2020188424FD0B821B7
:1036F000C4F2020188424AD040F2104142E000BFC9
:1037000045F26B41C5F60201884200F3BD8045F2E7
:103710003041C5F60201884200F0C98045F24441BB
:10372000C5F60201884200F0C28045F25841B9E076
:103730005821C4F20201884229D07021C4F202014A
:10374000884224D088211DE040F2B841C4F2020131
:1037500088421CD045F20841C5F60201884200F0BB
:10376000A68045F21C419DE040F22841C4F20201CE
:1037700088420CD040F24041C4F20201884206D097
:1037800040F25841C4F20201884240F025810221F2
:1037900084F83510002184F83410016821F001010B
:1037A000016000BF20680168C9070DD001F034FD39
:1037B000401B0628F6D320206065032084F83500DE
:1037C000012001B0BDE8F08348F23F0204F1080691
:1037D0000168CFF610621140D4F818C06CCE1143C6
:1037E000D4F824901943E3692943256A0E43B9F1BB
:1037F000040F43EA060343EA050343EA0C0303D13B
:10380000D4E90B652E433343666843F48011A6F177
:103810003F07A6F12905042FA6F1470238BF0B4642
:10382000062DA6F14F0E38BF0B46022A26F00302E2
:1038300038BF0B46BEF1040F38BF0B46742A08BFD1
:103840000B46B9F1040F0360416921F0070141EA19
:10385000090140F0DD80D4E90A53002B41EA05015B
:1038600000F0D680BCF5005F00F0B880BCF1000F1E
:1038700040F0C080022D00F0C080012D00F0B48027
:10388000002D00F0BA80C3E045F26C41C5F602019C
:1038900088420CD045F28041C5F60201884206D02C
:1038A00045F29441C5F60201884240F0958004F14A
:1038B000080E022184F83510002184F834100168C4
:1038C000A3699EE80450A2F18005E769B5FA85F581
:1038D00066696D09402A4FEA853543EA07026FF3AE
:1038E000101142EA060208BF102541EADC0142EA53
:1038F0000E02236A294341EAD20141EA131140F83A
:103900000819C0B2CD2148433C2101EA9020E0656E
:103910002046FEF705F8E16D012201F01F0102FAD1
:1039200001F141602068404500F381809F21C4F28D
:103930000201884214DC5721C4F20201884227DCCC
:103940001021C4F20201884200F0C7802821C4F28D
:103950000201884200F0C1804021C4F20201B9E0B6
:1039600040F22741C4F20201884221DCA021C4F2C6
:103970000201884200F0B180B821C4F202018842FD
:1039800000F0AB8040F21041C4F20201A2E000BF9F
:103990005821C4F20201884200F09F807021C4F2D5
:1039A0000201884200F099808821C4F2020191E06E
:1039B00040F22841C4F20201884200F08E8040F2B9
:1039C0004041C4F20201884200F0878040F2584131
:1039D000C4F202017EE000BF4020EDE6032D17D8BF
:1039E000DFE805F00E0B0E02A3F1C072B2FA82F20C
:1039F000520904E0032D03D30AD1C3F300623AB1A4
:103A000040206065012084F8350001B0BDE8F083F6
:103A100041612046FDF784FFE16D3F2201F01F0167
:103A200002FA01F18160206840457FF77FAF45F2DF
:103A30002F41C5F60201884216DC40F2B741C4F2BC
:103A40000201884226DC40F27041C4F20201884241
:103A500043D040F28841C4F2020188423DD040F296
:103A6000A041C4F2020135E045F26B41C5F6020106
:103A700088421FDC45F23041C5F6020188422CD055
:103A800045F24441C5F60201884226D045F258412C
:103A90001EE000BF40F2B841C4F2020188421CD0CF
:103AA00045F20841C5F60201884216D045F21C4194
:103AB0000EE000BF45F26C41C5F6020188420CD011
:103AC00045F29441C5F60201884206D045F2804194
:103AD000C5F60201884240F0E18045F2574C45F6B8
:103AE000FC01C5F6020CC5F6020160450EDC45F28C
:103AF0002F42C5F60202904218DC45F20842C5F694
:103B00000202904228D045F21C4221E045F27F4259
:103B1000C5F60202904213DC45F25842C5F6020295
:103B2000904219D045F26C4212E000BF45F230429B
:103B3000C5F6020290420FD045F2444208E000BFB1
:103B400045F29442C5F60202904205D045F2804209
:103B5000C5F60202904247D100F0FC024CF6CD437C
:103B6000083ACCF6CC43A2FB0323A1F1FC05A1F15A
:103B70007C061B0905EB830503F01F02A36825667D
:103B8000802B4FF0010303FA02F26666A26605D1AC
:103B900000206060286072601EE000BF6768FBB2B2
:103BA000013F072F2B60726016D85E1E082E19D2B7
:103BB000604501F1440237DC45F22F47C5F60207A4
:103BC000B84241DC45F20847C5F60207B84259D071
:103BD00045F21C474AE000BF00206067C4E91B00B3
:103BE0005CE000BFE06E54E000F0F8024AF6AB2360
:103BF000103ACAF6AA23A2FB032740F20F43C4F2ED
:103C0000020308253A09984203F1AA06134688BF21
:103C100005EB171340F60005B042C4F2020505F1AA
:103C2000800628BF1346A5E745F27F47C5F6020781
:103C3000B84213DC45F25847C5F60207B84221D016
:103C400045F26C4712E000BF45F23047C5F6020767
:103C5000B84217D045F2444708E000BF45F280471C
:103C6000C5F60207B8420DD045F29447C5F60207E3
:103C7000B84207D040F60000C4F2020000F1FC0197
:103C800000F5A07201EB83000121E066B1402267DC
:103C9000616700210160D4E91C014160002060657A
:103CA000012184F8351001B0BDE8F0830000000068
:103CB000B0B500283CD0054690F83400012801D169
:103CC0000220B0BD012085F8340095F835000128A8
:103CD00028D1022085F8350000206865286804682E
:103CE00024F0010404602846FDF7AEFE40F20F42C6
:103CF0002868C4F2020240F26F419042C4F202010D
:103D000018DC6F23C4F20203984225DC3F23C4F27F
:103D1000020398423CDC1023C4F2020398425ED0B6
:103D2000282357E04FF400606865002085F83400D0
:103D30000120B0BD88421BDC40F23F43C4F20203C5
:103D400098422DDC40F21043C4F20203984246D060
:103D500040F228433EE000BF9F23C4F20203984292
:103D600028DC7023C4F20203984238D0882331E063
:103D700040F29F43C4F20203984223DC40F27043B6
:103D8000C4F2020398422AD040F2884322E000BFE6
:103D90004023C4F20203984221D058231AE000BF06
:103DA00040F24043C4F20203984218D040F2584314
:103DB00010E000BFA023C4F2020398420FD0B82342
:103DC00008E000BF40F2B843C4F20203984206D0B4
:103DD00040F2A043C4F20203984240F02F810368EE
:103DE0000B2464F3440303602B6C1BB108230468A9
:103DF00023430360884219DC9F23C4F202039842E4
:103E000032DC5723C4F20203984259DC1023C4F277
:103E10000203984200F096802823C4F202039842DD
:103E200000F090804023C4F2020389E045F22F4362
:103E3000C5F6020398422DDC40F2B743C4F20203F8
:103E400098424BDC40F27043C4F20203984279D0AE
:103E500040F28843C4F20203984273D040F2A04378
:103E6000C4F202036CE000BF40F22743C4F2020335
:103E7000984243DCA023C4F20203984262D0B823E4
:103E8000C4F2020398425DD040F21043C4F2020330
:103E900056E000BF45F26B43C5F6020398423FDC93
:103EA00045F23043C5F6020398424BD045F24443F5
:103EB000C5F60203984245D045F258433EE000BFA4
:103EC0005823C4F2020398423CD07023C4F2020388
:103ED000984237D08823C4F2020331E040F2B8435D
:103EE000C4F2020398422DD045F20843C5F60203FE
:103EF000984227D045F21C4320E000BF40F22843FF
:103F0000C4F2020398421DD040F24043C4F20203BF
:103F1000984217D040F25843C4F2020310E000BFA9
:103F200045F26C43C5F6020398420BD045F2944328
:103F3000C5F60203984205D045F28043C5F6020358
:103F4000984274D12B6E1C68E40303D51C6844F4BA
:103F500080741C60EB6E1BB11D6845F480751D609C
:103F6000904211DC6F21C4F2020188421EDC3F2125
:103F7000C4F20201884235DC1021C4F202018842F9
:103F800055D0282150E000BF88421BDC40F23F4161
:103F9000C4F2020188422DDC40F21041C4F2020159
:103FA000884244D040F228413EE000BF9F21C4F245
:103FB0000201884228DC7021C4F20201884236D016
:103FC000882131E040F29F41C4F20201884223DCA3
:103FD00040F27041C4F20201884228D040F2884188
:103FE00022E000BF4021C4F2020188421FD05821C4
:103FF0001AE000BF40F24041C4F20201884216D0EC
:1040000040F2584110E000BFA021C4F202018842F2
:104010000DD0B82108E000BF40F2B841C4F202015F
:10402000884204D040F2A041C4F2020188420168F3
:1040300041F0010101600020B0BD00BF036805240C
:1040400064F3430303602B6C002B3FF4D3AE0423D3
:10405000CDE6000000000000B0B5044601F0DCF839
:1040600040F2A0010546C2F20041621C097818BF67
:104070000C4400BF01F0D0F8401BA042FAD3B0BD01
:1040800090F89830013B012B0ED80068836D0B42ED
:1040900012D0836D0B408B4216D1C36D43F00203E7
:1040A000C3658B0514D418E000F19C0101200222A5
:1040B0000B681A430A607047C36D43F00103C36580
:1040C0008B0505D409E000BF0323C3658B0504D528
:1040D000D0F8E0301343C0F8E0304B0504D5D0F8F9
:1040E000E4301A43C0F8E4204FF6FF72436DC3F684
:1040F000CF720A401A4342658A0F4AF61401002023
:10410000C4F200010B681A430A6070470000000007
:104110002DE9F04390F89830022B19D10668D6F8B3
:10412000C03013F07C5F1DD0D6F8C4309B0223D47E
:10413000D6F8C4300C69C3F3044CD1E90035002D26
:104140008D6823D023432B4343F0804E22E000BFF1
:10415000D0F89C1041F00801C0F89C100120BDE887
:10416000F08300BFD0F89C1041F02001C0F89C10F3
:104170000120BDE8F08300BFD0F89C1041F400712D
:10418000C0F89C100120BDE8F08300BF44EA8343DF
:1041900043EA050E836ED0F88450D1E907970CFBF3
:1041A00003F48B6949EA0767D1F81480D1F80C90C1
:1041B0001F4305EB840347EA080745F824E047EA74
:1041C00009475F60CF6887B148F63035083303325E
:1041D0000024C0F6010500BF171957F8037C1F51D2
:1041E000CF680434EF5DBC42F6D3012101FA0CF133
:1041F000C6F8D010C0F894100020BDE8F08300008D
:10420000704700000000000090F89830012B0DD19D
:10421000012913D0F1B90068D0F8F01021F07C51D9
:1042200041EA0261C0F8F01000207047D0F89C10FD
:1042300041F00401C0F89C10012070470068D0F8DC
:10424000A01021F0FE4141EA0261C0F8A010002058
:10425000704700BF0068D0F8B01021F0FE4141EA7D
:104260000261C0F8B010002070470000000000009C
:1042700080B590F89820013A012A0BD80A68002AE4
:10428000CA680FD00B69072A43EA427E18D18B69AE
:104290001BE000BFD0F89C1041F00201C0F89C1058
:1042A000012080BD072A19D10A69D1F81CC0120467
:1042B0008B6942EA0C221A4342F0605218E000BFB8
:1042C000D1F808C04B6943EA8C73006F496800EB72
:1042D000C10240F831E00020536080BD8B68D1F806
:1042E00010C09B0743EAC2624B6942EA0C421A4380
:1042F0004968C06E40F82120002080BD0000000009
:1043000090F898C0BCF1010F0ED19200006842EA0B
:104310000111DDF800C041EA430141EA0C01C0F897
:1043200080100020704700BFD0F89C1041F00401BD
:10433000C0F89C100120704770470000000000008A
:1043400010B58CB043F6442201F00071C2F2004275
:1043500090420BD151B143F6442401A9C2F200446A
:10436000204600F031F8069818BB29E043F6E42215
:10437000C2F2004290420BD151B143F6E42401A9AC
:10438000C2F20044204600F01FF8069888B917E0F2
:1043900043F68432C2F20042904211D181B143F619
:1043A000843401A9C2F20044204600F00DF80698BA
:1043B00030B12068816921F0010181610CB010BD2C
:1043C0000CB010BD000000000068426C02F0070055
:1043D0000860C2F302204860C2F3803302F0180084
:1043E0008860C2F34010C860C2F380100861C2F355
:1043F000C0104861C2F3C0208861C2F30030C861B8
:10440000C2F34030C1E90803C2F3064200208A62C9
:1044100070470000000000002DE9F04390F898700C
:10442000022F11D1402919D10668D6F8A07017F4CF
:10443000FE0F2FD0D6F8A4707F0635D0D6F8A47022
:10444000FF013BD400273CE0D0F89C1041F008016C
:10445000C0F89C100120BDE8F08300BF41290FD1B6
:104460000668D6F8B07017F4FE0F13D0D6F8B47003
:104470007F0619D0D6F8B470FF012BD400272CE0AA
:10448000076D8F4206D900F17C04456D4FF0000C9A
:104490000E462BE0D0F89C1041F02001C0F89C1093
:1044A0000120BDE8F08300BFD0F89C1041F480717A
:1044B000C0F89C100120BDE8F08300BFD6F8A070C2
:1044C000FF0FD6F8A46000F17404C6F30526F519B1
:1044D000466C0AE0D6F8B070FF0FD6F8B46000F171
:1044E0007804C6F30526F519C66CAC4675432468F6
:1044F00004EB850E54F8257017F08047576054F888
:10450000257027F0604608BFC7F38A46166054F846
:10451000257007F00057976054F8254004F00044D8
:104520001461BEF80440D461BEF8064014F00F04D4
:10453000D460DEF8044004F480145461DEF80440D2
:1045400004F4001494619EF8074004F07F041462A0
:10455000DEF804404FEAD474546228D048F630386C
:104560000024C0F601080EEB0406651C377A1F55BF
:10457000D76818F80770BD4219D21F19757A7D7077
:10458000D56818F80590A51C4D453FBFB57ABD709C
:10459000D56818F805903CBFE51C4D4507D2F57A63
:1045A0000434FD70D56818F80550AC42DBD34029BF
:1045B00006D10068C0F8A8C00020BDE8F08300BFA5
:1045C000412905D10068C0F8B8C00020BDE8F083DB
:1045D0001F2909D80068012202FA01F1C0F89810D9
:1045E0000020BDE8F08300BF006801F01F01012238
:1045F00002FA01F1C0F89C100020BDE8F083000031
:1046000070470000000000002DE9F04F89B004461B
:104610004AF61000C4F2000001684AF61400C4F221
:1046200000000268206802EA0108056DD0F8549085
:10463000036D0293436D0193036D0493436D0393E4
:10464000036D0893436D0793036D0693436D0593C4
:10465000D0F854A0D0F850B05FEACA530ED51BF47E
:1046600080710BD04FF4807101654AF61001002073
:10467000C4F2000108602046FFF7C2FF05EA090600
:104680004AF610095FEA4A50C4F200094FEA8877F7
:1046900011D51BF480600ED02068D0F8DC10D0F863
:1046A000E42011404FF4806202650020C9F8000048
:1046B000204600F0C1FCDDE9011000EA010506F426
:1046C000704657B120680021016508F00300C9F861
:1046D000000020463946FFF793FDDDE9031000EAAC
:1046E000010705F00F0546B1206831460665002038
:1046F000C9F80000204600F0A7FC07F0F00645B11D
:104700002068294605650020C9F80000204600F011
:10471000EFFB46B12068314606650020C9F800006D
:10472000204600F051FC5FEA0A500CD51BF40060F3
:1047300009D020684FF4006101650020C9F800002D
:10474000204600F085FC5FEA8A5011D51BF400700A
:104750000ED02068D0F8D810D0F8E02011404FF4E7
:10476000007202650020C9F80000204600F068FCD5
:104770005FEA0A300CD51BF4002009D020684FF402
:10478000002101650020C9F80000204600F0ACFBC4
:104790005FEACA300CD51BF4803009D020684FF492
:1047A000803101650020C9F80000204600F040FC7F
:1047B0005FEA4A30DDE9051000EA01050CD51BF47B
:1047C000802009D020684FF4802101650020C9F8BD
:1047D0000000204600F028FC5FEA8A30DDE907107F
:1047E00000EA010005F060710FD51BF400320CD017
:1047F00022684FF4003313650022C9F80020D4F872
:104800009C2042F08002C4F89C2000F0715539B120
:10481000206801650020C9F800002046FFF790FDE0
:10482000206845B105650021C9F80010D4F89C1036
:104830002943C4F89C10A9F5016188420AD0D4F834
:104840009C00002868D0204609B0BDE8F04FFFF773
:1048500073BD00BF606881688907F0D0016A426A51
:10486000036A476A114003EA070202F03005D0F8F4
:104870002080D0F82490D0F820B0D0F824A0026A8C
:10488000089211F00F01426A0792466A026A069284
:1048900003D00162204600F0BBFB08EA09072DB1F6
:1048A000606829460562204600F0BAFB70060BEAF4
:1048B0000A0607F4C0750ED5069810F040000AD01D
:1048C00060684023C16BC26B090C02F03F020362B7
:1048D000204600F0A1FBDDE9071000EA010706F41D
:1048E000FC462DB1606829460562204600F08CFB2D
:1048F00007F4F02036B161680E62D4F89C103143A1
:10490000C4F89C1000289AD061680862D4F89C1002
:104910000843C4F89C0092E709B0BDE8F08F00009E
:104920002DE9F04F85B0A8B34AF200080446C4F25E
:1049300000080068404531D094F89810A9B3816907
:1049400021F01001816100F067FC05462068816953
:10495000090705D500F060FC401B0B28F6D310E0DA
:10496000816941F00101816100F056FC054600BFFC
:1049700020688169C90721D100F04EFC401B0B283B
:10498000F6D30120D4F89C100843C4F89C000320FF
:1049900084F89800012005B0BDE8F08F08F580711B
:1049A000616094F898100029C9D1002084F899001A
:1049B000204600F0B5F92068C1E700BF816941F0E9
:1049C00002018161217C826922F04002012918BF25
:1049D00040328261617C826922F48042012908BFF1
:1049E00002F580428261A17C826922F48052012911
:1049F00018BF02F580528261816921F44073D4E9C5
:104A000002120B438361836923F0A403836103696A
:104A100023F0100303619AB1012A0DD0022A09D0B4
:104A20008369032A43F080038361036943F0100222
:104A3000026105D1202200E0042283691A438261C9
:104A4000D4E90572E369561E6FF0FF02256A02EB96
:104A50000323B1F5407F43EA4663A5F1010646EA28
:104A6000030640F20003CFF6FF7303EB074746EA65
:104A70000701C16110D1D4E90B65D4E90917013FE1
:104A800002EB06226FF00F063A4306EB05173A4396
:104A900003EB01411143C160236E2BB1616ED0F86D
:104AA000C0201143C0F8C010E16DCDE90313D94215
:104AB00048F2E071C0F6010109D0D0F8C820A36E19
:104AC00022F0070251F823301A43C0F8C820D4F866
:104AD00040A0BAF1000F09D0D0F8BC20636C22F0DE
:104AE000070251F823301A43C0F8BC20A76C57B115
:104AF000D0F8BC20E36C22F0700251F8233042EA77
:104B00000312C0F8BC20D4F850C0BCF1000F0AD08A
:104B1000D0F8BC20636D22F4E06251F8231042EA21
:104B20000121C0F8BC10404504D161688A6822F0B8
:104B300003028A600021C4F89410C4F89C1001217B
:104B400084F898104FF6FC72D0F88410D4F83C909A
:104B500021EA0203656CD4E90D120292019543EA41
:104B60008103C0F88430D0F8843023F47F0343EA13
:104B70000243C0F884305318D0F888606FF38F0672
:104B800046EA8306C0F88860D0F8886003EB4903E2
:104B900026F4FE0646EA0946C0F88860D0F8A06010
:104BA0006FF38F0646EA8306C0F8A060D0F8A060D5
:104BB00005FB0A3326F4FE0646EA0A46C0F8A06062
:104BC000D0F8B0606FF38F0646EA8306C0F8B06095
:104BD000D0F8B06026F4FE0646EA0746C0F8B0609A
:104BE000E66CD0F8AC506FF38F0506FB07337E43BD
:104BF00045EA8305C0F8AC50D4F8548008FB0C3566
:104C0000D0F8F0306FF38F0308FB0CFC43EA850308
:104C1000C0F8F030D0F8F0E0A36D2EF47C1242EA38
:104C20000342C0F8F02005EB4302D0F8C0506FF308
:104C30008F0545EA8202C0F8C020D0F8C020DDF818
:104C40000CB022F47C1242EA0B42C0F8C020019A58
:104C5000D0F8C05025F07C5502FB0AFE4AF2000253
:104C6000C4F20002DDF810A002EB8101029A01F506
:104C7000406145EA0A6501EB8207C0F8C05007EBC6
:104C8000C902A56E02EB8E00626700EB86060BFB85
:104C900005F2276706EB8C07C4E91E060AFB05F040
:104CA00007EBC30303EB8202C4F884304DF2FC33FC
:104CB000E16602EB8000C4F200039842C4F8807001
:104CC000C4F88820C4F8900002D920205AE600BF1A
:104CD000814221D20A46002042F8040BD4F89030D9
:104CE0009A4215D2486001F10802D4F890309A42F5
:104CF0003FBF0020886001F10C02D4F8903038BF2B
:104D00009A4205D2C8601031D4F890209142E1D384
:104D100005B0BDE8F08F00BF002005B0BDE8F08F02
:104D2000B0B5B6B0044602A8B8210025CDE9345587
:104D3000CDE932553195FBF7C8FC4DF200412068B2
:104D4000C4F20001884241D04AF20041C4F200019D
:104D5000884273D04AF20001C4F20001884240F058
:104D6000BF80002003904FF4004002904FF080502D
:104D70001D9002A801F004FE08B1FDF709F940F208
:104D8000606144F2E040C2F20041C5F602000A68E8
:104D9000002A02F101020A6008D1C16841F4807161
:104DA000C160C16801F48071019101990168152405
:104DB00041F0080101600068132500F0080001902F
:104DC000019803203190092133E000BF4FF40040E7
:104DD00002904FF080501D9002A8039501F0D0FD85
:104DE00008B1FDF7D5F840F2606144F2E040C2F24C
:104DF0000041C5F602000A68002A02F101020A60B9
:104E000008D1C16841F48071C160C16801F480714A
:104E1000019101990168A02441F008010160006836
:104E20009F2500F008000190052101984FF44050A3
:104E3000319040F60040C5F6020038E000200390B3
:104E40004FF4004002904FF080501D9002A801F0F6
:104E500097FD08B1FDF79CF840F2606144F2E04034
:104E6000C2F20041C5F602000A68002A02F10102FE
:104E70000A6008D1C16841F48071C160C16801F461
:104E80008071019101990168162441F002010160CD
:104E90000068142500F00200019001986020319014
:104EA00040F60040C5F602000921A0F500603591EA
:104EB00031A9022232920022CDE9332200F0CCF84F
:104EC00005210022284600F0BFFA284600F0A8FA83
:104ED00005210022204600F0B7FA204600F0A0FA93
:104EE00036B0B0BD000000007047000000000000B8
:104EF00010B58CB043F64421C2F2004188420DD077
:104F000043F6E421C2F20041884219D043F68431CD
:104F1000C2F20041884225D00CB010BD43F64420B7
:104F200002AAC2F200406B464021FFF775FA88B32F
:104F300041F6C450C2F200404189013141812DE067
:104F400043F6E42002AAC2F200406B464021FFF77C
:104F500063FA48B341F6C450C2F20040818901317E
:104F6000818125E043F6843402AAC2F200446B46F4
:104F700040212046FFF750FAF0B141F6C45043F605
:104F80008434C2F20040C2F20044C1890131C181BF
:104F900012E000BF02A86946FCF70AF843F6442471
:104FA000C2F2004408E000BF02A86946FCF74CF8D2
:104FB00043F6E424C2F20044012100222046FFF718
:104FC0005FF80CB010BD000070470000000000004A
:104FD00090F8981001290DD1022180F898100168ED
:104FE0008A6922F001028A610021C0F89C100846FB
:104FF000704700BFD0F89C1041F00401C0F89C102D
:105000000120704700000000704700000000000011
:105010007047000000000000704700000000000022
:105020007047000000000000704700000000000012
:105030007047000000000000704700000000000002
:1050400070470000000000007047000000000000F2
:1050500070470000000000002DE9F04F82B00D689D
:10506000002D00F0CB8000F1264242F2004302F115
:10507000FF72C5F602030A2698424FEAB22444F2B0
:10508000F44E08BF0926082C40F2040C38BF4FEA42
:10509000B226C5F6020EC5F6000C009600220027C7
:1050A000002609E001360D6835FA06F307F104071A
:1050B00002F1020200F0A280012303FA06F415EACD
:1050C0000408EFD0D1F804A003230AF0030B9340A7
:1050D000ABF101056FEA0309012D0FD88368CD6894
:1050E00003EA090395402B438360CAF30015436824
:1050F000A34305FA06F42343436005E0BBF1030F25
:1051000002D14FF0030B21E0C3688C6803EA090366
:105110009440BBF1020F43EA0403C36016D16FF061
:10512000030307F01C0503EA56030F24034404FAA3
:1051300005FBD3F820A00C692AEA0B0AAC4044EA2C
:105140000A041C62D1F804A00AF0030B03680BFAEE
:1051500002F403EA09031AF4403F43EA040303603C
:10516000A0D0DEF8003040F2084A43F00203CEF847
:105170000030DEF80030C5F6000A03F002030193A8
:1051800026F00303019C07F00C040F2553F80A9046
:10519000A54029EA0509009D05FA04F444EA09043A
:1051A00043F80A404FF0B04ADAF800904C6849EAF8
:1051B0000805E30258BF29EA0805A302CAF800500F
:1051C000DCF8009049EA080558BF29EA0805A3035E
:1051D000CCF80050DCF8809049EA080558BF29EA6D
:1051E0000805E403CCF88050DCF87C3043EA08057D
:1051F00058BF23EA0805CCF87C5053E702B0BDE85D
:10520000F08F000000000000002A08BF090481613F
:1052100070470000000000004EF6A030C2F20140CE
:10522000006870470000000040F2A0004EF6A03178
:10523000C2F20040C2F2014100780A6810440860DE
:10524000704700000000000080B5032000F02CF93A
:1052500002F0D2FA44F2184148F65023C5F6020192
:10526000C0F601030A68096801F00F01C2F30322C6
:10527000595C9A5C01F01F0102F01F02D04040F21D
:10528000AC02C2F2004220FA01F1116040F2A80122
:10529000C2F2004108600F2000F00AF800281CBF8D
:1052A000012080BD00F0A4F8002080BD00000000B7
:1052B000B0B58AB00F2840D804461C2000222146F1
:1052C000002500F0C1F81C2000F0AAF840F2A4006C
:1052D000C2F20040046044F2E840C5F602000168F2
:1052E00041F001010160006801A900F00100029095
:1052F000029802A802F0CCF9079C002C18BF0124E8
:1053000002F01AFA4DF68361A040C4F21B314FF04F
:10531000FF32A0FB010144F2DC10C2F200404FF06A
:105320008043036002EB9141C0E9011540F2E7318F
:10533000C0E9031503F008FB10B101200AB0B0BDAD
:1053400044F2DC10C2F2004003F06EFB0AB0B0BDC4
:1053500010B54EF6A05E4178CEF2000E90F800C077
:105360004EF8081CDEF8001021F00101CEF8001004
:1053700041684EF8041C017BC37A827A447B1B0689
:1053800043EA0171837B41EAC241C27B41EA844125
:10539000447A41EA4341007A41EA024141EA042168
:1053A00041EA400040EA0C00CEF8000010BD0000C9
:1053B0004EF62450CEF20000BFF35F8F016821F457
:1053C000803101600021016770470000000000008B
:1053D0004EF6245140F00100CEF200010867086843
:1053E00040F480300860BFF34F8FBFF36F8F70477A
:1053F00081B044F2F4400022C5F60200016841F099
:105400000201016000680F2100F0020000906FF0BF
:105410000100009B01B000F017B800000000000080
:10542000002848BF704781B200F01F0001224909DF
:1054300002FA00F04EF20012CEF2000242F8210011
:10544000704700000000000070B54EF60C5C4FF095
:10545000FF36CEF2000C00F1604505F56445DCF83E
:105460000030C3F3022E8EF00703042B28BF042361
:10547000BEF1030406FA03F321EA030100F00F036F
:1054800038BF0024043B0028634406FA04F048BFF8
:1054900003F10C05A14022EA000008430001287036
:1054A00070BD0000000000004EF60C514FF6FF03E7
:1054B000CEF200010A681A4060F30A2242F08060CE
:1054C00040F0FD70086070470FF0DAFE0000000049
:1054D00001680122C0F8D824002280F8CC24886911
:1054E00040F000608861486D40F08052002042F03A
:1054F00003024A657047000070470000000000008A
:1055000002680020516270472DE9F04F81B0D0F859
:105510000080D8F8240099B1D8F82830B1F1010EF4
:1055200000EB134375D0AEF101000EF00307C0B2DB
:1055300003280DD201214FF0000A002F50D168E05E
:1055400040EA0240C8F82800002001B0BDE8F08F12
:1055500008F1F4050021009741F0010408F5827C70
:1055600055F8100FE4B241F00207FFB203EB104B05
:105570005CF8244041F00303D8B25CF827600B1DAF
:105580000EF0FC095FFA83FA0BEB1444CA4504EBF6
:1055900016445CF820001ED0194643F00103DBB22C
:1055A00004EB104A41F0020455F8106FE4B241F0E8
:1055B0000307FFB25CF823000B1D0AEB16465FFAE7
:1055C00083FA5CF8244006EB1046CA455CF82700D5
:1055D00006EB1444E0D104EB10430531009FC7B142
:1055E00008EB8A00012FD0F8040103EB104310D020
:1055F000C8B2022F08EB8000D0F8040103EB10437F
:1056000007D0481CC0B208EB8000D0F8040103EBBF
:10561000104308EB8E0043EA0241C0F80411002059
:1056200001B0BDE8F08F0000D0F8E0040DF07CBBC5
:1056300001EBC10200EB8202D0F8E004126A0DF027
:10564000D7BA00000000000001EBC10200EB8202AB
:10565000D0F8E004D2F860220DF02ABB0000000070
:10566000D0F8E0040DF064BB10B54AB2044601F076
:105670000F00B2F1FF3F00EBC00104EB81020BDD34
:1056800002F51571002382F8553294F894240870BD
:10569000012A0AD1022010BD02F114010123537521
:1056A00094F894240870012AF4D0012084F894041A
:1056B00020680EF061F9002084F8940410BD000009
:1056C000B0B50279044601F00F00904202D90120E2
:1056D000B0BD00BF49B2B1F1FF3F09DD00EBC00131
:1056E000002304EB810202F5157182F8553207E0C0
:1056F00000EBC001012304EB810202F11401537598
:1057000094F8942400258D70012A087002D102209B
:10571000B0BD00BF012084F8940420680EF024FC82
:10572000284684F89454B0BD01F00F0101EBC1018B
:1057300000EB8100D0F86802704700000000000014
:1057400070B54CB2064601F00F00B4F1FF3F00EB1C
:10575000C00107DD06EB8104002504F5157184F80E
:10576000555206E006EB810C01240CF114018CF873
:1057700015404D7808706FF3DF228A60002D0B71A1
:1057800018BF4883022B01D10020487196F8940479
:10579000012801D1022070BD012086F894043068F0
:1057A0000DF07AFF002086F8940470BD0000000020
:1057B00080B501F00F0E0EEBCE0100EB810C002145
:1057C000CCE998238379CCF868128CF855120CF543
:1057D0001571012B8CF854E208BFCCF870220068D8
:1057E0001A460EF00DFC002080BD000000000000F5
:1057F000B0B50446007901F00F05854202D90120B9
:10580000B0BD00BF48B2B0F1FF3F09DD01EBC10000
:10581000002204EB800000F5157180F8552207E0A6
:1058200005EBC500012204EB800000F11401427574
:1058300094F8942401208870012A0D7002D102206E
:10584000B0BD00BF84F8940420680EF0B9FB1DB110
:10585000002084F89404B0BDA179206804F29C4231
:105860000EF052FB002084F89404B0BD000000004C
:1058700010B501F00F0C01240CEBCC0100EB810EF4
:10588000714601F814CF4FF0000CC1F814C090F825
:1058900006C04C70CA60BCF1010F0B6108BFCEF8A6
:1058A0003020006862460EF0ABFB002010BD000007
:1058B0002DE9F04F89B00568824628460EF0B8FD04
:1058C00010B109B0BDE8F08FDAF800000EF0E0FD8D
:1058D0000028F6D0D5F80808C0F30D20CAF8D40483
:1058E000DAF800000EF0D4FD8007DAF8000003D5E6
:1058F000416901F00201416105F5006104910EF07A
:10590000C7FDC006DAF8000005953BD5816921F096
:10591000100181612C6A04F00F05C4F3434006288E
:1059200018D0022827D147F6F07014EA000622D0DA
:1059300005EBC50034090AEB800705982246D7F825
:1059400060120EF0A9FDD7F8600200EB1610C7F840
:10595000600207E00AF29C41082205980EF09CFDC7
:10596000C4F30A1405EBC5000AEB8000D0F86812F6
:105970002144C0F86812DAF80000816941F0100192
:105980008161059D0EF084FD0003CDF820A040F15B
:105990000381DAF800000EF057FD002800F0FC80CB
:1059A00006460AF51D784FF430644FF0000B0AF2FA
:1059B0009C40079009E000BF0BF1010B760804F151
:1059C000200408F1240800F0E780F007F4D05FFA23
:1059D0008BF9DAF8000049460EF052FD8246C00706
:1059E0006DD0281901218160089F38682118036C47
:1059F0008A68BF79012F29D117073BD497065BD45A
:105A000012F0280F059D5AD143F20B07C4F65477C4
:105A1000BB4202D312F400424AD1D8F800200969EF
:105A20006FF3DF41BBF1000FA2EB0101059D48F8C8
:105A30000C1C19D1089BD3F86422002A00F0A68020
:105A4000D3F860020844C3F860020DE043F20B078C
:105A5000C4F65477FF37BB421AD1100428D49006FD
:105A6000059D01D52020886008984946FFF7ECFD88
:105A700025E000BF43F20B00059DC4F6547083423D
:105A80001DD312F400401AD04FF40040886016E095
:105A9000BBF1000F07D10899D1F8641219B90021A0
:105AA000079A0EF031FA08984946FFF7CDFD05E058
:105AB0004FF4004001E000BF20208860059D5FEAB0
:105AC0000A7025D528190821816043F20B01089836
:105AD000C4F654714F1E0068056C2044BD428168B5
