:020000040800F2
:10000000A0050224B5030008694901087914010814
:100010007948010811140008A9DC0108000000005B
:1000200000000000000000000000000061690108FD
:10003000613300080000000051560108E970010812
:10004000D3030008D3030008D3030008D303000838
:10005000D3030008D3030008D3030008D303000828
:10006000D3030008D3030008D30300085925000870
:1000700069250008792500088925000899250008C8
:10008000D3030008D3030008D30300086935000830
:10009000893500087935000899350008D303000830
:1000A000D3030008D3030008D3030008D3030008D8
:1000B00061730108D3030008D3030008D3030008C9
:1000C000D3030008D3030008D3030008D3030008B8
:1000D00069670108319F0108419F0108D3030008A7
:1000E000D3030008D3030008000000007173010867
:1000F000D3030008D3030008D3030008A925000890
:10010000D3030008D3030008D3030008D303000877
:10011000D3030008B98B0108D3030008D3030008F8
:10012000B9250008D3030008D3030008C925000837
:10013000D9250008D3030008D3030008D30300081F
:1001400000000000000000000000000000000000AF
:10015000D3030008D3030008D3030008D303000827
:10016000D3030008D3030008D3030008D303000817
:10017000D3030008D14E0108D3030008000000009B
:10018000D3030008D3030008D3030008D3030008F7
:10019000D3030008D3030008D3030008D3030008E7
:1001A000D3030008D3030008D303000800000000B5
:1001B000D3030008D3030008D3030008D3030008C7
:1001C000D3030008D3030008000000000000000073
:1001D0000000000000000000D30300080000000041
:1001E000000000000000000000000000000000000F
:1001F0000000000000000000D3030008D303000843
:10020000D3030008D303000800000000D303000854
:10021000D3030008D3030008D3030008D303000866
:10022000D303000800000000D30300080000000012
:10023000D3030008D303000800000000D303000824
:10024000D3030008D3030008D3030008D303000836
:10025000D3030008D3030008D3030008D303000826
:10026000D3030008D3030008D3030008D303000816
:10027000D3030008D3030008D303000800000000E4
:10028000D3030008D3030008D3030008D3030008F6
:1002900000000000D3030008D303000800000000A2
:1002A00000000000D3030008D3030008D3030008B4
:1002B000D3030008D3030008D3030008A9350008BE
:1002C000B9350008D3030008D303000800F002F892
:1002D00000F060F80AA090E8000C82448344AAF180
:1002E0000107DA4501D100F055F8AFF2090EBAE87E
:1002F0000F0013F0010F18BFFB1A43F0010318475A
:1003000030360200503602000A444FF0000C10F85C
:10031000013B13F0070408BF10F8014B1D1108BF83
:1003200010F8015B641E05D010F8016B641E01F823
:10033000016BF9D113F0080F1EBF10F8014BAD1C73
:100340000C1B09D16D1E58BF01F801CBFAD505E091
:1003500014F8016B01F8016B6D1EF9D59142D6D3EB
:10036000704700000023002400250026103A28BF13
:1003700078C1FBD8520728BF30C148BF0B60704717
:100380001FB522F016FA9DE8030000F0E5F91FBD45
:1003900010B510BD00F04CFA1146FFF7F1FF1EF04A
:1003A000E7FF00F06AFA03B4FFF7F2FF03BC00F0C6
:1003B0009BFA00000A4880470A4880470A480047DD
:1003C000FEE7FEE7FEE7FEE7FEE7FEE7FEE7FEE705
:1003D000FEE7FEE705480649064A074B704700005E
:1003E00041350008F9710108CD020008A0ED012493
:1003F000A0050224A0F50124A0F5012470B506464D
:1004000000F08EF9056806F10B0020F00704B442F5
:100410009CBF002070BD2B466A68BAB11068A0422C
:1004200010D304F1080188423CBF5068586007D3DC
:100430005168101941601168091B0160586014600F
:10044000101D70BD13465268002AE7D12146284688
:1004500000F06EF90028DED170BD70B50446051FAE
:1004600000F05EF90068002C14BF446870BD002CD9
:1004700018BFAC423CBF20466468F8D301680A1834
:10048000AA4218BF456003D12A680546114401609D
:1004900028684119A1421CBF6C6070BD6168696029
:1004A00021680844286070BD53EA020C00F069809E
:1004B0002DE9F04B4FF00006002B1FBFB3FA83F578
:1004C00003FA05F424FA05F65E4012BF1643B2FAA9
:1004D00082F502FA05F4C5F120051EBF22FA05FCDB
:1004E00044EA0C04203556EA044C4FEA144418BF81
:1004F000641C4FF000084FF00009904271EB030CB0
:1005000039D3002919BFB1FA81F701FA07F6B0FA19
:1005100080F700FA07F6C7F120071EBF20FA07FC94
:1005200046EA0C062037B6FBF4FCA7EB0507103FA4
:1005300007F01F0BCBF120062CFA06F60CFA0BFB8A
:1005400044BFB3460026202FA4BF5E464FF0000BE9
:100550005BEA060C08BF4FF0010B19EB0B0948EBE7
:100560000608ABFB027C06FB02CC0BFB03CCC01BDA
:1005700071EB0C01C1E70B46024641464846BDE817
:10058000F08B13B5084318BF4FF0FF300146AFF3AF
:100590000080BDE81C407047032A40F2308010F014
:1005A000030C00F0158011F8013BBCF1020F62440E
:1005B00098BF11F801CB00F8013B38BF11F8013B9F
:1005C000A2F1040298BF00F801CB38BF00F8013B4C
:1005D00011F0030300F02580083AC0F0088051F8BC
:1005E000043B083A51F804CBA0E80810F5E7121DC7
:1005F0005CBF51F8043B40F8043BAFF30080D207E6
:1006000024BF11F8013B11F801CB48BF11F8012BB1
:1006100024BF00F8013B00F801CB48BF00F8012BD4
:10062000704710B5203AC0F00B80B1E81850A0E830
:100630001850B1E81850A0E81850203ABFF4F5AFB0
:100640005FEA027C24BFB1E81850A0E8185044BF0C
:1006500018C918C0BDE810405FEA827C24BF51F879
:10066000043B40F8043B08BF7047D20728BF31F86D
:10067000023B48BF11F8012B28BF20F8023B48BFBE
:1006800000F8012B70474FF000020429C0F01280DF
:1006900010F0030C00F01B80CCF1040CBCF1020F35
:1006A00018BF00F8012BA8BF20F8022BA1EB0C010A
:1006B00000F00DB85FEAC17C24BF00F8012B00F800
:1006C000012B48BF00F8012B70474FF0000200B526
:1006D000134694469646203922BFA0E80C50A0E865
:1006E0000C50B1F12001BFF4F7AF090728BFA0E813
:1006F0000C5048BF0CC05DF804EB890028BF40F8DF
:10070000042B08BF704748BF20F8022B11F0804F20
:1007100018BF00F8012B7047704770477047000002
:100720000048704790020024704770477047704738
:1007300038B504460A4600206946AFF30080002819
:1007400008BF38BD02460099204600F04FF801204E
:1007500038BD012000F064B8F8B5AFF3008005465D
:1007600000200C46102000BF0646A819A0420DD953
:10077000324669460020AFF30080070008BF00F052
:100780004FF80098A04218BF0546C419FFF7C8FFEC
:1007900005600746F01D20F007004619284600F0C6
:1007A0000AF8B44208BFF8BDA21B31463868BDE85C
:1007B000F84000F01BB800210160C0E9011070474B
:1007C0001020704710B500F00DF8006810BD10B58E
:1007D000044600F007F8046010BD000000487047B0
:1007E00088020024004870478802002403464068BD
:1007F0008C46002818BF88423CBF03464068F8D3A7
:1008000018681844884207D00CF1030020F0070054
:10081000001D411A521A0146081D0A60FFF71DBE4D
:1008200010B500F039F8BDE8104000F02FB870475F
:100830007546FFF7D3FFAE4605006946534620F0E4
:100840000700854618B020B5FFF7C4FDBDE820407D
:100850004FF000064FF000074FF000084FF0000B7C
:10086000AC46ACE8C009ACE8C009ACE8C009ACE8EB
:10087000C00921F007018D46704710B50446AFF35B
:1008800000802046BDE81040FFF78DBD002801D054
:1008900000F02AB87047000010B5012805D00021EB
:1008A00003A000F027F8012010BD09A1F8E700001F
:1008B00053494752544D454D3A204F7574206F6649
:1008C0002068656170206D656D6F727900000000B1
:1008D0003A2048656170206D656D6F727920636F95
:1008E000727275707465640001491820ABBEFEE732
:1008F0002600020070B505460C460A2000E06D1C7B
:1009000000F011F835B128780028F8D102E0641C15
:1009100000F009F814B120780028F8D1BDE8704043
:100920000A20AFF3008008B569468DF80000032067
:10093000ABBE08BD0000000080B584B003900291FA
:100940000020ADF80600039820B1FFE702980228C6
:1009500001D8FFE71AE003980299023940F2AC028D
:10096000C2F20042128803F067F8ADF80600BDF845
:100970000600039A0299114401F8020C9DF8070041
:10098000039A0299114401F8010CFFE704B080BDFD
:1009900080B544F28C00C2F200404EF6A401C2F2CF
:1009A00001414FF480720FF0F7FB43F2D860C2F2BE
:1009B000004000681021C4F20201884200F0B280B9
:1009C000FFE743F2D860C2F2004000682821C4F279
:1009D0000201884200F0A680FFE743F2D860C2F22D
:1009E000004000684021C4F20201884200F09A8071
:1009F000FFE743F2D860C2F2004000685821C4F219
:100A00000201884200F08E80FFE743F2D860C2F214
:100A1000004000687021C4F20201884200F0828028
:100A2000FFE743F2D860C2F2004000688821C4F2B8
:100A30000201884276D0FFE743F2D860C2F200405C
:100A40000068A021C4F2020188426BD0FFE743F2A4
:100A5000D860C2F200400068B821C4F202018842A6
:100A600060D0FFE743F2D860C2F20040006840F275
:100A70001041C4F20201884254D0FFE743F2D8602B
:100A8000C2F20040006840F22841C4F202018842EC
:100A900048D0FFE743F2D860C2F20040006840F25D
:100AA0004041C4F2020188423CD0FFE743F2D860E3
:100AB000C2F20040006840F25841C4F2020188428C
:100AC00030D0FFE743F2D860C2F20040006840F245
:100AD0007041C4F20201884224D0FFE743F2D8609B
:100AE000C2F20040006840F28841C4F2020188422C
:100AF00018D0FFE743F2D860C2F20040006840F22D
:100B0000A041C4F2020188420CD0FFE743F2D86052
:100B1000C2F20040006840F2B841C4F202018842CB
:100B20000AD1FFE743F2D860C2F2004001680868CA
:100B300020F00800086009E043F2D860C2F20040EB
:100B40000168086820F004000860FFE780BD00002D
:100B500080B584B04EF6A400C2F201400078AB2804
:100B600063D1FFE74EF6A400C2F2014090F83F00C7
:100B7000FD285AD1FFE700208DF80F00FFE79DF810
:100B80000F0003281CDCFFE79DF80F104EF6A400B1
:100B9000C2F2014000EB41025078927840EA022014
:100BA00001EB411241F62831C2F2004101EBC201D2
:100BB0004884FFE79DF80F0001308DF80F00DEE755
:100BC0004EF6A400C2F201400090417A827A41EAD6
:100BD000022140F26612C2F20042118002A9019184
:100BE000C17A019A1170017B019A5170417B019A7F
:100BF0009170817B019AD170029941F62832C2F23C
:100C00000042C2F8DC1400F10F0140F62820C2F2C5
:100C100000401E22FFF7C0FC009890F83E0040F212
:100C20000831C2F200410870FFE704B080BD000047
:100C300080B58AB04EF6A411C2F20141AA20087014
:100C400000208DF82700FFE79DF82700032824DC0B
:100C5000FFE79DF8273003EB431141F62830C2F23D
:100C60000040203000EBC1018A7A4EF6A411C2F296
:100C7000014101EB43035A709DF8272002EB421318
:100C800000EBC300C07A01EB42018870FFE79DF8DA
:100C9000270001308DF82700D6E741F62830C2F250
:100CA000004000F58862069292ED030A9FEDA31AB8
:100CB0008DED071A20EE010ABDEEC00A10EE103AC3
:100CC0004EF6A411C2F2014108914B7292ED030A53
:100CD00020EE010ABDEEC00A10EE103A1B0A8B721C
:100CE00092ED040A20EE010ABDEEC00A10EE103AA1
:100CF000CB7292ED040A20EE010ABDEEC00A10EE9E
:100D0000103A1B0A0B7392ED2A0A20EE010ABDEE7F
:100D1000C00A10EE103A4B7392ED2A0A20EE010A37
:100D2000BDEEC00A10EE103A1B0A8B7392ED2E0A2C
:100D300020EE010ABDEEC00A10EE103ACB7392ED20
:100D40002E0A20EE010ABDEEC00A10EE102A120A89
:100D50000A7490F83005487441F61430C2F200402D
:100D6000007888744EF64C20C2F2014090ED000AE3
:100D7000BCEEC00A10EE100AC8740020087545F6D3
:100D8000A000C2F20040B0F91201002808D4FFE729
:100D900045F6A000C2F20040B0F91201059008E04B
:100DA00045F6A000C2F20040B0F9120140420590A1
:100DB000FFE7059800EE100AB8EEC00A8DED040AB0
:100DC00045F6A000C2F20040B0F91A02002808D48B
:100DD000FFE745F6A000C2F20040B0F91A02039006
:100DE00008E045F6A000C2F20040B0F91A02404205
:100DF0000390FFE79DED041A039800EE100AB8EE89
:100E0000C00AB6EE002A20EE020AA1EE020ABDEEEA
:100E1000C00A10EE100A4EF6A411C2F20141487544
:100E200045F6A000C2F20040B0F91201002808D433
:100E3000FFE745F6A000C2F20040B0F912010290AF
:100E400008E045F6A000C2F20040B0F912014042AD
:100E50000290FFE7029800EE100AB8EEC00A8DED8E
:100E6000010A45F6A000C2F20040B0F91A020028BB
:100E700008D4FFE745F6A000C2F20040B0F91A021C
:100E8000009008E045F6A000C2F20040B0F91A0256
:100E900040420090FFE79DED011A009800EE100A15
:100EA000B8EEC00AB6EE002A20EE020AA1EE020A4F
:100EB000BDEEC00A10EE100A000A4EF6A411C2F2EE
:100EC0000141887545F6A000C2F200400279CA755A
:100ED00090F84E0300F00100087641F62830C2F287
:100EE000004000F5AC6090ED000ABDEEC00A10EEC7
:100EF000102A4A7690ED000ABDEEC00A10EE100AE4
:100F0000000A887642F20820C2F2004090F89E0E55
:100F100000F00100C87640F2EC50C2F200400078C8
:100F200081F83E00FE2081F83F0044F28C00C2F2BE
:100F30000040402210F04CF90AB080BD00007A4415
:100F400080B540F60000C5F602000122114608F007
:100F50006FFD80BD0000000080B540F60000C5F6C2
:100F600002000121002208F063FD80BD00000000A6
:100F7000704700000000000080B540F60000C5F694
:100F800002000821012208F053FD80BD000000008E
:100F900080B540F60000C5F602000821002208F0E6
:100FA00047FD80BD00000000704700000000000009
:100FB00080B582B0ADF80600FFE7BDF80600411E1F
:100FC000ADF8061028B1FFE74FF47A7000F004F88E
:100FD000F3E702B080BD000086B0ADF81600002037
:100FE000049003900290019000904EF21400CEF213
:100FF000000000680090BDF81600C0EB0010400132
:1010000004904EF21800CEF2000000680390FFE753
:101010004EF21800CEF20000006802900298039988
:1010200088421ED0FFE702980399884207D2FFE763
:1010300003980299411A01980844019008E0009829
:101040000299401A03990144019808440190FFE76E
:101050000298039001980499884201D3FFE701E0C8
:10106000FFE7D5E706B0704780B582B000208DF865
:101070000700FFF77DFFFFF797FF1DF009FE014610
:101080009DF8070008438DF807001DF0C9FE0146D2
:101090009DF8070008438DF807009DF8070002B08F
:1010A00080BD00000000000080B588B00790069168
:1010B00005920020009004900390FFF74DFF9220CE
:1010C00000F00AF9122003A90191062200F0CCF8E1
:1010D000FFF736FF9DF80C009DF80D1040EA012047
:1010E000ADF80A00BDF90A0000EE100AB8EEC00A19
:1010F00040F2A000C2F2004090ED001A20EE010A7A
:10110000069981ED000A9DF80E109DF80F2041EA26
:101110000221ADF80A10BDF90A1000EE101AB8EE5F
:10112000C00A90ED001A20EE010A069981ED010A2D
:101130009DF810109DF8112041EA0221ADF80A1027
:10114000BDF90A1000EE101AB8EEC00A90ED001AB0
:1011500020EE010A069880ED020AFFF719FF0098B9
:101160000199082200F080F8FFF706FF9DF80C00B7
:101170000F2844D1FFE79DF80E009DF80F1040EABC
:101180000120ADF80A00BDF90A0000EE100AB8EE21
:10119000C00A40F2A400C2F2004090ED001A20EE16
:1011A000010A079981ED000A9DF810109DF81120A1
:1011B00041EA0221ADF80A10BDF90A1000EE101A3A
:1011C000B8EEC00A90ED001A20EE010A079981EDF1
:1011D000010A9DF812109DF8132041EA0221ADF892
:1011E0000A10BDF90A1000EE101AB8EEC00A90ED10
:1011F000001A20EE010A079880ED020AFFE7FFF7C8
:10120000ABFEA22000F068F8222003A9022200F021
:101210002BF8FFF795FE9DF80C009DF80D10C0000F
:1012200040EA5110ADF80A00BDF90A00B0F5806F30
:1012300007DBFFE7BDF80A00A0F50060ADF80A0083
:10124000FFE7BDF90A0000EE100AB8EEC01AB4EECE
:10125000002AB3EE070AA1EE020A059880ED000A03
:1012600008B080BD0000000080B584B08DF80F008C
:1012700002918DF807209DF80F0040F0800000F0EB
:101280002BF8FFE79DF8070070B1FFE7552000F04D
:1012900023F8029908700298013002909DF8070027
:1012A00001388DF80700EDE704B080BD00000000B4
:1012B00080B582B08DF8070000919DF8070040F0DE
:1012C000800000F009F8552000F006F80099087039
:1012D00002B080BD0000000080B582B08DF807002C
:1012E00069464FF47A70086043F68C60C2F20040A1
:1012F0000DF107010DF1060201230CF0DDFF9DF851
:10130000060002B080BD000080B582B08DF80700F5
:101310008DF806109DF80700FFF7DEFF9DF8060028
:10132000FFF7DAFF02B080BD80B582B043F61470DB
:10133000C2F20040042101910EF04AF945F2B46076
:10134000C2F200400090322114F01AFA0098019A7B
:1013500045F2C861C2F2004114F0AEF902B080BD9E
:1013600080B582B0ADF8060043F61470C2F20040BA
:1013700004210EF0F5FCBDF80600D0B1FFE7FFE751
:10138000BDF8060043F61471C2F200410A68D0624B
:10139000BDF80600C860FFE7BDF80600410843F647
:1013A0001470C2F200400268916304210EF010F93B
:1013B000FFE702B080BD000080B584B003908DF8D7
:1013C0000B1000200190FFE701989DF80B10884258
:1013D0000FDAFFE70398019900EB810145F2B46051
:1013E000C2F2004014F098F9FFE701980130019033
:1013F000EAE740F2E820C2F200400068022200233F
:1014000019461FF001FC04B080BD00000000000080
:10141000FFE7FEE70000000080B586B0059004916C
:1014200005980068029040F20121884206D0FFE74B
:101430000298A0F20220022822D35EE0049B93F8D7
:1014400000C059789A78D87841EA0C2140EA022203
:1014500093F804C0587940EA0C2093F90630EC4622
:10146000CCF8003003B245F6A000C2F200400830CC
:1014700009B212B201F050F8082002F045F83DE040
:1014800005980068A0F202208DF80F009DF80F006B
:1014900000EB401145F6A000C2F2004000EBC10095
:1014A00000F58870DDF810C09CF800E09CF8011091
:1014B0009CF802309CF8032041EA0E2142EA032204
:1014C0009CF804E09CF8053043EA0E239CF906C022
:1014D000EE46CEF800C01BB209B212B201F01CF801
:1014E0009DF80F000930C0B202F00EF89DF80F0011
:1014F0000930C0B202F008F800E0FFE706B080BD96
:1015000080B584B00390029103980068019011287F
:101510000ED0FFE70198122817D0FFE70198132893
:1015200020D0FFE7019840F20521884227D049E00A
:10153000029942F20820C2F2004000F530701DF01E
:1015400077FD052001F0E0FF3DE0029942F208201E
:10155000C2F2004000F598601DF06AFD062001F01F
:10156000D3FF30E0029942F20820C2F2004000F5B9
:10157000B7601DF0D1FD072001F0C6FF23E0029BFC
:1015800093F800C059789A78D87841EA0C2140EA5B
:10159000022293F804C0587940EA0C2093F90630EF
:1015A000EC46CCF8003003B242F20820C2F2004010
:1015B00000F56E7009B212B200F0AEFF042001F027
:1015C000A3FF00E0FFE704B080BD000000000000C2
:1015D00082B00190009101980068B0F5407F01D180
:1015E000FFE700E0FFE702B07047000000000000E6
:1015F00080B592B0002008900A900B9002210591CE
:101600000C91012106910D910E900F9043F2C8703C
:10161000C2F2004002900AA9049106F041FE059A28
:10162000089B029869460B60114606F0C5FE0699B4
:10163000089A029806F0F0FC089A02984FF00071A0
:10164000079106F0E9FC069A0298114606F0D4FDCF
:10165000029807F0ADFF049943F66800C2F200401B
:10166000039006F01DFE059A089B039869460B60DF
:10167000114606F0A1FE069A0398114606F0BCFD3D
:101680000699089A039806F0C7FC0799089A0398E8
:1016900006F0C2FC039807F08BFF049943F608108C
:1016A000C2F20040099006F0FBFD059A089B0998DC
:1016B00069460B60114606F07FFE069A09981146AE
:1016C00006F09AFD0699089A099806F0A5FC079974
:1016D000089A099806F0A0FC099807F069FF12B073
:1016E00080BD00000000000084B08DF80F00029162
:1016F000ADF806209DF80F000146009123281DD863
:101700000099DFE801F012131415161B1B1B1B1B9D
:101710001B1B1B1B1B1B1B1B1B1B1B1B1B1B1B1B19
:101720001B1B1B1B1B1B1718191A08E007E006E000
:1017300005E004E003E002E001E000E0FFE7002054
:1017400004B0704700000000002070470000000057
:1017500080B582B043F2B400C2F20040009041F282
:101760000E31C2F200410022019219F079F800987E
:1017700040F60E31C2F2004119F052F8019802B061
:1017800080BD00000000000080B584B0039002918D
:101790000398029909681CF017FB039943F2B400FF
:1017A000C2F20040019019F03BF8019818F0DCFFFC
:1017B000002004B080BD000083B0029001918DF83C
:1017C000032000208DF802009DF9020003B070474D
:1017D00080B586B00490ADF80E1000208DF80D0095
:1017E00043F2B400C2F20040D0F8BC02029002986A
:1017F000D0F8140220B1FFE701208DF8170013E0A4
:101800000499BDF80E2043F2B400C2F200400190EA
:1018100019F026F8019819F02FF98DF80D009DF8B0
:101820000D008DF81700FFE79DF8170006B080BD8A
:1018300080B588B041F62830C2F20040049000F52F
:10184000A4609FED6E0A15F037FC049890F88005AF
:1018500040B9FFE741F62830C2F20040D0F86005F9
:101860000790FFE79DED070A9FED651AB4EE410A68
:10187000F1EE10FA09DBFFE79DED070A9FED611A13
:1018800030EE010A8DED070AFFE79DED070A9FED97
:101890005E1AB4EE410AF1EE10FA09DAFFE79DEDA7
:1018A000070A9FED5A1A30EE010A8DED070AFFE78D
:1018B0004CF6CD40C3F6CC500690002005909DED2F
:1018C000070A9DED061AB4EE410AF1EE10FA09DDA1
:1018D000FFE79DED070A9DED061A30EE410A8DEDFA
:1018E000050A1EE09DED070A9DED061AB1EE411AAC
:1018F000B4EE410AF1EE10FA09DAFFE79DED070AAE
:101900009DED061A30EE010A8DED050A08E0002073
:10191000059041F62831C2F20041C1F84C05FFE7BD
:10192000FFE79DED050AF1EE400A41F62830C2F2CC
:101930000040039000F5A76002909FED300A13F07D
:10194000A7FD0299039891ED070A00F5886090EDD4
:101950003A1A30EE010A80ED020A90ED020A90ED8B
:10196000051AB1EE411AB4EE410AF1EE10FA0DDC9F
:10197000FFE741F62830C2F2004000F2544090EDFB
:10198000000AB1EE400A8DED010A2AE041F6283046
:10199000C2F2004000F5886090ED020A90ED051A51
:1019A000B4EE410AF1EE10FA0BDBFFE741F6283006
:1019B000C2F2004000F2544090ED000A8DED000AA2
:1019C0000AE041F62830C2F2004000F5896090ED4F
:1019D000000A8DED000AFFE79DED000A8DED010A7A
:1019E000FFE79DED010A41F62830C2F2004000F504
:1019F000896080ED000A08B080BD00BF00000000D3
:101A0000000034430000B4C3000034C30000B443FA
:101A100080B584B041F62830C2F2004090F88005CD
:101A2000002840F08480FFE741F62830C2F20040F1
:101A300000F59C6015F0A4FAB5EE400AF1EE10FA3C
:101A40000BDBFFE741F62830C2F2004000F59C6056
:101A500015F096FA8DED030A0CE041F62830C2F23B
:101A6000004000F59C6015F08BFAB1EE400A8DED58
:101A7000030AFFE79DED030A41F62830C2F2004059
:101A800000F24C4191ED001A80EE010A8DED020A40
:101A900000F59E6015F074FAB5EE400AF1EE10FA0A
:101AA0000BDBFFE741F62830C2F2004000F59E60F4
:101AB00015F066FA8DED010A0CE041F62830C2F20D
:101AC000004000F59E6015F05BFAB1EE400A8DED26
:101AD000010AFFE79DED020A9DED011A41F628304B
:101AE000C2F2004000F58A6090ED002A81EE021AF1
:101AF00030EE010A9FED1F1AB4EE410AF1EE10FA22
:101B00000BDDFFE741F62831C2F200414CF6CD4033
:101B1000C3F6CC60C1F8740508E041F62831C2F282
:101B200000414FF07E50C1F87405FFE708E041F630
:101B30002831C2F200414FF07C50C1F87405FFE734
:101B400041F62830C2F20040009000F2544191ED7D
:101B5000000A00F2745191ED001A20EE010A00F51E
:101B6000A46015F0A9FA0099D1F82805C1F8480435
:101B700004B080BDCDCC4C3D80B588B041F6283056
:101B8000C2F2004007900021C4F2D23101604160EE
:101B90000021C4F2962181600021C160016190EDB5
:101BA000000A90ED031AF0EE000ACDED050A80EE72
:101BB000200A30EE010A1FF003FEDDED050A07984A
:101BC0008DED060A90ED010A90ED041A80EE200AD0
:101BD00030EE010A1FF0F4FDB0EE401A9DED060A4A
:101BE00030EE010A20F040FA079880ED050A90EDEA
:101BF000020A9FED421A20EE011A9FED410A80EE83
:101C0000010A9FED401A20EE010A80ED060A00212C
:101C1000CCF27D31C0F8641500F2645090ED000AFA
:101C20009FED391AB4EE410AF1EE10FA0FDDFFE72D
:101C300041F62830C2F2004000F2645090ED000AF4
:101C40009FED321A30EE010A80ED000AFFE741F6FF
:101C50002830C2F20040029040F20A51A0F8681504
:101C600000F59C609FED2A0A8DED000ADFED290A40
:101C7000CDED030A15F08CF99DED000A0298DDED1B
:101C8000030A00F59E6015F083F90298DDED030A62
:101C900000F5A4609FED200A8DED010A15F078F99A
:101CA0009DED010A0298DDED030A00F5A06015F034
:101CB0006FF90298DDED030A00F5A2609FED170AA7
:101CC00015F066F942F20820C2F20040049000F6D6
:101CD00044000A2101F08CFE049800F5D660022130
:101CE00001F086FE049800F60850192101F080FEEC
:101CF00000F016F800F0D0F808B080BDDB0FC94046
:101D0000000070423C3C7C410000B4430000B4C37E
:101D10000000204200000000CDCCCC3D9A99193E35
:101D200080B582B041F62830C2F20040009000F544
:101D3000A7609FED0F0ADFED0F0ACDED010AB1EEAE
:101D4000081AF1EE001AB2EE0E2A13F081FB009889
:101D5000DDED011A00F2B440B2EE042AB0EE610AE1
:101D6000F0EE610AB0EE611A13F072FB02B080BDB2
:101D7000CDCC4C3E0000000081B045F63C00C2F2E4
:101D80000040807A032808D1FFE741F62831C2F2EB
:101D90000041002081F8800500E0FFE741F628308F
:101DA000C2F2004090F88005D8BBFFE740F2641013
:101DB000C2F200400078C00790B3FFE741F6283038
:101DC000C2F2004090F870050146009120B1FFE793
:101DD0000098012811D021E045F63C00C2F20040F5
:101DE000407A022808D1FFE741F62831C2F20041CB
:101DF000012081F87005FFE711E045F63C00C2F2D2
:101E00000040407A032808D1FFE741F62831C2F2AA
:101E10000041002081F87005FFE700E0FFE7FFE7E1
:101E200000E0FFE701B0704783B002908DF8071023
:101E30008DF806200298013801460091072826D81F
:101E40000099DFE801F0040C241C2424241441F63A
:101E50002831C2F20041FF2081F8340518E041F634
:101E60002831C2F20041012081F8360510E041F628
:101E70002831C2F20041012081F8370508E041F61F
:101E80002831C2F20041FF2081F8350500E0FFE76C
:101E900003B070470000000080B586B041F62963AA
:101EA000C0F600030F20009000210391022204924B
:101EB00014F066F80098039941F61973C0F6000310
:101EC0000322019214F05CF80399049A41F6897395
:101ED000C0F600034FF4986014F052F80399049A86
:101EE00042F23143C0F600034FF4804014F048F84A
:101EF000019A039949F62173C0F601030593102056
:101F0000029014F03DF802980399049A059B14F08E
:101F100037F806B080BD000083B002908DF807103E
:101F20008DF806200298013801460091072826D82E
:101F30000099DFE801F0040C241C2424241441F649
:101F40002831C2F20041002081F8340518E041F642
:101F50002831C2F20041002081F8360510E041F638
:101F60002831C2F20041002081F8370508E041F62F
:101F70002831C2F20041002081F8350500E0FFE77A
:101F800003B070470000000080B584B003908DF866
:101F90000B108DF80A2041F62830C2F2004090F86C
:101FA000700540B1FFE741F62831C2F20041002040
:101FB00081F8700541E003980190402804D0FFE7C4
:101FC0000198802816D036E041F62830C2F2004051
:101FD000009000F5A76013F02BFA0098012180F81B
:101FE000701500F2544191ED000A00F5A46015F05F
:101FF00063F821E041F62830C2F2004000F5AB6002
:1020000090ED000AB5EE400AF1EE10FA0AD1FFE7B2
:1020100041F62831C2F200410020C4F27010C1F82C
:10202000580507E041F62831C2F200410020C1F80E
:102030005805FFE700E0FFE7FFE704B080BD0000C0
:1020400081B041F62830C2F200400021CCF27D314F
:10205000C0F8641500F2645090ED000A9FED2D1A4F
:10206000B4EE410AF1EE10FA0FDBFFE741F628303B
:10207000C2F2004000F2645090ED000A9FED261A73
:1020800030EE010A80ED000AFFE741F62830C2F287
:10209000004000F2645090ED000AB5EE400AF1EE07
:1020A00010FA0FDAFFE741F62830C2F2004000F2E2
:1020B000645090ED000A9FED171A30EE010A80ED92
:1020C000000AFFE70020ADF80200BDF80200B0B939
:1020D000FFE742F20820C2F20040D0F8041341F6B4
:1020E0002830C2F2004000F5A760416390ED0B1A62
:1020F00090ED0D0A30EE410A80ED0A0A07E041F644
:102100002831C2F200410020C1F86005FFE701B0AC
:10211000704700BF0000B4430000B4C300000000DB
:1021200080B594B041F62830C2F20040119000F51D
:10213000AC600E9090ED000A9FED7A1A8DED0F1AAB
:1021400020EE010A9FED781A8DED101A80EE010A3B
:10215000B7EEC00A1FF068FE0E989DED0F2A9DEDA8
:10216000101AB7EEC00B8DED130A90ED000A20EEA9
:10217000020A80EE010AB7EEC00A1FF021FAB7EE9C
:10218000C00B8DED120A00F0D3F8119890F870058D
:10219000012819D1FFE741F62830C2F2004000F2D1
:1021A000745191ED001A00F5886090ED030A20EE5D
:1021B000010A80ED030A91ED001A90ED040A20EE69
:1021C000010A80ED040AFFE740F26410C2F2004009
:1021D0000078C007B8B3FFE745F63C00C2F2004004
:1021E0000A90B0F9040000EE100AB8EEC00A41F6F9
:1021F0002830C2F200400D9000F588610B9191EDFE
:10220000031A20EE010A9FED491A8DED0C1A80EE9B
:10221000010A00F59C6014F04FFF0A9A0B999DED9E
:102220000C1A0D98B2F9062000EE102AB8EEC00A7A
:1022300091ED042A20EE020A80EE010A00F59E606C
:1022400014F03AFF2CE041F62830C2F20040099029
:1022500000F58861089191ED040A90F9341590F920
:102260003625114401EE101AB8EEC11A20EE010A0B
:1022700000F59E6014F020FF0899099891ED030A7B
:1022800090F9371590F93525114401EE101AB8EE82
:10229000C11A20EE010A00F59C6014F00DFFFFE763
:1022A00041F62830C2F20040009000F588610791A5
:1022B00000F59C60039014F063FE00988DED020A17
:1022C0009DED120A8DED010A00F59E60049014F058
:1022D00057FE9DED012A9DED021A039807999DED89
:1022E000133A20EE030A91EE420A81ED000A14F03F
:1022F00047FE04988DED060A9DED130A8DED050A43
:1023000014F03EFE9DED052A9DED061A07989DED01
:10231000123A20EE030AA1EE420A80ED010A14B03F
:1023200080BD00BFDB0F494000003443000025445E
:1023300080B584B041F62830C2F20040019000F52B
:102340009C6014F039FE019800F58861029100F557
:102350009E6014F031FE019800F5A46014F02CFE8C
:102360000199029891ED000A91ED011A30EE010AEF
:10237000B1EE001A80EE010A8DED030A40F26612FA
:10238000C2F20042138800EE103AB8EEC00A9FED88
:10239000263A80EE030AB7EEC00A9FED1D2B80EEB1
:1023A000020B30EE000B9FED1C1B20EE010B91ED9C
:1023B000024AB7EEC44A20EE040BB7EEC00B80ED24
:1023C000030AC368C1F85034128800EE102AB8EE30
:1023D000C00A9DED034A80EE040A80EE030AB7EEC0
:1023E000C00A80EE020B30EE000B20EE010B91EDE7
:1023F000021AB7EEC11A20EE010B9FED091B80EE09
:10240000010BB7EEC00B80ED050A04B080BD00BF24
:10241000C3F5285C8FC22D4000000060FB210940FD
:1024200000000080BE9FF63F0000704200000000E8
:1024300082B001908DF803108DF8022041F628300B
:10244000C2F2004090F8300540B9FFE741F628316C
:10245000C2F20041012081F8300510E041F6283039
:10246000C2F2004090F83005012808D1FFE741F69C
:102470002831C2F20041002081F83005FFE702B0A8
:10248000704700000000000080B584B003908DED1F
:10249000020ACDED010A8DED001A039850309DED32
:1024A000020ADDED010A9DED001AB1EE411A12F0AB
:1024B000DFFE039890ED190ADDED000A12F0E8FF47
:1024C0000399C869C1F8800004B080BD0000000015
:1024D00087B006908DED050ACDED040A8DED031A47
:1024E000CDED021A8DED012ACDED002A0598069951
:1024F00008600498069948600398069988600298D5
:102500000699C862019806998862009806994862FF
:1025100007B070470000000080B583B0844605987E
:10252000CDF808C0ADF80610ADF80420ADF80230C3
:102530008DF80100BDF8060002990880BDF804007E
:1025400002994880BDF80200029988809DF8010038
:102550000299887103B080BD80B543F29030C2F219
:10256000004003F021FC80BD80B543F20840C2F278
:10257000004003F019FC80BD80B543F2F840C2F280
:10258000004003F011FC80BD80B543F27050C2F2F0
:10259000004003F009FC80BD80B543F28040C2F2E8
:1025A000004003F001FC80BD80B543F25070C2F2E0
:1025B000004003F0F9FB80BD80B543F2D860C2F261
:1025C000004003F0F1FB80BD80B543F2E850C2F259
:1025D000004003F0E9FB80BD80B543F26060C2F2C9
:1025E000004003F0E1FB80BD83B0029002980168D7
:1025F00001201022C4F202029142009000F0A38058
:10260000FFE70298016801202822C4F202029142E9
:10261000009000F09880FFE70298016801204022B6
:10262000C4F202029142009000F08D80FFE7029810
:10263000016801205822C4F202029142009000F089
:102640008280FFE70298016801207022C4F2020232
:102650009142009077D0FFE702980168012088221C
:10266000C4F20202914200906DD0FFE70298016827
:102670000120A022C4F202029142009063D0FFE741
:10268000029801680120B822C4F20202914200902F
:1026900059D0FFE702980168012040F21042C4F2CD
:1026A0000202914200904ED0FFE70298016801209B
:1026B00040F22842C4F202029142009043D0FFE768
:1026C00002980168012040F24042C4F202029142A5
:1026D000009038D0FFE702980168012040F258428C
:1026E000C4F20202914200902DD0FFE702980168E7
:1026F000012040F27042C4F202029142009022D0C6
:10270000FFE702980168012040F28842C4F2020209
:102710009142009017D0FFE702980168012040F233
:10272000A042C4F20202914200900CD0FFE702984E
:1027300000684FF64831CBF6FD710844B0FA80F0DE
:1027400040090090FFE70098C00740B3FFE70298F8
:10275000007810384AF6AB21CAF6AA21A0FB011076
:1027600000090190019800F0070142F66850C0F698
:102770000200405C0299C8650198042807D3FFE76E
:1027800002990868042262F30900886506E002994C
:10279000086840F2FF3290438865FFE705E0029940
:1027A000086820F0FF008865FFE70298806D03B09D
:1027B000704700000000000084B003900398006898
:1027C000019003980168012045F20842C5F6020213
:1027D000914200904ED0FFE703980168012045F236
:1027E0001C42C5F602029142009043D0FFE70398D5
:1027F0000168012045F23042C5F602029142009084
:1028000038D0FFE703980168012045F24442C5F63D
:102810000202914200902DD0FFE703980168012049
:1028200045F25842C5F602029142009022D0FFE7DD
:1028300003980168012045F26C42C5F602029142FC
:10284000009017D0FFE703980168012045F280420D
:10285000C5F60202914200900CD0FFE70398006891
:102860004AF66C31CAF2FD710844B0FA80F04009B2
:102870000090FFE70098C00710B3FFE703980078C7
:1028800008384CF6CD41CCF6CC41A0FB0110000934
:102890000290029945F60000C5F6020000EB8100A7
:1028A00003990866039945F68000C5F6020048665C
:1028B000029800F01F01012088400399886635E0E6
:1028C0000398007810384AF6AB21CAF6AA21A0FB7B
:1028D000011000090290019840F2B841C4F20201CF
:1028E00088420CD8FFE7019840F21041C4F202017F
:1028F000884204D3FFE7029808300290FFE702996C
:1029000040F60000C4F2020000EB81000399086663
:10291000039940F68000C4F202004866029800F075
:102920001F010120884003998866FFE704B07047C3
:1029300083B002900298007901900198002800F07D
:102940008A80FFE70198082800F28580FFE7029857
:102950000168012045F20842C5F60202914200904A
:102960004ED0FFE702980168012045F21C42C5F6EF
:1029700002029142009043D0FFE7029801680120D3
:1029800045F23042C5F602029142009038D0FFE78E
:1029900002980168012045F24442C5F602029142C4
:1029A00000902DD0FFE702980168012045F25842BF
:1029B000C5F602029142009022D0FFE7029801681A
:1029C000012045F26C42C5F602029142009017D0F8
:1029D000FFE702980168012045F28042C5F6020235
:1029E000914200900CD0FFE7029800684AF66C31E3
:1029F000CAF2FD710844B0FA80F040090090FFE788
:102A00000098C00780B1FFE7019945F6FC00C5F6C4
:102A1000020000EB81000299C866029945F6401059
:102A2000C5F6020008670FE0019940F6FC00C4F209
:102A3000020000EB81000299C866029940F640103E
:102A4000C4F202000867FFE70198411E0120884098
:102A500002994867FFE703B07047000000000000DC
:102A600085B0049000208DF80F000498806918BB91
:102A7000FFE70498806A029003281BD80299DFE8D8
:102A800001F0020D0218049890F82F00C00720B141
:102A9000FFE701208DF80F00FFE70CE00498C06A03
:102AA000B0F1C07F04D1FFE701208DF80F00FFE7F0
:102AB00001E000E0FFE747E004988069B0F5005FBF
:102AC00026D1FFE70498806A019003281ED8019957
:102AD000DFE801F00206021101208DF80F0016E078
:102AE000049890F82F00C00720B1FFE701208DF86F
:102AF0000F00FFE70BE00498C06AB0F1C07F04D17B
:102B0000FFE701208DF80F00FFE700E0FFE71AE084
:102B10000498806A0090032804D3FFE700980328F4
:102B200004D00EE001208DF80F000BE0049890F81F
:102B30002F00C00720B1FFE701208DF80F00FFE74D
:102B400000E0FFE7FFE7FFE79DF80F0005B07047E3
:102B500089B008900791069205930898806D0490BB
:102B60000898806D03900898016801201022C4F233
:102B700002029142029000F00381FFE70898016889
:102B800001202822C4F202029142029000F0F88053
:102B9000FFE70898016801204022C4F20202914236
:102BA000029000F0ED80FFE70898016801205822AC
:102BB000C4F202029142029000F0E280FFE708981E
:102BC000016801207022C4F202029142029000F0DA
:102BD000D780FFE70898016801208822C4F202022A
:102BE0009142029000F0CC80FFE708980168012034
:102BF000A022C4F202029142029000F0C180FFE7DD
:102C0000089801680120B822C4F2020291420290A1
:102C100000F0B680FFE708980168012040F21042FA
:102C2000C4F202029142029000F0AA80FFE70898E5
:102C30000168012040F22842C4F20202914202904F
:102C400000F09E80FFE708980168012040F24042B2
:102C5000C4F202029142029000F09280FFE70898CD
:102C60000168012040F25842C4F2020291420290EF
:102C700000F08680FFE708980168012040F270426A
:102C8000C4F20202914202907AD0FFE708980168EC
:102C9000012040F28842C4F20202914202906FD0B9
:102CA000FFE708980168012040F2A042C4F2020246
:102CB0009142029064D0FFE708980168012040F239
:102CC000B842C4F202029142029059D0FFE708983C
:102CD0000168012045F20842C5F6020291420290C5
:102CE0004ED0FFE708980168012045F21C42C5F666
:102CF00002029142029043D0FFE708980168012048
:102D000045F23042C5F602029142029038D0FFE708
:102D100008980168012045F24442C5F6020291423A
:102D200002902DD0FFE708980168012045F2584233
:102D3000C5F602029142029022D0FFE7089801688E
:102D4000012045F26C42C5F602029142029017D072
:102D5000FFE708980168012045F28042C5F60202AB
:102D6000914202900CD0FFE7089800684AF66C3157
:102D7000CAF2FD710844B0FA80F040090290FFE702
:102D80000298C00770B1FFE70898416E806E4860F6
:102D90000898C06E28B1FFE70898016F406F48603F
:102DA000FFE7FFE70898016801201022C4F2020241
:102DB0009142019000F0A380FFE70898016801208C
:102DC0002822C4F202029142019000F09880FFE7AD
:102DD0000898016801204022C4F202029142019049
:102DE00000F08D80FFE70898016801205822C4F2A6
:102DF00002029142019000F08280FFE7089801688A
:102E000001207022C4F202029142019077D0FFE7C4
:102E10000898016801208822C4F2020291420190C0
:102E20006DD0FFE7089801680120A022C4F20202D9
:102E30009142019063D0FFE7089801680120B82211
:102E4000C4F202029142019059D0FFE7089801684C
:102E5000012040F21042C4F20202914201904ED091
:102E6000FFE708980168012040F22842C4F20202FC
:102E70009142019043D0FFE708980168012040F299
:102E80004042C4F202029142019038D0FFE7089814
:102E90000168012040F25842C4F2020291420190BE
:102EA0002DD0FFE708980168012040F27042C4F27B
:102EB00002029142019022D0FFE7089801680120A8
:102EC00040F28842C4F202029142019017D0FFE71B
:102ED00008980168012040F2A042C4F20202914227
:102EE00001900CD0FFE7089800684FF64831CBF608
:102EF000FD710844B0FA80F040090190FFE70198A5
:102F0000C00750B3FFE70898C06D00F01F013F20D5
:102F100088400499886008980168086820F4802037
:102F200008600598089909684860089880684028F2
:102F300009D1FFE7069808990968886007980899F9
:102F40000968C86008E007980899096888600698C9
:102F500008990968C860FFE782E0089801680120C5
:102F600045F20842C5F60202914200904ED0FFE7BA
:102F700008980168012045F21C42C5F60202914200
:102F8000009043D0FFE708980168012045F23042E5
:102F9000C5F602029142009038D0FFE70898016818
:102FA000012045F24442C5F60202914200902DD024
:102FB000FFE708980168012045F25842C5F6020271
:102FC0009142009022D0FFE708980168012045F265
:102FD0006C42C5F602029142009017D0FFE70898B4
:102FE0000168012045F28042C5F60202914200903C
:102FF0000CD0FFE7089800684AF66C31CAF2FD7100
:103000000844B0FA80F040090090FFE70098C0073C
:1030100020B3FFE70898C06D00F01F010120884031
:10302000039948600598089909684860089880687D
:10303000402809D1FFE70698089909688860079831
:1030400008990968C86008E00798089909688860C5
:10305000069808990968C860FFE700E0FFE7FFE706
:1030600009B070470000000080B584B00390029161
:1030700003990878497840EA01206FF3DF2002992C
:10308000088002990888A0F5806008800399487834
:103090008978C00840EA41106FF3DF200299488028
:1030A00002994888A0F58060488003998878CA789A
:1030B0000979800940EA820040EA81206FF3DF202D
:1030C0000299888002998888A0F580608880039999
:1030D00008794979400840EAC1106FF3DF2002996E
:1030E000C8800299C888A0F58060C8800298B0F9AD
:1030F000000000EE100AB8EEC00ADFED3F0ACDED89
:10310000010A00F005F9DDED010ABDEEC00A10EE7E
:10311000100A029908800298B0F9020000EE100A25
:10312000B8EEC00A00F0F4F8DDED010ABDEEC00A09
:1031300010EE100A029948800298B0F9040000EEDF
:10314000100AB8EEC00A00F0E3F8DDED010ABDEEAA
:10315000C00A10EE100A029988800298B0F90600A1
:1031600000EE100AB8EEC00A00F0D2F8BDEEC00AB8
:1031700010EE100A0299C8800299087A88720299A2
:10318000487AC872039840798009029908720398B6
:103190004079C0F301100299487203998879C9797E
:1031A00040EA0120029988810399087A497A40EA25
:1031B00001200299C8810399887AC97A40EA0120DE
:1031C000029908820398007B029988740398407BD7
:1031D0000299C8740399887BC97B40EA012002994F
:1031E00088820399087C497C40EA0120A0F5806030
:1031F0000299C88204B080BD000020420000000097
:1032000082B001900091019800880099088001988F
:1032100040880099488001988088009988800198AA
:10322000C08840420099C8800198007A009948728D
:103230000198407A009988720198807A00994873C1
:103240000198C07A00998873019880890099088252
:103250000198C089009948820198008A0099888263
:103260000198807C009988750198C07C0099C87588
:103270000198808A009908830198C08A0099488340
:1032800002B070470000000081B000904EF6FC5183
:10329000CEF20001086840F08070086041F204013D
:1032A000CEF200010020086041F20002CEF20002DE
:1032B000116841F001011160009944F24022C0F20E
:1032C0000F024A4340F2EC21C2F200410A600A6850
:1032D00044F6D353C1F26203A2FB0332920940F2D7
:1032E000F023C2F200431A6009684DF68362C4F20B
:1032F0001B32A1FB0221890C40F2F422C2F20042EF
:10330000116040F2F821C2F20041086001B070473C
:1033100083B08DED010ACDED000A9DED010A9DED12
:10332000001AB1EE411AB4EE410AF1EE10FA0DDDC9
:10333000FFE79DED010A9DED001AB4EE410AF1EEA2
:1033400010FA03DAFFE70020029002E001980290F1
:10335000FFE79DED020A03B0704700000000000087
:10336000704700000000000080B582B08DF80700B3
:103370009DF807000C2818D1FFE745F69800C2F227
:1033800000400168013101600068022801D8FFE7B0
:103390000BE045F69800C2F2004000680B2801D30C
:1033A000FFE7FFE7FDF7F4FAFFE702B080BD00009A
:1033B00081B08DF8030001B07047000000000000EC
:1033C00080B584B0642101910023039318461A4606
:1033D00000F06EF80199039B012000901A4600F05E
:1033E00067F80199039B02201A4600F061F80199E1
:1033F000039B03201A4600F05BF80199039B04200D
:103400001A4600F055F80199039B05201A4600F072
:103410004FF80199039B06201A4600F049F80199DC
:10342000039B07201A4600F043F800980199039B7C
:1034300042F2C002C2F2004282F8580082F86C00E8
:1034400008201A4600F034F80199039B09201A4617
:1034500000F02EF80199039B0A201A4600F028F884
:10346000039B0B204FF4FA7102911A4600F020F8EA
:103470000199039B0C201A4600F01AF80299039B4D
:1034800042F6E122C0F601020D2000F011F8019988
:10349000039B0E201A4600F00BF80299039B0F20A5
:1034A0001A4600F005F804B080BD000000000000DE
:1034B00084B08DF80F0002910192009302989DF85C
:1034C0000F1001EB810242F2C001C2F2004141F84B
:1034D00022009DF80F0000EB800001EB800200202D
:1034E000107201989DF80F2002EB820201EB82021C
:1034F000D06000989DF80F2002EB820201EB820160
:10350000086104B07047000080B582B08DF80700F4
:1035100006F0A6FA9DF8071001EB810242F2C00105
:10352000C2F2004101EB8201486002B080BD0000A0
:1035300081B0EFF3108072B60090FFE7FEE7000065
:1035400044F60C01C5F60201086840F0020008606C
:10355000FFE744F60400C5F6020000688004002876
:1035600001D4FFE7F5E7704780B543F2C870C2F2B7
:10357000004005F059F980BD80B543F2C870C2F231
:10358000004005F051F980BD80B543F66800C2F2F5
:10359000004005F049F980BD80B543F66800C2F2ED
:1035A000004005F041F980BD80B543F60810C2F235
:1035B000004005F039F980BD80B543F60810C2F22D
:1035C000004005F031F980BD84B002900298406B54
:1035D000009002980068D0F884004FF6FC71884390
:1035E000009940EA810002990968C1F884000298B4
:1035F0000068D0F8840020F47F00029A1168926B72
:1036000040EA0240C1F884000298816B00980844A7
:10361000009002980068D0F888006FF38F0000993E
:1036200040EA810002990968C1F8880002980068A0
:10363000D0F8880020F4FE00029A1168D26B40EAAC
:103640000240C1F888000298C16B009800EB41006D
:10365000009002980068D0F8A0006FF38F000099E6
:1036600040EA810002990968C1F8A0000298006848
:10367000D0F8A00020F4FE00029A1168126C40EA13
:103680000240C1F8A0000299086C496C009A00FB46
:103690000120009002980068D0F8B0006FF38F000E
:1036A000009940EA810002990968C1F8B0000298C7
:1036B0000068D0F8B00020F4FE00029A1168926C05
:1036C00040EA0240C1F8B0000299886CC96C009AC7
:1036D00000FB0120009002980068D0F8AC006FF366
:1036E0008F00009940EA810002990968C1F8AC0096
:1036F0000299086D496D009A00FB01200090029824
:103700000068D0F8F0006FF38F00009940EA810064
:1037100002990968C1F8F00002980068D0F8F0003A
:1037200020F47C10029A1168926D40EA0240C1F8C0
:10373000F0000298816D009800EB41000090029823
:103740000068D0F8C0006FF38F00009940EA810054
:1037500002990968C1F8C00002980068D0F8C0005A
:1037600020F47C10029A1168D26D40EA0240C1F840
:10377000C00002980068D0F8C00020F07C50029A87
:103780001168126E40EA0260C1F8C00002994A6BEB
:103790004AF60040C4F2000000EB8200C8660299BD
:1037A0008A6BC86E00EB820008670299CA6B086FCB
:1037B00000EBC200486702990A6C4B6C486F5A4391
:1037C00000EB8200886702998A6CCB6C886F5A4341
:1037D00000EB8200C86702990A6D4B6DC86F5A43AF
:1037E00000EB8200C1F8800002998A6DD1F8800058
:1037F00000EBC200C1F884000299CA6D8B6ED1F84B
:1038000084005A4300EB8200C1F8880002990A6ED6
:103810008B6ED1F888005A4300EB8200C1F890000B
:103820000298D0F890004DF2FD31C4F200018842B8
:103830000FD3FFE70299D1F89C0040F02000C1F8B7
:103840009C000299032081F8980001208DF80F0058
:1038500017E00298C06E0190FFE701980299D1F835
:103860009010884208D2FFE7019900200860FFE726
:10387000019804300190F0E7FFE700208DF80F0079
:10388000FFE79DF80F0004B0704700000000000043
:1038900088B007900691059204930698406848B94D
:1038A000FFE70698016882680069104340EA81409A
:1038B000039009E006980168826800691043084394
:1038C00040F080400390FFE70698D0F820C0C16820
:1038D00042698369C06940EA0C601843104340EABA
:1038E000014002900798826ED0F8840004995143F9
:1038F00000EB810001900398019908600198043061
:10390000019002980199086001980430019000200C
:103910000090FFE700980699CA6842F65851C0F631
:103920000201895C88420DD2FFE705980099405852
:1039300001990860019804300190FFE70098043075
:103940000090E7E708B0704785B002A900910146F2
:103950000098049180ED010A00200290ADF8060065
:10396000FFE7BDF806000499B1F8901101398842CB
:103970001DDAFFE70098049ABDF8063002EB8301D8
:10398000496842F823100499BDF8062001EB820132
:1039900091ED001A90ED000A30EE010A80ED000A68
:1039A000FFE7BDF806000130ADF80600D9E7009842
:1039B0000399049AB2F8903102EB830242F8041C96
:1039C00090ED011A90ED000A30EE010A80ED000A38
:1039D00090ED000A0498B0F8900101EE100AB8EEDC
:1039E000C11A80EE010A05B0704700000000000017
:1039F00082B00190ADF80210BDF802000199A1F863
:103A000090010020ADF80000FFE7BDF80000BDF810
:103A1000021088420DDAFFE70199BDF8002000206E
:103A200041F82200FFE7BDF800000130ADF80000CA
:103A3000EBE702B07047000084B002900191ADF84E
:103A40000220029828B9FFE74FF6FF70ADF80E008C
:103A500021E0FFE70198411E0191B8B1FFE702980C
:103A6000411C029100788DF80100BDF802109DF80C
:103A700001004840C2B243F22E70C0F6020030F896
:103A8000120080EA1120ADF80200E3E7BDF8020061
:103A9000ADF80E00FFE7BDF80E0004B0704700005F
:103AA00082B00190ADF802108DF80120FFE7BDF85B
:103AB0000200411EADF8021098B1FFE79DF8010029
:103AC00001994A1C0192097848408DF800009DF840
:103AD000001042F64840C0F60200405C8DF801003C
:103AE000E5E79DF8010002B070470000000000000B
:103AF00040F20040C2F2004090ED690A70470000B9
:103B000040F20040C2F2004090ED680A70470000A9
:103B100080B584B04EF60000C1F6F17000680390E5
:103B20004EF60400C1F6F170006802904EF60800EF
:103B3000C1F6F17000680190019903980844039060
:103B4000039888B1FFE7039840F22421C2F20041B4
:103B50000091023108220EF067FF0099029812319D
:103B600004220EF061FFFFE704B080BD00000000FA
:103B700040F20040C2F2004090ED6A0A7047000037
:103B800082B001908DF803108DF8022042F20820D7
:103B9000C2F2004090ED830A9FED1A1AB4EE410A7A
:103BA000F1EE10FA10DDFFE742F20821C2F2004107
:103BB0000020C4F2A000C1F80C020020C1F85C0192
:103BC000012081F89E0E1BE042F20820C2F2004064
:103BD00090ED830AB2EE0E1AB4EE410AF1EE10FA3D
:103BE0000DDAFFE742F20821C2F200410020C4F2E0
:103BF000BE20C1F80C02002081F89E0EFFE7FFE70F
:103C000002B070470000964280B540F26410C2F2E4
:103C100000400078C00718B1FFE700F0ADFA02E0FD
:103C200000F0B2F9FFE780BD80B542F20821C2F290
:103C30000041012081F89C0E4EF61820C2F201408E
:103C4000007880B1FFE745F6A000C2F200400121F4
:103C500080F8201390F8200300F0010013F030F9F1
:103C600000F0FEFE0FE045F6A000C2F20040002189
:103C700080F8201390F8200300F0010013F020F9E1
:103C800000F092FBFFE780BD80B542F20821C2F24E
:103C90000041012081F89C0E4EF61820C2F201402E
:103CA000007818B1FFE700F0DBFE02E000F064FAF4
:103CB000FFE780BD0000000080B584B042F208201C
:103CC000C2F2004003900021C4F270210191C0F8BB
:103CD00064110021CCF25011C0F86811002102914A
:103CE000C0F84C11D0F84C21C0F85C210022C4F27D
:103CF000BE22C0F814220023C4F2A003C0F8183278
:103D0000C0F8F821D0F8F821C0F80C2241604268D0
:103D1000C261C0F8A810D0F8A810C0F8C01000F612
:103D200008503221FFF764FE019A0298039981F846
:103D30009C0E4870C1F8A422C1F8A8024FF07E5230
:103D4000C1F8AC220022C4F22012C1F8B022002235
:103D5000CCF2A002C1F8B422C1F8B802012081F867
:103D6000BC0200F005F800F0FBF904B080BD0000D3
:103D700080B588B042F20820C2F20040059000F5FC
:103D8000BA70B1EE080ADFED4A0A9FED4A1ADFED7C
:103D90004A1A9FED4A2A8DED042A11F059FB9DED38
:103DA000042A059800F5E2709FED450ADFED450A0B
:103DB000CDED070A9FED441ADFED441ADFED442AEA
:103DC000FEF786FB059800F5CE70BFEE000ADFED2A
:103DD000410ABAEE001AF7EE001ACDED001AB2EE63
:103DE000042A8DED032A11F033FBDDED001A9DED61
:103DF000031A059800F511709FED370ADFED370AB9
:103E0000B2EE0E2A11F024FB9DED042A0598243011
:103E10009FED330ADFED330AB0EE0C1ADFED321AF4
:103E2000CDED011A11F014FB059874309FED2F0AA7
:103E3000DFED2F0A9FED2F1ADFED2F1A9FED2F2AAE
:103E4000DFED2F2AFEF744FBDDED011A05984C301B
:103E50009FED2C0ADFED2C0ACDED020A9FED2B1A07
:103E60009FED2B2A8DED062A11F0F2FADDED020A04
:103E70009DED031ADDED041A05989DED062AC83064
:103E80009FED240A11F0E4FA05989DED062ADDED78
:103E9000072A00F58C709FED200AF6EE000A9FEDD0
:103EA0001F1ADFED1F1AFEF713FB08B080BD00BF1D
:103EB00000000000CDCCCC3E0000FA4300C0DA4543
:103EC000000096423333333F0000F0420000484385
:103ED0009A99193F6F1283BA6666E63F6F12833A6A
:103EE0009A99B9400AD7A33C00007A4400001442D2
:103EF0008FC2F53C00002D4300002F440000FA441F
:103F00006666E63E0000A543CDCCCC3D00E02B46E6
:103F10000060EA460000484200008C430000F04385
:103F20000000C8420000000042F20820C2F2004037
:103F300000210170007828BBFFE745F63C00C2F283
:103F40000040B0F91A00B0F5C87F08DCFFE745F67D
:103F50003C00C2F20040C07D012809D1FFE742F2D7
:103F60000821C2F200410120487081F89C0E08E04F
:103F700042F20821C2F200410020487081F89C0EF4
:103F8000FFE700E0FFE7704780B588B042F2082005
:103F9000C2F2004090F89C0EC00768B1FFE742F201
:103FA0000821C2F200414DF20A70C3F6A330C1F8F5
:103FB000DC09C1F8D80910E042F20821C2F2004140
:103FC0004DF20A70C3F62330C1F8DC0944F2D04048
:103FD000C3F65830C1F8D809FFE745F63C00C2F2F5
:103FE00000400590B0F9100000EE100AB8EEC00ACB
:103FF00042F20820C2F20040079000F5D661069117
:1040000091EDCB1A20EE010A00F64400FFF79CFC6C
:1040100005990698079BB0EE401A93ED300A30EEF2
:10402000410A83ED300AD3F8C020DA61B1F91210E9
:1040300000EE101AB8EEC00A90EDCA1A20EE010A7E
:10404000FFF782FC0798B0EE401A90ED570A30EE69
:10405000010A80ED570A90ED830A90ED861AB4EEBE
:10406000410AF1EE10FA09DCFFE742F20820C2F241
:10407000004090ED860A8DED040A24E042F208200B
:10408000C2F2004090ED830A90ED851AB4EE410A29
:10409000F1EE10FA09DBFFE742F20820C2F200401D
:1040A00090ED850A8DED030A08E042F20820C2F285
:1040B000004090ED830A8DED030AFFE79DED030AB2
:1040C0008DED040AFFE79DED040A42F20820C2F2DA
:1040D000004080ED830A90ED570A90ED5A1AB4EE35
:1040E000410AF1EE10FA09DCFFE742F20820C2F2C1
:1040F000004090ED5A0A8DED020A24E042F20820B9
:10410000C2F2004090ED570A90ED591AB4EE410A00
:10411000F1EE10FA09DBFFE742F20820C2F200409C
:1041200090ED590A8DED010A08E042F20820C2F232
:10413000004090ED570A8DED010AFFE79DED010A61
:104140008DED020AFFE79DED020A42F20820C2F25D
:10415000004080ED570A08B080BD0000000000005C
:1041600080B543F68133C0F600034FF400500021C0
:10417000022211F005FF80BD85B045F63C01C2F278
:104180000041B1F9000000EE100AB8EEC00A9FED40
:10419000821A20EE010A9FED811A80EE011A42F286
:1041A0000820C2F20040049090ED300A30EE010A7F
:1041B00080ED300AD0F8C020C261B1F9021000EEE3
:1041C000101AB8EEC00B9FED701B20EE010B9FED97
:1041D000701B80EE011B90ED570AB7EEC00A30EE5F
:1041E000010BB7EEC00B80ED570A90ED570A90ED2A
:1041F0005A1AB4EE410AF1EE10FA09DCFFE742F276
:104200000820C2F2004090ED5A0A8DED030A24E026
:1042100042F20820C2F2004090ED570A90ED591A80
:10422000B4EE410AF1EE10FA09DBFFE742F2082092
:10423000C2F2004090ED590A8DED020A08E042F208
:104240000820C2F2004090ED570A8DED020AFFE708
:104250009DED020A8DED030AFFE79DED030A42F290
:104260000820C2F2004080ED570A45F63C00C2F239
:104270000040407A012838D1FFE745F63C00C2F201
:104280000040407B032830D1FFE745F6A000C2F292
:10429000004090F82003C00738BBFFE742F2082037
:1042A000C2F2004090ED830A9FED3D1AB4EE410A40
:1042B000F1EE10FA0DDAFFE742F20821C2F20041F6
:1042C0000020C4F2BE20C1F80C02002081F89E0E2E
:1042D0000AE042F20821C2F200410020C1F80C02BB
:1042E000012081F89E0EFFE7FFE745F63C01C2F290
:1042F0000041487A487342F20820C2F2004090ED33
:10430000830A90ED861AB4EE410AF1EE10FA09DC48
:10431000FFE742F20820C2F2004090ED860A8DEDE0
:10432000010A24E042F20820C2F2004090ED830A24
:1043300090ED851AB4EE410AF1EE10FA09DBFFE7C1
:1043400042F20820C2F2004090ED850A8DED000A8D
:1043500008E042F20820C2F2004090ED830A8DEDA1
:10436000000AFFE79DED000A8DED010AFFE79DEDD4
:10437000010A42F20820C2F2004080ED830A05B033
:10438000704700BF00BF00BF666666666666D63FC0
:104390000000000000A084409A9999BE00002544C6
:1043A000000048420000000080B588B042F20820BA
:1043B000C2F20040029090EDA90A9FED433A20EE30
:1043C000030A8DED070A9DED071A90ED300A30EED5
:1043D000010A80ED300AD0F8C010C16190EDAA0A40
:1043E00090EDAB2A9FED391A22EE012AA2EE030AC4
:1043F00080EDAA0A90EDAA0AB4EE410AF1EE10FA95
:104400000DDDFFE742F20820C2F2004090EDAA0A5B
:104410009FED2F1A30EE010A80EDAA0AFFE742F263
:104420000820C2F20040019090EDAA0A90EDAC1A6B
:104430008DED001A1AF0E8FB9DED001A0198B0EE20
:10444000402A90EDAD0AA1EE020A8DED060A90F821
:10445000BC0258B1FFE7069842F20821C2F20041BF
:10446000C1F8B802002081F8BC02FFE79DED060A02
:1044700042F20821C2F2004191EDAE1A30EE410A3B
:104480008DED050A9DED060A91ED571A30EE410AB1
:104490008DED040A9DED040A9FED0E1A20EE010A2F
:1044A0008DED030A9DED050A9DED031A30EE011A0C
:1044B00091ED570A30EE010A81ED570A0698C1F8CE
:1044C000B80208B080BD00BF6F12833ADB0FC9404D
:1044D000DB0FC9C00AD7A33C80B584B040F2A83135
:1044E000C2F2004191ED050AB1EE400A42F2082005
:1044F000C2F20040029080ED2F0A4A6BC0F8AC2057
:1045000090ED2B0AB0F9B823A2F6381201EE102A6A
:10451000B8EEC11A9FEDE82A81EE021A9FEDE72A54
:10452000A1EE020A80ED020AD0F8E422826191ED48
:10453000040AB1EE400A80ED560A096BC0F850112A
:10454000D0F8FC15C0F8001290ED540A00F59861FF
:1045500091ED081A9FEDDA2A31EE021A9FEDD92A61
:10456000A1EE020A9FEDD81A30EE010A80ED7F0A13
:10457000D0F8DC25C0F8082291ED110A9FEDD32A6E
:1045800030EE020A30EE410A9FEDD11A30EE013AC8
:1045900090ED540A90ED802A30EE030A30EE420A84
:1045A00041F62831C2F2004101F5AF6181ED000A08
:1045B00090ED800AB4EE410AF1EE10FA0DDDFFE74E
:1045C00042F20820C2F2004090ED800A9FEDBB1A33
:1045D00030EE010A80ED800A1BE042F20820C2F2B0
:1045E000004090ED800A9FEDBB1AB4EE410AF1EE57
:1045F00010FA0DDAFFE742F20820C2F2004090ED17
:10460000800A9FEDB51A30EE010A80ED800AFFE7BF
:10461000FFE742F20820C2F2004090ED800A9FEDD1
:10462000E71AB4EE410AF1EE10FA1DDBFFE742F2A1
:104630000820C2F2004090ED800A9FEDE71AB4EE28
:10464000410AF1EE10FA0FDCFFE742F20821C2F254
:1046500000410020C4F27020C1F86C010020CCF2AF
:104660005010C1F8700171E042F20820C2F200401F
:1046700090ED800AB2EE041AB4EE410AF1EE10FA9F
:1046800028DBFFE742F20820C2F2004090ED800AEA
:104690009FEDD01AB4EE410AF1EE10FA1ADAFFE7F4
:1046A00042F20820C2F200400021C4F2BA21C0F850
:1046B0006C1190ED800ABBEE021A20EE010AB2EEF8
:1046C000041A80EE010A9FEDC51A30EE010A80ED52
:1046D0005C0A3AE042F20820C2F2004090ED800A03
:1046E000B2EE0E1AB4EE410AF1EE10FA1DDAFFE74F
:1046F00042F20820C2F2004090ED800AB9EE041A9E
:10470000B4EE410AF1EE10FA0FDBFFE742F20821A6
:10471000C2F200410020C4F2BA20C1F86C010020AE
:10472000C4F2B420C1F870010EE042F20821C2F2D6
:1047300000410020C4F2BA20C1F86C010020CCF284
:104740002010C1F87001FFE7FFE7FFE742F2082001
:10475000C2F20040019041F62831C2F2004101F559
:10476000AF6191ED002A90ED5B0A90ED801A30EE7A
:10477000020A9FED952A31EE421A30EE010A80EDD1
:10478000590A91ED003A90ED5C0A90ED801A30EEF6
:10479000030A31EE421A30EE010A80ED5A0A002176
:1047A000039190ED2B0A90ED2C1A30EE410A9FED0B
:1047B0008C1AB4EE410AF1EE10FA11DAFFE742F278
:1047C0000820C2F2004090ED2B0A90ED2C2A9FEDBC
:1047D000801A31EE421A30EE010A8DED030A30E004
:1047E00042F20820C2F2004090ED2B0A90ED2C1A04
:1047F00030EE410A9FED7B1AB4EE410AF1EE10FA59
:1048000011DDFFE742F20820C2F2004090ED2B0AD2
:1048100090ED2C1A9FED6B2A30EE020A30EE410A21
:104820008DED030A0CE042F20820C2F2004090ED48
:104830002B0A90ED2C1A30EE410A8DED030AFFE7AA
:10484000FFE79DED031A42F20820C2F2004090ED0E
:104850002D0A30EE010A80ED2D0AFFE742F2082012
:10486000C2F2004090ED2D1A90ED300A30EE410A70
:1048700001209FED561AB4EE410AF1EE10FA0090B5
:1048800015DAFFE742F20820C2F2004090ED2D0A4F
:1048900090ED301A30EE410A9FED4C1A0020B4EE34
:1048A000410AF1EE10FAA8BF01200090FFE700983E
:1048B000C007002851D011E0000000460000B4C33A
:1048C000905911BEE12E65420000B442BC1F02C1E6
:1048D00000003443000034C30000B44342F2082017
:1048E000C2F2004090ED2D1A90ED300A30EE410AF0
:1048F0009FED361AB4EE410AF1EE10FA0DDBFFE738
:1049000042F20820C2F2004090ED300A9FED2D1ACD
:1049100030EE010A80ED300AFFE742F20820C2F2D1
:10492000004090ED2D0A90ED301A30EE410A9FEDD7
:10493000271AB4EE410AF1EE10FA0DDBFFE742F25E
:104940000820C2F2004090ED300A9FED211A30EEAF
:10495000010A80ED300AFFE780E742F20820C2F248
:104960000040D0F8AC10C0F8B01090ED2D0AB0F9AE
:10497000B813A1F6381101EE101AB8EEC11A9FED66
:10498000102A81EE021A9FED0F2AA1EE020A80ED95
:10499000040A4EF61821C2F20141097800EE101AFD
:1049A000B8EE400A00F60850FEF7CEFF4EF64C2057
:1049B000C2F2014080ED000A04B080BD00007042E8
:1049C000000000460000B4C30000B44200003443BD
:1049D0000000B443000070420000C8420000BA4228
:1049E000000087C30000874345F2B060C2F2004078
:1049F000007841F62831C2F2004191F870158842E2
:104A000001D1FFE72AE041F62830C2F2004090F8D9
:104A1000701545F2B062C2F20042117090F8700554
:104A200001280DD1FFE742F20821C2F2004148F20D
:104A30000000C4F23B6048664FF07C5008650DE012
:104A400042F20821C2F200410020C4F27A404866D6
:104A50004CF6CD40C3F6CC500865FFE77047000028
:104A600080B586B0002048B9FFE74EF61820C2F2A4
:104A70000140406919F070FC40BB0DE04EF6182073
:104A8000C2F2014090ED050AB7EEC00A51EC100BDE
:104A900019F04AFCD0B9FFE7002048B9FFE74EF60D
:104AA0001820C2F20140006A19F056FC70B90EE0FD
:104AB0004EF61820C2F2014090ED080AB7EEC00A87
:104AC00051EC100B19F030FC08B1FFE74DE142F258
:104AD0000820C2F2004090ED300A9FEDA51A80EE4A
:104AE000010AB5EE400AF1EE10FA13DDFFE742F2DB
:104AF0000820C2F2004090ED300A9FED9D1A80EE32
:104B0000010AB6EE001A30EE010ABDEEC00A8DEDC4
:104B1000050A12E042F20820C2F2004090ED300A8D
:104B20009FED931A80EE010ABEEE001A30EE010AE4
:104B3000BDEEC00A8DED050AFFE79DED050AB8EE52
:104B4000C01A4EF61820C2F2014090ED050A9FED02
:104B5000882AA1EE020A42F20820C2F2004090ED3B
:104B6000301A30EE410A9FED831AB4EE410AF1EE9D
:104B700010FA13DDFFE79DED050AB8EEC02A4EF6E8
:104B80001820C2F2014090ED050A9FED791AA2EEBD
:104B9000010A30EE410A8DED040A42E09DED050A5E
:104BA000B8EEC01A4EF61820C2F2014090ED050A88
:104BB0009FED6F2AA1EE020A42F20820C2F20040E5
:104BC00090ED301A30EE410A9FED6B1AB4EE410AB7
:104BD000F1EE10FA13DAFFE79DED050AB8EEC02AF0
:104BE0004EF61820C2F2014090ED050A9FED601AC2
:104BF000A2EE010A30EE010A8DED040A10E09DEDEF
:104C0000050AB8EEC01A4EF61820C2F2014090ED27
:104C1000050A9FED572AA1EE020A8DED040AFFE76F
:104C2000FFE7049942F20820C2F20040C0F8C01029
:104C300090ED041A90ED2D0A30EE410A8DED030A35
:104C4000FFE79DED030A9FED4B1AB4EE410AF1EE2A
:104C500010FA09DDFFE79DED030A9FED481A30EEDB
:104C6000010A8DED030AECE7FFE79DED030A9FEDD6
:104C7000421AB4EE410AF1EE10FA09DAFFE79DEDAF
:104C8000030A9FED3B1A30EE010A8DED030AECE7B3
:104C90009DED030AB5EE400AF1EE10FA07DAFFE7E0
:104CA0009DED030AB1EE400A8DED030AFFE79DED8D
:104CB000030AB3EE021AB4EE410AF1EE10FA08DD6F
:104CC000FFE742F20821C2F20041D1F8C000C861FA
:104CD000FFE74EF61820C2F20140016A42F20820B6
:104CE000C2F20040C0F85C1190ED570A90ED5A1ADC
:104CF000B4EE410AF1EE10FA09DCFFE742F20820B7
:104D0000C2F2004090ED5A0A8DED020A24E042F210
:104D10000820C2F2004090ED570A90ED591AB4EE07
:104D2000410AF1EE10FA09DBFFE742F20820C2F275
:104D3000004090ED590A8DED010A08E042F208208A
:104D4000C2F2004090ED570A8DED010AFFE79DED9C
:104D5000010A8DED020AFFE79DED020A42F20820EA
:104D6000C2F2004080ED570AFFE706B080BD00BFE9
:104D70000000B44300003443000034C30000B4C357
:104D800080B58AB0089004F06BFE0490089828B9AA
:104D9000FFE701208DF8270000F0AABC089890F8E2
:104DA000350002280ED0FFE7089980204865FFE70C
:104DB0000899002081F83400FFE701208DF82700D2
:104DC00000F096BC0898016801201022C4F202028B
:104DD0009142039000F0A380FFE70898016801204A
:104DE0002822C4F202029142039000F09880FFE76B
:104DF0000898016801204022C4F202029142039007
:104E000000F08D80FFE70898016801205822C4F265
:104E100002029142039000F08280FFE70898016847
:104E200001207022C4F202029142039077D0FFE782
:104E30000898016801208822C4F20202914203907E
:104E40006DD0FFE7089801680120A022C4F2020299
:104E50009142039063D0FFE7089801680120B822CF
:104E6000C4F202029142039059D0FFE7089801680A
:104E7000012040F21042C4F20202914203904ED04F
:104E8000FFE708980168012040F22842C4F20202BC
:104E90009142039043D0FFE708980168012040F257
:104EA0004042C4F202029142039038D0FFE70898D2
:104EB0000168012040F25842C4F20202914203907C
:104EC0002DD0FFE708980168012040F27042C4F23B
:104ED00002029142039022D0FFE708980168012066
:104EE00040F28842C4F202029142039017D0FFE7D9
:104EF00008980168012040F2A042C4F202029142E7
:104F000003900CD0FFE7089800684FF64831CBF6C5
:104F1000FD710844B0FA80F040090390FFE7039860
:104F2000C00780B1FFE708980168086820F01E00FC
:104F3000086008980168486920F080004861089876
:104F40000068059009E008980168086820F00E00E4
:104F50000860089800680590FFE70898016801203C
:104F60001022C4F202029142029000F00381FFE796
:104F70000898016801202822C4F20202914202909E
:104F800000F0F880FFE70898016801204022C4F291
:104F900002029142029000F0ED80FFE7089801685C
:104FA00001205822C4F202029142029000F0E280F5
:104FB000FFE70898016801207022C4F202029142C2
:104FC000029000F0D780FFE708980168012088224E
:104FD000C4F202029142029000F0CC80FFE70898F0
:104FE00001680120A022C4F202029142029000F066
:104FF000C180FFE7089801680120B822C4F20202CC
:105000009142029000F0B680FFE708980168012005
:1050100040F21042C4F202029142029000F0AA80D3
:10502000FFE708980168012040F22842C4F202021A
:105030009142029000F09E80FFE7089801680120ED
:1050400040F24042C4F202029142029000F092808B
:10505000FFE708980168012040F25842C4F20202BA
:105060009142029000F08680FFE7089801680120D5
:1050700040F27042C4F20202914202907AD0FFE7FD
:1050800008980168012040F28842C4F2020291426D
:1050900002906FD0FFE708980168012040F2A0421B
:1050A000C4F202029142029064D0FFE708980168BE
:1050B000012040F2B842C4F202029142029059D05B
:1050C000FFE708980168012045F20842C5F6020290
:1050D000914202904ED0FFE708980168012045F206
:1050E0001C42C5F602029142029043D0FFE70898A5
:1050F0000168012045F23042C5F602029142029059
:1051000038D0FFE708980168012045F24442C5F60F
:105110000202914202902DD0FFE708980168012019
:1051200045F25842C5F602029142029022D0FFE7B2
:1051300008980168012045F26C42C5F602029142CE
:10514000029017D0FFE708980168012045F28042DD
:10515000C5F60202914202900CD0FFE70898006861
:105160004AF66C31CAF2FD710844B0FA80F0400989
:105170000290FFE70298C00738B1FFE70898016E78
:10518000086820F480700860FFE708980068102124
:10519000C4F20201884200F08180FFE708980068AD
:1051A0002821C4F20201884278D0FFE708980068FD
:1051B0004021C4F20201884270D0FFE708980068DD
:1051C0005821C4F20201884268D0FFE708980068BD
:1051D0007021C4F20201884260D0FFE7089800689D
:1051E0008821C4F20201884258D0FFE7089800687D
:1051F000A021C4F20201884250D0FFE7089800685D
:10520000B821C4F20201884248D0FFE7089800683C
:1052100040F21041C4F2020188423FD0FFE70898F3
:10522000006840F22841C4F20201884236D0FFE70C
:105230000898006840F24041C4F2020188422DD033
:10524000FFE70898006840F25841C4F20201884222
:1052500024D0FFE70898006840F27041C4F20201D0
:1052600088421BD0FFE70898006840F28841C4F2EA
:105270000201884212D0FFE70898006840F2A0417E
:10528000C4F20201884209D0FFE70898006840F2A2
:10529000B841C4F20201884207D1FFE708980168CB
:1052A000086820F00100086006E0089801680868B6
:1052B00020F001000860FFE7FFE705980068C007DD
:1052C000C8B1FFE704F0CCFB0499401A062811D3BB
:1052D000FFE70899202048650899032081F83500E8
:1052E000FFE70899002081F83400FFE701208DF8DE
:1052F0002700FDE1E1E70898016801201022C4F2CF
:1053000002029142019000F0A380FFE70898016833
:1053100001202822C4F202029142019000F09880FC
:10532000FFE70898016801204022C4F2020291427E
:10533000019000F08D80FFE7089801680120582255
:10534000C4F202029142019000F08280FFE70898C7
:10535000016801207022C4F202029142019077D0CC
:10536000FFE70898016801208822C4F202029142F6
:1053700001906DD0FFE7089801680120A022C4F2D7
:1053800002029142019063D0FFE708980168012072
:10539000B822C4F202029142019059D0FFE7089866
:1053A0000168012040F21042C4F2020291420190D1
:1053B0004ED0FFE708980168012040F22842C4F26D
:1053C00002029142019043D0FFE708980168012052
:1053D00040F24042C4F202029142019038D0FFE70D
:1053E00008980168012040F25842C4F2020291423A
:1053F00001902DD0FFE708980168012040F270422B
:10540000C4F202029142019022D0FFE7089801689D
:10541000012040F28842C4F202029142019017D06A
:10542000FFE708980168012040F2A042C4F202029E
:10543000914201900CD0FFE7089800684FF6483180
:10544000CBF6FD710844B0FA80F040090190FFE707
:105450000198C00760B1FFE70898806D0790089831
:10546000C06D00F01F013F208840079988600BE065
:105470000898806D06900898C06D00F01F0101200B
:10548000884006994860FFE70898016801201022CB
:10549000C4F202029142009000F00381FFE70898F5
:1054A000016801202822C4F202029142009000F01B
:1054B000F880FFE70898016801204022C4F2020248
:1054C0009142009000F0ED80FFE70898016801200C
:1054D0005822C4F202029142009000F0E280FFE7FD
:1054E0000898016801207022C4F2020291420090E3
:1054F00000F0D780FFE70898016801208822C4F2F5
:1055000002029142009000F0CC80FFE70898016809
:105510000120A022C4F202029142009000F0C1805A
:10552000FFE7089801680120B822C4F20202914204
:10553000009000F0B680FFE708980168012040F273
:105540001042C4F202029142009000F0AA80FFE7EC
:1055500008980168012040F22842C4F202029142F8
:10556000009000F09E80FFE708980168012040F25B
:105570004042C4F202029142009000F09280FFE7A4
:1055800008980168012040F25842C4F20202914298
:10559000009000F08680FFE708980168012040F243
:1055A0007042C4F20202914200907AD0FFE708985C
:1055B0000168012040F28842C4F202029142009048
:1055C0006FD0FFE708980168012040F2A042C4F2C2
:1055D00002029142009064D0FFE708980168012020
:1055E00040F2B842C4F202029142009059D0FFE763
:1055F00008980168012045F20842C5F6020291426E
:1056000000904ED0FFE708980168012045F21C4247
:10561000C5F602029142009043D0FFE70898016866
:10562000012045F23042C5F602029142009038D086
:10563000FFE708980168012045F24442C5F60202DE
:10564000914200902DD0FFE708980168012045F2B3
:105650005842C5F602029142009022D0FFE7089816
:105660000168012045F26C42C5F6020291420090A9
:1056700017D0FFE708980168012045F28042C5F67F
:105680000202914200900CD0FFE7089800684AF6A9
:105690006C31CAF2FD710844B0FA80F04009009004
:1056A000FFE70098C007A0B1FFE70898416E806E41
:1056B00048600898C06E58B1FFE70898C16E086846
:1056C00020F4807008600898016F406F4860FFE721
:1056D000FFE70899012081F83500FFE708990020CD
:1056E00081F83400FFE7FFE700208DF82700FFE78F
:1056F0009DF827000AB080BD80B586B0049004985C
:1057000020B9FFE701208DF8170046E3049890F8D0
:105710003500022807D0FFE7049980204865012062
:105720008DF8170039E30498016801201022C4F2B3
:1057300002029142029000F0A380FFE70498016802
:1057400001202822C4F202029142029000F09880C7
:10575000FFE70498016801204022C4F2020291424E
:10576000029000F08D80FFE7049801680120582224
:10577000C4F202029142029000F08280FFE7049896
:10578000016801207022C4F202029142029077D097
:10579000FFE70498016801208822C4F202029142C6
:1057A00002906DD0FFE7049801680120A022C4F2A6
:1057B00002029142029063D0FFE704980168012041
:1057C000B822C4F202029142029059D0FFE7049835
:1057D0000168012040F21042C4F20202914202909C
:1057E0004ED0FFE704980168012040F22842C4F23D
:1057F00002029142029043D0FFE704980168012021
:1058000040F24042C4F202029142029038D0FFE7D7
:1058100004980168012040F25842C4F20202914209
:1058200002902DD0FFE704980168012040F27042F9
:10583000C4F202029142029022D0FFE7049801686C
:10584000012040F28842C4F202029142029017D035
:10585000FFE704980168012040F2A042C4F202026E
:10586000914202900CD0FFE7049800684FF648314F
:10587000CBF6FD710844B0FA80F040090290FFE7D2
:105880000298C007002800F09D80FFE704990420DB
:1058900081F83500049800681021C4F202018842A2
:1058A00000F08180FFE7049800682821C4F202011B
:1058B000884278D0FFE7049800684021C4F20201D2
:1058C000884270D0FFE7049800685821C4F20201B2
:1058D000884268D0FFE7049800687021C4F2020192
:1058E000884260D0FFE7049800688821C4F2020172
:1058F000884258D0FFE704980068A021C4F2020152
:10590000884250D0FFE704980068B821C4F2020131
:10591000884248D0FFE70498006840F21041C4F282
:10592000020188423FD0FFE70498006840F2284116
:10593000C4F20201884236D0FFE70498006840F2C2
:105940004041C4F2020188422DD0FFE7049800686C
:1059500040F25841C4F20201884224D0FFE7049883
:10596000006840F27041C4F2020188421BD0FFE798
:105970000498006840F28841C4F20201884212D0C3
:10598000FFE70498006840F2A041C4F20201884297
:1059900009D0FFE70498006840F2B841C4F2020160
:1059A000884207D1FFE704980168086820F00100E9
:1059B000086006E004980168086820F001000860AB
:1059C000FFE7E5E104980168086820F00E00086030
:1059D000049800681021C4F20201884200F081801E
:1059E000FFE7049800682821C4F20201884278D0B9
:1059F000FFE7049800684021C4F20201884270D099
:105A0000FFE7049800685821C4F20201884268D078
:105A1000FFE7049800687021C4F20201884260D058
:105A2000FFE7049800688821C4F20201884258D038
:105A3000FFE704980068A021C4F20201884250D018
:105A4000FFE704980068B821C4F20201884248D0F8
:105A5000FFE70498006840F21041C4F20201884256
:105A60003FD0FFE70498006840F22841C4F20201E9
:105A7000884236D0FFE70498006840F24041C4F203
:105A8000020188422DD0FFE70498006840F2584197
:105A9000C4F20201884224D0FFE70498006840F273
:105AA0007041C4F2020188421BD0FFE704980068ED
:105AB00040F28841C4F20201884212D0FFE7049804
:105AC000006840F2A041C4F20201884209D0FFE719
:105AD0000498006840F2B841C4F20201884207D13C
