:020000040800F2
:1000000088100224D9030008E94C010831170108BF
:10001000F94B010871120008A9F401080000000062
:10002000000000000000000000000000C17E010888
:100030006933000800000000515C01086187010875
:10004000F7030008F7030008F7030008F7030008A8
:10005000F7030008F7030008F7030008F703000898
:10006000F7030008F7030008F703000861250008FC
:10007000712500088125000891250008A1250008A8
:10008000F7030008F7030008F703000871350008BC
:100090009135000881350008A1350008F7030008F4
:1000A000F7030008F7030008F7030008F703000848
:1000B000D9890108F7030008F7030008F7030008CF
:1000C000F7030008F7030008F7030008F703000828
:1000D000D17C010879B5010841B70108F703000890
:1000E000F7030008F703000800000000E989010891
:1000F000F7030008F7030008F7030008B12500081C
:10010000F7030008F7030008F7030008F7030008E7
:10011000F703000801A20108F7030008F70300082D
:10012000C1250008F7030008F7030008D1250008DF
:10013000E1250008F7030008F7030008F7030008AB
:1001400000000000000000000000000000000000AF
:10015000F7030008F7030008F7030008F703000897
:10016000F7030008F7030008F7030008F703000887
:10017000F7030008D1540108F7030008000000004D
:10018000F7030008F7030008F7030008F703000867
:10019000F7030008F7030008F7030008F703000857
:1001A000F7030008F7030008F70300080000000049
:1001B000F7030008F7030008F7030008F703000837
:1001C000F7030008F703000800000000000000002B
:1001D0000000000000000000F7030008000000001D
:1001E000000000000000000000000000000000000F
:1001F0000000000000000000F7030008F7030008FB
:10020000F7030008F703000800000000F7030008E8
:10021000F7030008F7030008F7030008F7030008D6
:10022000F703000800000000F703000800000000CA
:10023000F7030008F703000800000000F7030008B8
:10024000F7030008F7030008F7030008F7030008A6
:10025000F7030008F7030008F7030008F703000896
:10026000F7030008F7030008F7030008F703000886
:10027000F7030008F7030008F70300080000000078
:10028000F7030008F7030008F7030008F703000866
:1002900000000000F7030008F7030008000000005A
:1002A00000000000F7030008F7030008F703000848
:1002B000F7030008F7030008F7030008B13500084A
:1002C000C1350008F7030008F703000800F002F842
:1002D00000F072F814A696E8000CB244B344DA4574
:1002E00001D100F069F8BAE80F000FA696E83000D7
:1002F000A5EB040504EB0607AAEB0704A7F1010729
:100300004FEA15154FEA3414A4F10104AC4201D3AD
:1003100000F052F813F0010F18BFFB1A43F001036D
:1003200000F001F8DBE718471460020034600200B7
:100330000A444FF0000C10F8013B13F0070408BF0B
:1003400010F8014B1D1108BF10F8015B641E05D0A9
:1003500010F8016B641E01F8016BF9D113F0080F5E
:100360001EBF10F8014BAD1C0C1B09D16D1E58BFF0
:1003700001F801CBFAD505E014F8016B01F8016B27
:100380006D1EF9D59142D6D370470000704700002A
:100390000023002400250026103A28BF78C1FBD88E
:1003A000520728BF30C148BF0B6070471FB524F00B
:1003B00064FE1FBD10B510BD00F0FFF91146FFF738
:1003C000F5FF21F085F900F01DFA03B4FFF7F2FF05
:1003D00003BC00F021FA00000A4880470A48804721
:1003E0000A480047FEE7FEE7FEE7FEE7FEE7FEE716
:1003F000FEE7FEE7FEE7FEE705480649064A074B2B
:10040000704700004935000871880108CD020008D6
:1004100088F801248810022488000224880002241D
:10042000F0B400EB4003DFF8880000EBC30000F1FC
:1004300018063069F7687568874232D3B368DC1BE9
:10044000631E934214D37D19D01900BF11F8013BEC
:1004500005F8013B521E05D011F8013B05F8013BA0
:10046000521EF3D1BFF35F8FF0600120F0BC7047E4
:10047000C018904219D37819121B11F8013B00F8EB
:10048000013B641EF9D1141C05D011F8013B05F89D
:10049000013B521EF9D1BFF35F8FF4600120F0BC25
:1004A0007047C01B401E9042CDD20020F0BC704768
:1004B000381B002453EA020C00F069802DE9F04B50
:1004C0004FF00006002B1FBFB3FA83F503FA05F4C3
:1004D00024FA05F65E4012BF1643B2FA82F502FA1C
:1004E00005F4C5F120051EBF22FA05FC44EA0C0400
:1004F000203556EA044C4FEA144418BF641C4FF0F0
:1005000000084FF00009904271EB030C39D3002929
:1005100019BFB1FA81F701FA07F6B0FA80F700FACD
:1005200007F6C7F120071EBF20FA07FC46EA0C06B3
:100530002037B6FBF4FCA7EB0507103F07F01F0BB5
:10054000CBF120062CFA06F60CFA0BFB44BFB3469F
:100550000026202FA4BF5E464FF0000B5BEA060C7E
:1005600008BF4FF0010B19EB0B0948EB0608ABFB7A
:10057000027C06FB02CC0BFB03CCC01B71EB0C0115
:10058000C1E70B46024641464846BDE8F08B13B52D
:10059000084318BF4FF0FF300146AFF30080BDE8BD
:1005A0001C40704740EA010310B59B070FD1042A95
:1005B0000DD310C808C9121F9C42F8D020BA19BA2E
:1005C000884201D9012010BD4FF0FF3010BD1AB193
:1005D000D30703D0521C07E0002010BD10F8013BE8
:1005E00011F8014B1B1B07D110F8013B11F8014B0F
:1005F0001B1B01D1921EF1D1184610BD032A40F2F7
:10060000308010F0030C00F0158011F8013BBCF1B4
:10061000020F624498BF11F801CB00F8013B38BFCC
:1006200011F8013BA2F1040298BF00F801CB38BFDA
:1006300000F8013B11F0030300F02580083AC0F0F8
:10064000088051F8043B083A51F804CBA0E80810A0
:10065000F5E7121D5CBF51F8043B40F8043BAFF3D3
:100660000080D20724BF11F8013B11F801CB48BF2D
:1006700011F8012B24BF00F8013B00F801CB48BF63
:1006800000F8012B704710B5203AC0F00B80B1E89C
:100690001850A0E81850B1E81850A0E81850203AB7
:1006A000BFF4F5AF5FEA027C24BFB1E81850A0E8C0
:1006B000185044BF18C918C0BDE810405FEA827CDA
:1006C00024BF51F8043B40F8043B08BF7047D207F1
:1006D00028BF31F8023B48BF11F8012B28BF20F892
:1006E000023B48BF00F8012B704702F0FF0343EACA
:1006F000032242EA024200F024B84FF0000204292B
:10070000C0F0128010F0030C00F01B80CCF1040C40
:10071000BCF1020F18BF00F8012BA8BF20F8022B74
:10072000A1EB0C0100F00DB85FEAC17C24BF00F81A
:10073000012B00F8012B48BF00F8012B70474FF048
:10074000000200B5134694469646203922BFA0E821
:100750000C50A0E80C50B1F12001BFF4F7AF09072D
:1007600028BFA0E80C5048BF0CC05DF804EB89001E
:1007700028BF40F8042B08BF704748BF20F8022B61
:1007800011F0804F18BF00F8012B70477047704779
:10079000704710B500F00CF8006810BD10B50446A5
:1007A00000F006F8046010BD00487047880200247D
:1007B000004870478802002470477546FFF7F4FF31
:1007C000AE4605006946534620F00700854618B03E
:1007D00020B5FFF711FEBDE820404FF000064FF0B6
:1007E00000074FF000084FF0000BAC46ACE8C00922
:1007F000ACE8C009ACE8C009ACE8C00921F00701C9
:100800008D46704710B50446AFF300802046BDE822
:100810001040FFF7DABD000001491820ABBEFEE72B
:10082000260002000000000080B544F6B430C2F299
:1008300000404FF24431C2F201414FF480720FF098
:10084000FFFD44F20020C2F2004000681021C4F213
:100850000201884200F0B280FFE744F20020C2F2B9
:10086000004000682821C4F20201884200F0A680FE
:10087000FFE744F20020C2F2004000684021C4F2C9
:100880000201884200F09A80FFE744F20020C2F2A1
:10089000004000685821C4F20201884200F08E80B6
:1008A000FFE744F20020C2F2004000687021C4F269
:1008B0000201884200F08280FFE744F20020C2F289
:1008C000004000688821C4F20201884276D0FFE728
:1008D00044F20020C2F200400068A021C4F20201EC
:1008E00088426BD0FFE744F20020C2F2004000686B
:1008F000B821C4F20201884260D0FFE744F2002030
:10090000C2F20040006840F21041C4F20201884285
:1009100054D0FFE744F20020C2F20040006840F2E9
:100920002841C4F20201884248D0FFE744F2002087
:10093000C2F20040006840F24041C4F20201884225
:100940003CD0FFE744F20020C2F20040006840F2D1
:100950005841C4F20201884230D0FFE744F200203F
:10096000C2F20040006840F27041C4F202018842C5
:1009700024D0FFE744F20020C2F20040006840F2B9
:100980008841C4F20201884218D0FFE744F20020F7
:10099000C2F20040006840F2A041C4F20201884265
:1009A0000CD0FFE744F20020C2F20040006840F2A1
:1009B000B841C4F2020188420AD1FFE744F20020A4
:1009C000C2F200400168086820F00800086009E0F1
:1009D00044F20020C2F200400168086820F00400E0
:1009E0000860FFE780BD000080B584B04FF244305E
:1009F000C2F201400078AB2863D1FFE74FF24430E8
:100A0000C2F2014090F83F00FD285AD1FFE70020D4
:100A10008DF80F00FFE79DF80F0003281CDCFFE7AF
:100A20009DF80F104FF24430C2F2014000EB41023A
:100A30005078927840EA022001EB411242F2C05114
:100A4000C2F2004101EBC2014884FFE79DF80F00AC
:100A500001308DF80F00DEE74FF24430C2F2014062
:100A60000090417A827A41EA022140F26612C2F293
:100A70000042118002A90191C17A019A1170017B93
:100A8000019A5170417B019A9170817B019AD170DA
:100A9000029942F2C052C2F20042C2F8DC1400F1E4
:100AA0000F0140F62C20C2F200401E22FFF7A6FDE7
:100AB000009890F83E0040F20831C2F20041087000
:100AC000FFE704B080BD000080B58AB04FF244411A
:100AD000C2F20141AA20087000208DF82700FFE72C
:100AE0009DF82700032824DCFFE79DF8273003EB5F
:100AF000431142F2C050C2F20040203000EBC1016D
:100B00008A7A4FF24441C2F2014101EB43035A7029
:100B10009DF8272002EB421300EBC300C07A01EBE3
:100B200042018870FFE79DF8270001308DF827000B
:100B3000D6E742F2C050C2F2004000F58862069249
:100B400092ED030A9FEDA31A8DED071A20EE010A1C
:100B5000BDEEC00A10EE103A4FF24441C2F201411C
:100B600008914B7292ED030A20EE010ABDEEC00A15
:100B700010EE103A1B0A8B7292ED040A20EE010A65
:100B8000BDEEC00A10EE103ACB7292ED040A20EED0
:100B9000010ABDEEC00A10EE103A1B0A0B7392ED6B
:100BA0002A0A20EE010ABDEEC00A10EE103A4B737D
:100BB00092ED2A0A20EE010ABDEEC00A10EE103AAC
:100BC0001B0A8B7392ED2E0A20EE010ABDEEC00ABD
:100BD00010EE103ACB7392ED2E0A20EE010ABDEE14
:100BE000C00A10EE102A120A0A7490F830054874F0
:100BF00041F62030C2F20040007888744FF2E440A1
:100C0000C2F2014090ED000ABCEEC00A10EE100ADC
:100C1000C8740020087546F24030C2F20040B0F9B6
:100C20001201002808D4FFE746F24030C2F200402B
:100C3000B0F91201059008E046F24030C2F20040DF
:100C4000B0F9120140420590FFE7059800EE100A46
:100C5000B8EEC00A8DED040A46F24030C2F2004000
:100C6000B0F91A02002808D4FFE746F24030C2F279
:100C70000040B0F91A02039008E046F24030C2F298
:100C80000040B0F91A0240420390FFE79DED041ABC
:100C9000039800EE100AB8EEC00AB6EE002A20EE65
:100CA000020AA1EE020ABDEEC00A10EE100A4FF2CF
:100CB0004441C2F20141487546F24030C2F2004060
:100CC000B0F91201002808D4FFE746F24030C2F222
:100CD0000040B0F91201029008E046F24030C2F242
:100CE0000040B0F9120140420290FFE7029800EE86
:100CF000100AB8EEC00A8DED010A46F24030C2F289
:100D00000040B0F91A02002808D4FFE746F240304C
:100D1000C2F20040B0F91A02009008E046F24030FA
:100D2000C2F20040B0F91A0240420090FFE79DED88
:100D3000011A009800EE100AB8EEC00AB6EE002ABA
:100D400020EE020AA1EE020ABDEEC00A10EE100A61
:100D5000000A4FF24441C2F20141887546F2403028
:100D6000C2F200400279CA7590F84E0300F001000B
:100D7000087642F2C050C2F2004000F5AC6090ED3F
:100D8000000ABDEEC00A10EE102A4A7690ED000A65
:100D9000BDEEC00A10EE100A000A887642F69840AE
:100DA000C2F2004090F8360F00F00100C87640F221
:100DB000EC50C2F20040007881F83E00FE2081F83D
:100DC0003F0044F6B430C2F20040402210F05CFB19
:100DD0000AB080BD00007A4480B540F60000C5F638
:100DE00002000122114608F097FF80BD00000000BC
:100DF00080B540F60000C5F602000121002208F08F
:100E00008BFF80BD00000000704700000000000064
:100E100080B540F60000C5F602000821012208F066
:100E20007BFF80BD0000000080B540F60000C5F6E5
:100E300002000821002208F06FFF80BD00000000C2
:100E4000704700000000000080B582B0ADF80600D9
:100E5000FFE7BDF80600411EADF8061028B1FFE718
:100E60004FF47A7000F004F8F3E702B080BD0000A0
:100E700086B0ADF816000020049003900290019017
:100E800000904EF21400CEF2000000680090BDF811
:100E90001600C0EB0010400104904EF21800CEF294
:100EA000000000680390FFE74EF21800CEF2000049
:100EB000006802900298039988421ED0FFE70298CA
:100EC0000399884207D2FFE703980299411A0198D3
:100ED0000844019008E000980299401A03990144DF
:100EE000019808440190FFE7029803900198049943
:100EF000884201D3FFE701E0FFE7D5E706B070477E
:100F000080B582B000208DF80700FFF77DFFFFF766
:100F100097FF20F06DF801469DF8070008438DF813
:100F2000070020F02DF901469DF8070008438DF8D1
:100F300007009DF8070002B080BD0000000000001F
:100F400080B588B00790069105920020009004902B
:100F50000390FFF74DFF922000F00AF9122003A939
:100F60000191062200F0CCF8FFF736FF9DF80C0047
:100F70009DF80D1040EA0120ADF80A00BDF90A0005
:100F800000EE100AB8EEC00A40F2A000C2F2004023
:100F900090ED001A20EE010A069981ED000A9DF8F5
:100FA0000E109DF80F2041EA0221ADF80A10BDF99C
:100FB0000A1000EE101AB8EEC00A90ED001A20EEEA
:100FC000010A069981ED010A9DF810109DF8112083
:100FD00041EA0221ADF80A10BDF90A1000EE101A1C
:100FE000B8EEC00A90ED001A20EE010A069880EDD6
:100FF000020AFFF719FF00980199082200F080F813
:10100000FFF706FF9DF80C000F2844D1FFE79DF87D
:101010000E009DF80F1040EA0120ADF80A00BDF95E
:101020000A0000EE100AB8EEC00A40F2A400C2F2B4
:10103000004090ED001A20EE010A079981ED000AA8
:101040009DF810109DF8112041EA0221ADF80A1018
:10105000BDF90A1000EE101AB8EEC00A90ED001AA1
:1010600020EE010A079981ED010A9DF812109DF802
:10107000132041EA0221ADF80A10BDF90A1000EE72
:10108000101AB8EEC00A90ED001A20EE010A079877
:1010900080ED020AFFE7FFF7ABFEA22000F068F840
:1010A000222003A9022200F02BF8FFF795FE9DF8FD
:1010B0000C009DF80D10C00040EA5110ADF80A0078
:1010C000BDF90A00B0F5806F07DBFFE7BDF80A0045
:1010D000A0F50060ADF80A00FFE7BDF90A0000EED8
:1010E000100AB8EEC01AB4EE002AB3EE070AA1EE59
:1010F000020A059880ED000A08B080BD00000000DB
:1011000080B584B08DF80F0002918DF807209DF80E
:101110000F0040F0800000F02BF8FFE79DF807007B
:1011200070B1FFE7552000F023F80299087002988B
:10113000013002909DF8070001388DF80700EDE7B7
:1011400004B080BD0000000080B582B08DF80700BB
:1011500000919DF8070040F0800000F009F855204C
:1011600000F006F80099087002B080BD0000000091
:1011700080B582B08DF8070069464FF47A70086038
:1011800044F6B410C2F200400DF107010DF1060261
:1011900001230DF0E5F99DF8060002B080BD0000C6
:1011A00080B582B08DF807008DF806109DF8070015
:1011B000FFF7DEFF9DF80600FFF7DAFF02B080BD03
:1011C00080B582B0ADF8060044F63C20C2F2004083
:1011D00004210EF019FFBDF80600D0B1FFE7FFE7CC
:1011E000BDF8060044F63C21C2F200410A68D06214
:1011F000BDF80600C860FFE7BDF80600410844F6E8
:101200003C20C2F200400268916304210EF034FBDE
:10121000FFE702B080BD000080B584B003908DF878
:101220000B1000200190FFE701989DF80B108842F9
:101230000FDAFFE70398019900EB810146F22020C5
:10124000C2F2004014F058FDFFE701980130019010
:10125000EAE740F2E820C2F20040006802220023E0
:10126000194621F0F1FE04B080BD0000000000002E
:10127000FFE7FEE70000000080B586B0059004910E
:1012800005980068029040F20121884206D0FFE7ED
:101290000298A0F20220022822D35EE0049B93F879
:1012A00000C059789A78D87841EA0C2140EA0222A5
:1012B00093F804C0587940EA0C2093F90630EC46C4
:1012C000CCF8003003B246F24030C2F200400830A1
:1012D00009B212B201F024F9082002F019F93DE038
:1012E00005980068A0F202208DF80F009DF80F000D
:1012F00000EB401146F24030C2F2004000EBC1006A
:1013000000F58870DDF810C09CF800E09CF8011032
:101310009CF802309CF8032041EA0E2142EA0322A5
:101320009CF804E09CF8053043EA0E239CF906C0C3
:10133000EE46CEF800C01BB209B212B201F0F0F8CE
:101340009DF80F000930C0B202F0E2F89DF80F00DE
:101350000930C0B202F0DCF800E0FFE706B080BD63
:1013600080B584B003900291039800680190112821
:101370000ED0FFE70198122817D0FFE70198132835
:1013800020D0FFE7019840F20521884227D049E0AC
:10139000029942F69840C2F2004000F555701FF0E5
:1013A000F7FF052002F0B4F83DE0029942F69840BC
:1013B000C2F2004000F5AB601FF0EAFF062002F029
:1013C000A7F830E0029942F69840C2F2004000F5DA
:1013D000CA6020F051F8072002F09AF823E0029B3F
:1013E00093F800C059789A78D87841EA0C2140EAFD
:1013F000022293F804C0587940EA0C2093F9063091
:10140000EC46CCF8003003B242F69840C2F20040FD
:1014100000F58A6009B212B201F082F8042002F0ED
:1014200077F800E0FFE704B080BD00000000000096
:1014300082B00190009101980068B0F5407F01D121
:10144000FFE700E0FFE702B0704700000000000087
:1014500080B592B0002008900A900B90022105916F
:101460000C91012106910D910E900F9044F2F02005
:10147000C2F2004002900AA9049107F085F8059A8B
:10148000089B029869460B60114607F009F9069916
:10149000089A029806F034FF089A02984FF00071FB
:1014A000079106F02DFF069A0298114607F018F8EA
:1014B000029808F0F1F9049944F29030C2F2004029
:1014C000039007F061F8059A089B039869460B6042
:1014D000114607F0E5F8069A0398114607F000F860
:1014E0000699089A039806F00BFF0799089A039843
:1014F00006F006FF039808F0CFF9049944F2304053
:10150000C2F20040099007F03FF8059A089B09983D
:1015100069460B60114607F0C3F8069A0998114610
:1015200006F0DEFF0699089A099806F0E9FE079989
:10153000089A099806F0E4FE099808F0ADF912B08F
:1015400080BD00000000000084B08DF80F00029103
:10155000ADF806209DF80F000146009123281DD804
:101560000099DFE801F012131415161B1B1B1B1B3F
:101570001B1B1B1B1B1B1B1B1B1B1B1B1B1B1B1BBB
:101580001B1B1B1B1B1B1718191A08E007E006E0A2
:1015900005E004E003E002E001E000E0FFE70020F6
:1015A00004B07047000000000020704700000000F9
:1015B00080B582B043F6DC30C2F20040009041F2C8
:1015C0001931C2F20041002201921AF049FD00983F
:1015D00040F61931C2F200411AF022FD019802B022
:1015E00080BD00000000000080B584B0039002912F
:1015F0000398029909681DF0CBFF039943F6DC308C
:10160000C2F2004001901AF00BFD01981AF0ACFCF8
:10161000002004B080BD000083B0029001918DF8DD
:10162000032000208DF802009DF9020003B07047EE
:1016300080B586B00490ADF80E1000208DF80D0036
:1016400043F6DC30C2F20040D0F8BC0202900298AF
:10165000D0F8140220B1FFE701208DF8170013E045
:101660000499BDF80E2043F6DC30C2F20040019030
:101670001AF0F6FC01981AF0FFFD8DF80D009DF8A8
:101680000D008DF81700FFE79DF8170006B080BD2C
:1016900080B58AB042F2C050C2F20040069000F518
:1016A000A4609FED9C0A17F043F8069890F8840513
:1016B000002840F0D280FFE742F2C050C2F2004062
:1016C000D0F8600509909DED090A9FED931AB4EEDC
:1016D000410AF1EE10FA09DBFFE79DED090A9FEDE3
:1016E0008F1A30EE010A8DED090AFFE79DED090A18
:1016F0009FED8B1AB4EE410AF1EE10FA09DAFFE71A
:101700009DED090A9FED871A30EE010A8DED090A59
:10171000FFE74CF6CD40C3F6CC5008900020079070
:101720009DED090A9DED081AB4EE410AF1EE10FA9A
:1017300009DDFFE79DED090A9DED081A30EE410A2B
:101740008DED070A1EE09DED090A9DED081AB1EE28
:10175000411AB4EE410AF1EE10FA09DAFFE79DED05
:10176000090A9DED081A30EE010A8DED070A08E01E
:101770000020079042F2C051C2F20041C1F84C056E
:10178000FFE7FFE79DED070AF1EE400A42F2C05085
:10179000C2F20040059000F5A76004909FED5D0A3D
:1017A00014F076F90499059891ED070A00F5886020
:1017B00090ED3A1A30EE010A80ED020A90ED020A2D
:1017C00090ED051AB1EE411AB4EE410AF1EE10FAAD
:1017D0000DDCFFE742F2C050C2F2004000F254407C
:1017E00090ED000AB1EE400A8DED030A2AE042F2C4
:1017F000C050C2F2004000F5886090ED020A90ED02
:10180000051AB4EE410AF1EE10FA0BDBFFE742F2E3
:10181000C050C2F2004000F2544090ED000A8DED3D
:10182000020A0AE042F2C050C2F2004000F58960AC
:1018300090ED000A8DED020AFFE79DED020A8DEDA5
:10184000030AFFE79DED030A42F2C050C2F20040D6
:1018500000F5896080ED000A5AE04FF27450C2F240
:101860000140016842F2C050C2F2004000F58860B9
:10187000816090ED020A90ED051AB1EE411AB4EEC6
:10188000410AF1EE10FA0DDCFFE742F2C050C2F25D
:10189000004000F2544090ED000AB1EE400A8DED98
:1018A000010A2AE042F2C050C2F2004000F588600E
:1018B00090ED020A90ED051AB4EE410AF1EE10FA2D
:1018C0000BDBFFE742F2C050C2F2004000F254408E
:1018D00090ED000A8DED000A0AE042F2C050C2F21B
:1018E000004000F5896090ED000A8DED000AFFE7E9
:1018F0009DED000A8DED010AFFE79DED010A42F220
:10190000C050C2F2004000F5896080ED000AFFE798
:101910000AB080BD00000000000034430000B4C3E2
:10192000000034C30000B44380B584B042F2C0501C
:10193000C2F2004090F88405002840F08480FFE760
:1019400042F2C050C2F2004000F59C6016F054FE16
:10195000B5EE400AF1EE10FA0BDBFFE742F2C050A1
:10196000C2F2004000F59C6016F046FE8DED030AC1
:101970000CE042F2C050C2F2004000F59C6016F04C
:101980003BFEB1EE400A8DED030AFFE79DED030A31
:1019900042F2C050C2F2004000F24C4191ED001AF8
:1019A00080EE010A8DED020A00F59E6016F024FE1D
:1019B000B5EE400AF1EE10FA0BDBFFE742F2C05041
:1019C000C2F2004000F59E6016F016FE8DED010A91
:1019D0000CE042F2C050C2F2004000F59E6016F0EA
:1019E0000BFEB1EE400A8DED010AFFE79DED020A04
:1019F0009DED011A42F2C050C2F2004000F58A602B
:101A000090ED002A81EE021A30EE010A9FED1F1AB6
:101A1000B4EE410AF1EE10FA0BDDFFE742F2C051DD
:101A2000C2F200414CF6CD40C3F6CC60C1F8780557
:101A300008E042F2C051C2F200414FF07E50C1F8BE
:101A40007805FFE708E042F2C051C2F200414FF0D2
:101A50007C50C1F87805FFE742F2C050C2F2004066
:101A6000009000F2544191ED000A00F5AF6191ED54
:101A7000001A20EE010A00F5A46016F059FE009944
:101A8000D1F82805C1F8480404B080BDCDCC4C3D48
:101A900080B58AB042F2C050C2F2004009900021E5
:101AA000C4F2D231016041600021C4F2962181600C
:101AB0000021C160016190ED001A90ED030AB6EEBD
:101AC000002A8DED062A01EE020AF0EE000ACDEDA5
:101AD000070A22F0A5F99DED062ADDED070A09980F
:101AE0008DED080A90ED011A90ED040A01EE020A4C
:101AF00022F096F9B0EE401A9DED080A30EE010A88
:101B000022F0E2FD099880ED050A90ED020A9FEDB2
:101B1000421A20EE011A9FED410A80EE010A9FED64
:101B2000401A20EE010A80ED060A0021C4F2F621D7
:101B3000C0F8681500F5AD6090ED000A9FED391A08
:101B4000B4EE410AF1EE10FA0FDDFFE742F2C050A9
:101B5000C2F2004000F5AD6090ED000A9FED321A30
:101B600030EE010A80ED000AFFE742F2C050C2F2F7
:101B70000040039040F20A51A0F86C1500F59C60FB
:101B80009FED2A0A8DED010ADFED290ACDED040A49
:101B900016F03AFD9DED010A0398DDED040A00F50B
:101BA0009E6016F031FD0398DDED040A00F5A46097
:101BB0009FED200A8DED020A16F026FD9DED020A2A
:101BC0000398DDED040A00F5A06016F01DFD0398F2
:101BD000DDED040A00F5A2609FED170A16F014FD72
:101BE00042F69840C2F20040059000F6DC000A215F
:101BF00001F002FF059800F5E960022101F0FCFE0A
:101C0000059800F55A60322101F0F6FE00F018F850
:101C100000F09EF80AB080BDDB0FC94000007042A2
:101C20003C3C7C410000B4430000B4C300002042AF
:101C300000000000CDCCCC3D9A99193E0000000078
:101C400080B582B042F2C050C2F20040009000F570
:101C5000A7609FED0F0ADFED0F0ACDED010AB1EE8F
:101C6000081AF1EE001AB2EE0E2A13F0F1FE0098F7
:101C7000DDED011A00F2B440B2EE042AB0EE610AC2
:101C8000F0EE610AB0EE611A13F0E2FE02B080BD20
:101C9000CDCC4C3E0000000081B046F2E020C2F204
:101CA0000040807A0146009101280CD0FFE700989F
:101CB000032810D1FFE742F2C051C2F200410120D7
:101CC00081F8840508E042F2C051C2F200410020D0
:101CD00081F88405FFE7FFE701B0704700000000CE
:101CE00083B002908DF807108DF806200298013815
:101CF00001460091072826D80099DFE801F0040C7E
:101D0000241C2424241442F2C051C2F20041FF20BA
:101D100081F8340518E042F2C051C2F200410120BE
:101D200081F8360510E042F2C051C2F200410120B4
:101D300081F8370508E042F2C051C2F20041FF20AD
:101D400081F8350500E0FFE703B0704700000000B0
:101D500080B586B041F6E143C0F600030F20009045
:101D6000002103910222049214F0E6FB00980399EB
:101D700041F6A163C0F600030322019214F0DCFBDC
:101D80000399049A41F61173C0F600034FF498606A
:101D900014F0D2FB0399049A42F23943C0F60003CF
:101DA0004FF4804014F0C8FB019A03994BF2695339
:101DB000C0F6010305931020029014F0BDFB0298B9
:101DC0000399049A059B14F0B7FB06B080BD000090
:101DD00082B042F2C050C2F2004090F88405014641
:101DE000019120B1FFE7019801283BD053E040F278
:101DF0006410C2F200400078C00790B3FFE742F2DF
:101E0000C050C2F2004090F874050146009120B124
:101E1000FFE70098012811D021E046F2E020C2F24D
:101E20000040407A022808D1FFE742F2C051C2F2D6
:101E30000041012081F87405FFE711E046F2E0203F
:101E4000C2F20040407A032808D1FFE742F2C051B5
:101E5000C2F20041002081F87405FFE700E0FFE7CF
:101E6000FFE719E04FF2E840C2F2014090F8350078
:101E700040B1FFE742F2C051C2F20041012081F8B7
:101E8000740507E042F2C051C2F20041002081F81F
:101E90007405FFE7FFE7FFE702B0704700000000AE
:101EA00083B002908DF807108DF806200298013853
:101EB00001460091072826D80099DFE801F0040CBC
:101EC000241C2424241442F2C051C2F200410020F8
:101ED00081F8340518E042F2C051C2F200410020FE
:101EE00081F8360510E042F2C051C2F200410020F4
:101EF00081F8370508E042F2C051C2F200410020EB
:101F000081F8350500E0FFE703B0704700000000EE
:101F100080B584B003908DF80B108DF80A2042F242
:101F2000C050C2F2004090F8740540B1FFE742F2A1
:101F3000C051C2F20041002081F8740541E00398CD
:101F40000190402804D0FFE70198802816D036E0A1
:101F500042F2C050C2F20040009000F5A76013F0BA
:101F600067FD0098012180F8741500F2544191ED4D
:101F7000000A00F5A46016F0DBFB21E042F2C0503D
:101F8000C2F2004000F5AB6090ED000AB5EE400AE9
:101F9000F1EE10FA0AD1FFE742F2C051C2F200415D
:101FA0000020C4F27010C1F8580507E042F2C05199
:101FB000C2F200410020C1F85805FFE700E0FFE74A
:101FC000FFE704B080BD000081B042F2C050C2F211
:101FD00000400021C4F2F621C0F8681500F5AD609C
:101FE00090ED000A9FED2D1AB4EE410AF1EE10FAC1
:101FF0000FDBFFE742F2C050C2F2004000F5AD60D7
:1020000090ED000A9FED261A30EE010A80ED000ADD
:10201000FFE742F2C050C2F2004000F5AD6090ED23
:10202000000AB5EE400AF1EE10FA0FDAFFE742F2CD
:10203000C050C2F2004000F5AD6090ED000A9FED87
:10204000171A30EE010A80ED000AFFE70120ADF813
:102050000200BDF80200012816D1FFE742F69840C1
:10206000C2F20040D0F8981342F2C050C2F20040D1
:1020700000F5A760816390ED0C1A90ED0E0A30EE2A
:10208000410A80ED0A0A07E042F2C051C2F2004163
:102090000020C1F86005FFE701B070470000B443BD
:1020A0000000B4C30000000080B59AB042F2C050F6
:1020B000C2F20040169000F5AC60139090ED000A5B
:1020C0009FED991A8DED141A20EE010A9FED971AD3
:1020D0008DED151A80EE010AB7EEC00A22F0D4F990
:1020E00013989DED142A9DED151AB7EEC00B8DEDDA
:1020F000190A90ED000A20EE020A80EE010AB7EEFE
:10210000C00A21F0ADFC1698B7EEC00B8DED180A91
:1021100090F884050146179198B3FFE717980128B6
:1021200040F0FF80FFE74FF27850C2F2014090ED9F
:10213000000A42F2C050C2F200400F9000F59C60CD
:10214000109016F0F5FA0F9800F5886112914FF291
:102150007C51C2F2014191ED000A00F59E601190A0
:1021600016F0E6FA00F0E8F8109816F045FA119823
:10217000129981ED000A16F03FFA129880ED010ADB
:10218000D0E000F0D9F842F2C050C2F2004090F81E
:102190007405012819D1FFE742F2C050C2F2004095
:1021A00000F5AF6191ED001A00F5886090ED030A2B
:1021B00020EE010A80ED030A91ED001A90ED040A69
:1021C00020EE010A80ED040AFFE740F26410C2F23B
:1021D00000400078C007B8B3FFE746F2E020C2F243
:1021E00000400B90B0F9040000EE100AB8EEC00AEF
:1021F00042F2C050C2F200400E9000F588610C918E
:1022000091ED031A20EE010A9FED491A8DED0D1A8A
:1022100080EE010A00F59C6016F08AFA0B9A0C9980
:102220009DED0D1A0E98B2F9062000EE102AB8EEB8
:10223000C00A91ED042A20EE020A80EE010A00F5A0
:102240009E6016F075FA2CE042F2C050C2F20040D7
:102250000A9000F58861099191ED040A90F934150E
:1022600090F93625114401EE101AB8EEC11A20EE8D
:10227000010A00F59E6016F05BFA09990A9891ED43
:10228000030A90F9371590F93525114401EE101A1B
:10229000B8EEC11A20EE010A00F59C6016F048FA6B
:1022A000FFE742F2C050C2F20040019000F58861A1
:1022B000089100F59C60049016F09EF901988DED50
:1022C000030A9DED180A8DED020A00F59E60059047
:1022D00016F092F99DED022A9DED031A04980899D3
:1022E0009DED193A20EE030A91EE420A81ED000AB3
:1022F00016F082F905988DED070A9DED190A8DED0E
:10230000060A16F079F99DED062A9DED071A089840
:102310009DED183A20EE030AA1EE420A80ED010A73
:1023200000E0FFE71AB080BDDB0F494000003443F6
:10233000000025440000000080B584B042F2C05087
:10234000C2F20040019000F59C6016F071F901980E
:1023500000F58861029100F59E6016F069F9019818
:1023600000F5A46016F064F90199029891ED000A55
:1023700091ED011A30EE010AB5EE001A20EE010AC5
:102380008DED030A40F26612C2F20042138800EE9D
:10239000103AB8EEC00A9FED263A80EE030AB7EE77
:1023A000C00A9FED1D2B80EE020B30EE000B9FED5F
:1023B0001C1B20EE010B91ED024AB7EEC44A20EE41
:1023C000040BB7EEC00B80ED030AC368C1F85034AC
:1023D000128800EE102AB8EEC00A9DED034A80EE86
:1023E000040A80EE030AB7EEC00A80EE020B30EE5C
:1023F000000B20EE010B91ED021AB7EEC11A20EE90
:10240000010B9FED091B80EE010BB7EEC00B80EDB9
:10241000050A04B080BD00BFC3F5285C8FC22D4003
:1024200000000060FB21094000000080BE9FF63FD5
:10243000000070420000000082B001908DF803108F
:102440008DF8022042F2C050C2F2004090F83005F0
:1024500040B9FFE742F2C051C2F20041012081F8C9
:10246000300510E042F2C050C2F2004090F8300552
:10247000012808D1FFE742F2C051C2F2004100201A
:1024800081F83005FFE702B070470000000000004F
:1024900080B584B003908DED020ACDED010A8DED7B
:1024A000001A039850309DED020ADDED010A9DED02
:1024B000001AB1EE411A13F0DBF9039890ED190AF6
:1024C000DDED000A13F0E4FA0399C869C1F8800051
:1024D00004B080BD0000000087B006908DED050AB5
:1024E000CDED040A8DED031ACDED021A8DED012A12
:1024F000CDED002A05980699086004980699486071
:1025000003980699886002980699C862019806990E
:10251000886200980699486207B070470000000082
:1025200080B583B084460598CDF808C0ADF8061094
:10253000ADF80420ADF802308DF80100BDF80600BA
:1025400002990880BDF8040002994880BDF8020095
:10255000029988809DF801000299887103B080BDBE
:1025600080B543F6B860C2F2004003F091FD80BD33
:1025700080B543F63070C2F2004003F089FD80BDA3
:1025800080B544F22000C2F2004003F081FD80BD1E
:1025900080B544F29800C2F2004003F079FD80BD9E
:1025A00080B543F6A870C2F2004003F071FD80BD13
:1025B00080B544F27820C2F2004003F069FD80BD8E
:1025C00080B544F20020C2F2004003F061FD80BDFE
:1025D00080B544F21010C2F2004003F059FD80BDF6
:1025E00080B544F28810C2F2004003F051FD80BD76
:1025F00083B002900298016801201022C4F2020206
:102600009142009000F0A380FFE70298016801204A
:102610002822C4F202029142009000F09880FFE765
:102620000298016801204022C4F202029142009007
:1026300000F08D80FFE70298016801205822C4F263
:1026400002029142009000F08280FFE70298016848
:1026500001207022C4F202029142009077D0FFE77D
:102660000298016801208822C4F20202914200907F
:102670006DD0FFE7029801680120A022C4F2020297
:102680009142009063D0FFE7029801680120B822D0
:10269000C4F202029142009059D0FFE7029801680B
:1026A000012040F21042C4F20202914200904ED04A
:1026B000FFE702980168012040F22842C4F20202BA
:1026C0009142009043D0FFE702980168012040F258
:1026D0004042C4F202029142009038D0FFE70298D3
:1026E0000168012040F25842C4F202029142009077
:1026F0002DD0FFE702980168012040F27042C4F239
:1027000002029142009022D0FFE702980168012066
:1027100040F28842C4F202029142009017D0FFE7D3
:1027200002980168012040F2A042C4F202029142E4
:1027300000900CD0FFE7029800684FF64831CBF6C6
:10274000FD710844B0FA80F040090090FFE700985E
:10275000C00740B3FFE70298007810384AF6AB2173
:10276000CAF6AA21A0FB011000090190019800F00F
:10277000070145F2A860C0F60200405C0299C865F6
:102780000198042807D3FFE702990868042262F33E
:102790000900886506E00299086840F2FF3290431C
:1027A0008865FFE705E00299086820F0FF0088656A
:1027B000FFE70298806D03B0704700000000000042
:1027C00084B0039003980068019003980168012089
:1027D00045F20842C5F60202914200904ED0FFE752
:1027E00003980168012045F21C42C5F6020291429D
:1027F000009043D0FFE703980168012045F2304282
:10280000C5F602029142009038D0FFE703980168B4
:10281000012045F24442C5F60202914200902DD0BB
:10282000FFE703980168012045F25842C5F602020D
:102830009142009022D0FFE703980168012045F201
:102840006C42C5F602029142009017D0FFE7039850
:102850000168012045F28042C5F6020291420090D3
:102860000CD0FFE7039800684AF66C31CAF2FD719C
:102870000844B0FA80F040090090FFE70098C007D4
:1028800010B3FFE70398007808384CF6CD41CCF63A
:10289000CC41A0FB011000090290029945F600000E
:1028A000C5F6020000EB810003990866039945F61E
:1028B0008000C5F602004866029800F01F01012062
:1028C00088400399886635E00398007810384AF606
:1028D000AB21CAF6AA21A0FB0110000902900198C1
:1028E00040F2B841C4F2020188420CD8FFE70198D7
:1028F00040F21041C4F20201884204D3FFE702987B
:1029000008300290FFE7029940F60000C4F202008E
:1029100000EB810003990866039940F68000C4F239
:1029200002004866029800F01F01012088400399C8
:102930008866FFE704B0704783B002900298007980
:1029400001900198002800F08A80FFE7019808288C
:1029500000F28580FFE702980168012045F20842F5
:10296000C5F60202914200904ED0FFE7029801683E
:10297000012045F21C42C5F602029142009043D06C
:10298000FFE702980168012045F23042C5F60202D5
:102990009142009038D0FFE702980168012045F28B
:1029A0004442C5F60202914200902DD0FFE7029802
:1029B0000168012045F25842C5F60202914200909A
:1029C00022D0FFE702980168012045F26C42C5F66B
:1029D00002029142009017D0FFE70298016801209F
:1029E00045F28042C5F60202914200900CD0FFE70A
:1029F000029800684AF66C31CAF2FD710844B0FAD8
:102A000080F040090090FFE70098C00780B1FFE721
:102A1000019945F6FC00C5F6020000EB8100029921
:102A2000C866029945F64010C5F6020008670FE037
:102A3000019940F6FC00C4F2020000EB810002990B
:102A4000C866029940F64010C4F202000867FFE72A
:102A50000198411E0120884002994867FFE703B0B2
:102A6000704700000000000085B0049000208DF841
:102A70000F000498806918BBFFE70498806A0290F1
:102A800003281BD80299DFE801F0020D0218049810
:102A900090F82F00C00720B1FFE701208DF80F004C
:102AA000FFE70CE00498C06AB0F1C07F04D1FFE7F3
:102AB00001208DF80F00FFE701E000E0FFE747E0AD
:102AC00004988069B0F5005F26D1FFE70498806A1A
:102AD000019003281ED80199DFE801F002060211D7
:102AE00001208DF80F0016E0049890F82F00C00721
:102AF00020B1FFE701208DF80F00FFE70BE00498FD
:102B0000C06AB0F1C07F04D1FFE701208DF80F004B
:102B1000FFE700E0FFE71AE00498806A00900328CE
:102B200004D3FFE70098032804D00EE001208DF8BD
:102B30000F000BE0049890F82F00C00720B1FFE7CA
:102B400001208DF80F00FFE700E0FFE7FFE7FFE758
:102B50009DF80F0005B0704789B008900791069264
:102B600005930898806D04900898806D03900898EC
:102B7000016801201022C4F202029142029000F08A
:102B80000381FFE70898016801202822C4F20202AD
:102B90009142029000F0F880FFE708980168012058
:102BA0004022C4F202029142029000F0ED80FFE761
:102BB0000898016801205822C4F202029142029052
:102BC00000F0E280FFE70898016801207022C4F25B
:102BD00002029142029000F0D780FFE70898016856
:102BE00001208822C4F202029142029000F0CC80BF
:102BF000FFE7089801680120A022C4F20202914276
:102C0000029000F0C180FFE7089801680120B82217
:102C1000C4F202029142029000F0B680FFE70898E9
:102C20000168012040F21042C4F202029142029077
:102C300000F0AA80FFE708980168012040F22842CE
:102C4000C4F202029142029000F09E80FFE70898D1
:102C50000168012040F24042C4F202029142029017
:102C600000F09280FFE708980168012040F2584286
:102C7000C4F202029142029000F08680FFE70898B9
:102C80000168012040F27042C4F2020291420290B7
:102C90007AD0FFE708980168012040F28842C4F228
:102CA0000202914202906FD0FFE70898016801206C
:102CB00040F2A042C4F202029142029064D0FFE7C7
:102CC00008980168012040F2B842C4F20202914221
:102CD000029059D0FFE708980168012045F20842A8
:102CE000C5F60202914202904ED0FFE708980168B3
:102CF000012045F21C42C5F602029142029043D0E7
:102D0000FFE708980168012045F23042C5F602024B
:102D10009142029038D0FFE708980168012045F2FF
:102D20004442C5F60202914202902DD0FFE7089876
:102D30000168012045F25842C5F602029142029014
:102D400022D0FFE708980168012045F26C42C5F6E1
:102D500002029142029017D0FFE708980168012013
:102D600045F28042C5F60202914202900CD0FFE784
:102D7000089800684AF66C31CAF2FD710844B0FA4E
:102D800080F040090290FFE70298C00770B1FFE7AA
:102D90000898416E806E48600898C06E28B1FFE7C1
:102DA0000898016F406F4860FFE7FFE708980168E7
:102DB00001201022C4F202029142019000F0A3808F
:102DC000FFE70898016801202822C4F2020291421C
:102DD000019000F09880FFE70898016801204022E8
:102DE000C4F202029142019000F08D80FFE7089842
:102DF000016801205822C4F202029142019000F0C1
:102E00008280FFE70898016801207022C4F2020264
:102E10009142019077D0FFE708980168012088224D
:102E2000C4F20202914201906DD0FFE70898016858
:102E30000120A022C4F202029142019063D0FFE778
:102E4000089801680120B822C4F202029142019060
:102E500059D0FFE708980168012040F21042C4F2FF
:102E60000202914201904ED0FFE7089801680120CC
:102E700040F22842C4F202029142019043D0FFE79F
:102E800008980168012040F24042C4F202029142D7
:102E9000019038D0FFE708980168012040F25842BD
:102EA000C4F20202914201902DD0FFE70898016818
:102EB000012040F27042C4F202029142019022D0FD
:102EC000FFE708980168012040F28842C4F202023C
:102ED0009142019017D0FFE708980168012040F265
:102EE000A042C4F20202914201900CD0FFE7089880
:102EF00000684FF64831CBF6FD710844B0FA80F017
:102F000040090190FFE70198C00750B3FFE7089818
:102F1000C06D00F01F013F20884004998860089828
:102F20000168086820F480200860059808990968FD
:102F3000486008988068402809D1FFE706980899FA
:102F400009688860079808990968C86008E00798C8
:102F5000089909688860069808990968C860FFE7B9
:102F600082E008980168012045F20842C5F6020295
:102F7000914200904ED0FFE708980168012045F289
:102F80001C42C5F602029142009043D0FFE7089828
:102F90000168012045F23042C5F6020291420090DC
:102FA00038D0FFE708980168012045F24442C5F691
:102FB0000202914200902DD0FFE70898016801209D
:102FC00045F25842C5F602029142009022D0FFE736
:102FD00008980168012045F26C42C5F60202914250
:102FE000009017D0FFE708980168012045F2804261
:102FF000C5F60202914200900CD0FFE708980068E5
:103000004AF66C31CAF2FD710844B0FA80F040090A
:103010000090FFE70098C00720B3FFE70898C06D55
:1030200000F01F0101208840039948600598089925
:103030000968486008988068402809D1FFE7069829
:10304000089909688860079808990968C86008E0C5
:103050000798089909688860069808990968C860FF
:10306000FFE700E0FFE7FFE709B07047000000005E
:1030700080B584B00390029103990878497840EABA
:1030800001206FF3DF200299088002990888A0F5DB
:1030900080600880039948788978C00840EA411028
:1030A0006FF3DF200299488002994888A0F580607C
:1030B000488003998878CA780979800940EA8200B3
:1030C00040EA81206FF3DF20029988800299888886
:1030D000A0F580608880039908794979400840EA22
:1030E000C1106FF3DF200299C8800299C888A0F54B
:1030F0008060C8800298B0F9000000EE100AB8EEB7
:10310000C00ADFED3F0ACDED010A00F005F9DDED63
:10311000010ABDEEC00A10EE100A0299088002985A
:10312000B0F9020000EE100AB8EEC00A00F0F4F8A0
:10313000DDED010ABDEEC00A10EE100A02994880CA
:103140000298B0F9040000EE100AB8EEC00A00F0D0
:10315000E3F8DDED010ABDEEC00A10EE100A029997
:1031600088800298B0F9060000EE100AB8EEC00A96
:1031700000F0D2F8BDEEC00A10EE100A0299C88025
:103180000299087A88720299487AC872039840793D
:1031900080090299087203984079C0F301100299DE
:1031A000487203998879C97940EA01200299888197
:1031B0000399087A497A40EA01200299C881039963
:1031C000887AC97A40EA0120029908820398007B34
:1031D000029988740398407B0299C8740399887B8C
:1031E000C97B40EA0120029988820399087C497CC6
:1031F00040EA0120A0F580600299C88204B080BD39
:10320000000020420000000082B00190009101986F
:1032100000880099088001984088009948800198AA
:103220008088009988800198C08840420099C880B1
:103230000198007A009948720198407A0099887242
:103240000198807A009948730198C07A0099887330
:1032500001988089009908820198C0890099488264
:103260000198008A009988820198807C009988756D
:103270000198C07C0099C8750198808A00990883DC
:103280000198C08A0099488302B07047000000008E
:1032900081B000904EF6FC51CEF20001086840F07B
:1032A0008070086041F20401CEF200010020086045
:1032B00041F20002CEF20002116841F001011160FA
:1032C000009944F24022C0F20F024A4340F2EC213E
:1032D000C2F200410A600A6844F6D353C1F26203A5
:1032E000A2FB0332920940F2F023C2F200431A60BB
:1032F00009684DF68362C4F21B32A1FB0221890CDE
:1033000040F2F422C2F20042116040F2F821C2F20F
:103310000041086001B0704783B08DED010ACDED2A
:10332000000A9DED010A9DED001AB1EE411AB4EEBE
:10333000410AF1EE10FA0DDDFFE79DED010A9DED6A
:10334000001AB4EE410AF1EE10FA03DAFFE70020AA
:10335000029002E001980290FFE79DED020A03B09F
:1033600070470000000000007047000000000000EF
:1033700080B582B08DF807009DF807000C2818D1A1
:10338000FFE746F23C30C2F20040016801310160C3
:103390000068022801D8FFE70BE046F23C30C2F299
:1033A000004000680B2801D3FFE7FFE7FDF73CFA78
:1033B000FFE702B080BD000081B08DF8030001B0CE
:1033C000704700000000000080B584B064210191C6
:1033D0000023039318461A4600F06EF80199039BE8
:1033E000012000901A4600F067F80199039B022023
:1033F0001A4600F061F80199039B03201A4600F079
:103400005BF80199039B04201A4600F055F80199D6
:10341000039B05201A4600F04FF80199039B0620F4
:103420001A4600F049F80199039B07201A4600F05C
:1034300043F800980199039B42F65432C2F20042CD
:1034400082F8580082F86C0008201A4600F034F820
:103450000199039B09201A4600F02EF80199039B5D
:103460000A201A4600F028F8039B0B204FF4FA714B
:1034700002911A4600F020F80199039B0C201A468D
:1034800000F01AF80299039B42F69952C0F6010225
:103490000D2000F011F80199039B0E201A4600F050
:1034A0000BF80299039B0F201A4600F005F804B0B0
:1034B00080BD00000000000084B08DF80F00029174
:1034C0000192009302989DF80F1001EB810242F6E1
:1034D0005431C2F2004141F822009DF80F0000EB88
:1034E000800001EB80020020107201989DF80F20EF
:1034F00002EB820201EB8202D06000989DF80F205F
:1035000002EB820201EB8201086104B07047000007
:1035100080B582B08DF8070006F016FC9DF8071004
:1035200001EB810242F65431C2F2004101EB82010B
:10353000486002B080BD000081B0EFF3108072B629
:103540000090FFE7FEE7000044F60C01C5F602011B
:10355000086840F002000860FFE744F60400C5F682
:10356000020000688004002801D4FFE7F5E77047F7
:1035700080B544F2F020C2F2004005F0C9FA80BDE7
:1035800080B544F2F020C2F2004005F0C1FA80BDDF
:1035900080B544F29030C2F2004005F0B9FA80BD27
:1035A00080B544F29030C2F2004005F0B1FA80BD1F
:1035B00080B544F23040C2F2004005F0A9FA80BD67
:1035C00080B544F23040C2F2004005F0A1FA80BD5F
:1035D00084B002900298406B009002980068D0F886
:1035E00084004FF6FC718843009940EA81000299FB
:1035F0000968C1F8840002980068D0F8840020F4BB
:103600007F00029A1168926B40EA0240C1F8840080
:103610000298816B00980844009002980068D0F8E6
:1036200088006FF38F00009940EA810002990968D1
:10363000C1F8880002980068D0F8880020F4FE00E5
:10364000029A1168D26B40EA0240C1F888000298E1
:10365000C16B009800EB4100009002980068D0F820
:10366000A0006FF38F00009940EA81000299096879
:10367000C1F8A00002980068D0F8A00020F4FE0075
:10368000029A1168126C40EA0240C1F8A000029947
:10369000086C496C009A00FB0120009002980068B9
:1036A000D0F8B0006FF38F00009940EA81000299D2
:1036B0000968C1F8B00002980068D0F8B00020F4A2
:1036C000FE00029A1168926C40EA0240C1F8B00014
:1036D0000299886CC96C009A00FB01200090029846
:1036E0000068D0F8AC006FF38F00009940EA8100C9
:1036F00002990968C1F8AC000299086D496D009AF9
:1037000000FB0120009002980068D0F8F0006FF3F1
:103710008F00009940EA810002990968C1F8F00021
:1037200002980068D0F8F00020F47C10029A11682A
:10373000926D40EA0240C1F8F0000298816D009855
:1037400000EB4100009002980068D0F8C0006FF3D1
:103750008F00009940EA810002990968C1F8C00011
:1037600002980068D0F8C00020F47C10029A11681A
:10377000D26D40EA0240C1F8C00002980068D0F85B
:10378000C00020F07C50029A1168126E40EA02607C
:10379000C1F8C00002994A6B4AF60040C4F200002A
:1037A00000EB8200C86602998A6BC86E00EB82004B
:1037B00008670299CA6B086F00EBC200486702995C
:1037C0000A6C4B6C486F5A4300EB82008867029981
:1037D0008A6CCB6C886F5A4300EB8200C8670299F1
:1037E0000A6D4B6DC86F5A4300EB8200C1F8800030
:1037F00002998A6DD1F8800000EBC200C1F8840004
:103800000299CA6D8B6ED1F884005A4300EB820096
:10381000C1F8880002990A6E8B6ED1F888005A436D
:1038200000EB8200C1F890000298D0F890004DF2B1
:10383000FD31C4F2000188420FD3FFE70299D1F8AD
:103840009C0040F02000C1F89C000299032081F800
:10385000980001208DF80F0017E00298C06E0190CB
:10386000FFE701980299D1F89010884208D2FFE74B
:10387000019900200860FFE7019804300190F0E70B
:10388000FFE700208DF80F00FFE79DF80F0004B060
:10389000704700000000000088B007900691059274
:1038A00004930698406848B9FFE706980168826863
:1038B0000069104340EA8140039009E006980168DE
:1038C000826800691043084340F080400390FFE79E
:1038D0000698D0F820C0C16842698369C06940EA8F
:1038E0000C601843104340EA014002900798826E32
:1038F000D0F884000499514300EB810001900398B3
:1039000001990860019804300190029801990860BB
:1039100001980430019000200090FFE7009806997C
:10392000CA6845F29861C0F60201895C88420DD2EE
:10393000FFE7059800994058019908600198043004
:103940000190FFE7009804300090E7E708B0704767
:1039500085B002A9009101460098049180ED010A0A
:1039600000200290ADF80600FFE7BDF806000499BC
:10397000B1F89011013988421DDAFFE70098049AE6
:10398000BDF8063002EB8301496842F82310049920
:10399000BDF8062001EB820191ED001A90ED000ABE
:1039A00030EE010A80ED000AFFE7BDF806000130A5
:1039B000ADF80600D9E700980399049AB2F890315F
:1039C00002EB830242F8041C90ED011A90ED000A0C
:1039D00030EE010A80ED000A90ED000A0498B0F87C
:1039E000900101EE100AB8EEC11A80EE010A05B08E
:1039F000704700000000000082B00190ADF8021096
:103A0000BDF802000199A1F890010020ADF8000076
:103A1000FFE7BDF80000BDF8021088420DDAFFE7AD
:103A20000199BDF80020002041F82200FFE7BDF811
:103A300000000130ADF80000EBE702B07047000075
:103A400084B002900191ADF80220029828B9FFE7F6
:103A50004FF6FF70ADF80E0021E0FFE70198411E20
:103A60000191B8B1FFE70298411C029100788DF8EE
:103A70000100BDF802109DF801004840C2B246F2B4
:103A80003A10C0F6020030F8120080EA1120ADF8BA
:103A90000200E3E7BDF80200ADF80E00FFE7BDF855
:103AA0000E0004B07047000082B00190ADF8021023
:103AB0008DF80120FFE7BDF80200411EADF80210AD
:103AC00098B1FFE79DF8010001994A1C019209781D
:103AD00048408DF800009DF8001045F28850C0F66F
:103AE0000200405C8DF80100E5E79DF8010002B09E
:103AF000704700000000000040F20040C2F20040A9
:103B000090ED690A7047000040F20040C2F20040A8
:103B100090ED680A7047000080B584B04EF6000052
:103B2000C1F6F170006803904EF60400C1F6F17022
:103B3000006802904EF60800C1F6F170006801902E
:103B40000199039808440390039888B1FFE703980C
:103B500040F22421C2F200410091023108220FF00C
:103B6000BFF800990298123104220FF0B9F8FFE76C
:103B700004B080BD0000000040F20040C2F20040EE
:103B800090ED6A0A7047000082B001908DF8031032
:103B90008DF8022042F69840C2F2004090EDA80A4B
:103BA0009FED1A1AB4EE410AF1EE10FA10DDFFE7AC
:103BB00042F69841C2F200410020C4F2A000C1F8D0
:103BC000A0020020C1F8F001012081F8360F1BE0AF
:103BD00042F69840C2F2004090EDA80AB2EE0E1AEA
:103BE000B4EE410AF1EE10FA0DDAFFE742F6984121
:103BF000C2F200410020C4F2C820C1F8A002002097
:103C000081F8360FFFE7FFE702B0704700009642E9
:103C100080B540F26410C2F200400078C00718B1CD
:103C2000FFE700F0F5FA02E000F0FAF9FFE780BDE7
:103C300080B542F69841C2F20041012081F8340F6C
:103C40004FF2B840C2F20140407B80B1FFE746F23C
:103C50004030C2F20040012180F8201390F8200388
:103C600000F0010014F068FC01F07AF819E046F267
:103C70004030C2F20040002180F8201390F8200369
:103C800000F0010014F058FC42F69840C2F20040E7
:103C900090F8360FC00718B9FFE700F0D1FBFFE737
:103CA000FFE780BD0000000080B542F69841C2F2F7
:103CB0000041012081F8340F4FF2B840C2F20140B8
:103CC000407B18B1FFE701F04BF80EE040F26410C2
:103CD000C2F200400078C00718B1FFE700F098FA80
:103CE00002E000F09DF9FFE7FFE780BD0000000063
:103CF00080B584B042F69840C2F2004003900021A3
:103D0000C4F270210191C0F8F8110021CCF25011D9
:103D1000C0F8FC1100210291C0F8E011D0F8E021B8
:103D2000C0F8F0210022C4F2BE22C0F8A82200236D
:103D3000C4F2A003C0F8AC32C0F88C22D0F88C22B8
:103D4000C0F8A02241604268C261C0F8A810D0F853
:103D5000A820C0F8C0204FF67C02C2F201421180B8
:103D600000F55A603221FFF747FE039800F6DC00A9
:103D70000A21FFF741FE039800F5E9600221FFF7F1
:103D80003BFE019A0298039981F8340F4870C1F8FC
:103D90003823C1F83C034FF07E52C1F84023002283
:103DA000C4F22012C1F844230022CCF2A002C1F8D0
:103DB0004823C1F84C03012081F8500300F004F8B7
:103DC00000F01AFA04B080BD80B58CB042F698407D
:103DD000C2F20040089000F50270B1EE080ADFED73
:103DE0005F0ACDED0B0A9FED5E1ADFED5E1A9FEDC7
:103DF0005E2A8DED072A11F02BFE9DED072A08980B
:103E000000F516709FED590ADFED590ACDED040A51
:103E10009FED581ADFED581ADFED582AFEF75CFBCC
:103E2000089800F50C70BFEE000ADFED550ABAEEF7
:103E3000001AF7EE001ACDED011AB2EE042A8DED4C
:103E4000062A11F005FEDDED011A9DED061A08980F
:103E500000F536709FED4B0ADFED4B0AB2EE0E2AED
:103E600011F0F6FD9DED072A089824309FED470AD2
:103E7000DFED470AB0EE0C1ADFED461ACDED021A5F
:103E800011F0E6FD089874309FED430ADFED430A18
:103E90009FED431ADFED431A9FED432ADFED432ADE
:103EA000FEF71AFBDDED021A08984C309FED400A30
:103EB0008DED030ADFED3F0ACDED050A9FED3E1AB9
:103EC0009FED3E2A8DED0A2A11F0C2FDDDED050AB7
:103ED0009DED061ADDED071A08989DED0A2AC830F7
:103EE0009FED370A11F0B4FD9DED031ADDED042AB4
:103EF00008989DED0A2A00F58C709FED320ADFEDDF
:103F0000320ADFED321ACDED091AFEF7E5FADDEDE2
:103F1000050A9DED061ADDED071A08989DED0A2A9F
:103F2000DDED0B2A00F5A6709FED290A0FF024FEA7
:103F30000898DDED091A9DED0A2A9DED0B3A00F572
:103F4000D2709FED240AF6EE000A9FED231ADFEDF2
:103F5000232A0FF0E9FD0CB080BD00BF0000000077
:103F6000CDCCCC3E0000FA4300C0DA4500009642BA
:103F70003333333F0000F042000048439A99193F21
:103F80006F1283BA6666E63F6F12833A9A99B94018
:103F90000AD7A33C00007A44000014428FC2F53CCB
:103FA00000002D4300002F440000FA446666E63E00
:103FB00000009643CDCCCC3D00E02B460060EA46A5
:103FC00000002042000087439A99993E0000C842B1
:103FD0000000484200008C430000F043CDCC4C3F31
:103FE00046F2E020C2F20040807A032807D1FFE7C2
:103FF00042F69841C2F20041012008700FE046F2FB
:10400000E020C2F20040807A012807D1FFE742F6A3
:104010009841C2F2004100200870FFE7FFE77047B7
:1040200080B588B042F69840C2F2004090F8340F54
:10403000C00768B1FFE742F69841C2F200414DF275
:104040000A70C3F6A330C1F8740AC1F8700A10E010
:1040500042F69841C2F200414DF20A70C3F6233095
:10406000C1F8740A44F2D040C3F65830C1F8700A5F
:10407000FFE746F2E020C2F200400590B0F91000E0
:1040800000EE100AB8EEC00A42F69840C2F20040B4
:10409000079000F5E961069191EDCB1A20EE010A37
:1040A00000F6DC00FFF754FC05990698079BB0EE7C
:1040B000401A93ED300A30EE410A83ED300AD3F80E
:1040C000C020DA61B1F9121000EE101AB8EEC00A81
:1040D00090EDCA1A20EE010AFFF73AFC0798B0EEFD
:1040E000401A90ED7C0A30EE010A80ED7C0A90EDDA
:1040F000A80A90EDAB1AB4EE410AF1EE10FA09DC11
:10410000FFE742F69840C2F2004090EDAB0A8DED19
:10411000040A24E042F69840C2F2004090EDA80A5A
:1041200090EDAA1AB4EE410AF1EE10FA09DBFFE7AE
:1041300042F69840C2F2004090EDAA0A8DED030AC3
:1041400008E042F69840C2F2004090EDA80A8DEDDA
:10415000030AFFE79DED030A8DED040AFFE79DEDDD
:10416000040A42F69840C2F2004080EDA80A90EDA1
:104170007C0A90ED7F1AB4EE410AF1EE10FA09DCE8
:10418000FFE742F69840C2F2004090ED7F0A8DEDC5
:10419000020A24E042F69840C2F2004090ED7C0A08
:1041A00090ED7E1AB4EE410AF1EE10FA09DBFFE75A
:1041B00042F69840C2F2004090ED7E0A8DED010A71
:1041C00008E042F69840C2F2004090ED7C0A8DED86
:1041D000010AFFE79DED010A8DED020AFFE79DED63
:1041E000020A42F69840C2F2004080ED7C0A08B014
:1041F00080BD00000000000080B543F68933C0F6A2
:1042000000034FF400500021022212F095F980BD06
:1042100085B046F2E021C2F20041B1F9000000EEA3
:10422000100AB8EEC00A9FED821A20EE010A9FED37
:10423000811A80EE011A42F69840C2F200400490C2
:1042400090ED300A30EE010A80ED300AD0F8C0203F
:10425000C261B1F9021000EE101AB8EEC00B9FED6A
:10426000701B20EE010B9FED701B80EE011B90ED8B
:104270007C0AB7EEC00A30EE010BB7EEC00B80ED42
:104280007C0A90ED7C0A90ED7F1AB4EE410AF1EEC3
:1042900010FA09DCFFE742F69840C2F2004090EDC8
:1042A0007F0A8DED030A24E042F69840C2F20040F6
:1042B00090ED7C0A90ED7E1AB4EE410AF1EE10FA10
:1042C00009DBFFE742F69840C2F2004090ED7E0A1B
:1042D0008DED020A08E042F69840C2F2004090EDEF
:1042E0007C0A8DED020AFFE79DED020A8DED030ABF
:1042F000FFE79DED030A42F69840C2F2004080EDD0
:104300007C0A46F2E020C2F20040407A012838D10F
:10431000FFE746F2E020C2F20040407B032830D1A4
:10432000FFE746F24030C2F2004090F82003C00799
:1043300038BBFFE742F69840C2F2004090EDA80A71
:104340009FED3D1AB4EE410AF1EE10FA0DDAFFE7E7
:1043500042F69841C2F200410020C4F2C820C1F8E0
:10436000A002002081F8360F0AE042F69841C2F21E
:1043700000410020C1F8A002012081F8360FFFE7BC
:10438000FFE746F2E021C2F20041487A487342F664
:104390009840C2F2004090EDA80A90EDAB1AB4EE3E
:1043A000410AF1EE10FA09DCFFE742F69840C2F24A
:1043B000004090EDAB0A8DED010A24E042F69840F2
:1043C000C2F2004090EDA80A90EDAA1AB4EE410A9C
:1043D000F1EE10FA09DBFFE742F69840C2F2004026
:1043E00090EDAA0A8DED000A08E042F69840C2F26C
:1043F000004090EDA80A8DED000AFFE79DED000A50
:104400008DED010AFFE79DED010A42F69840C2F2E8
:10441000004080EDA80A05B0704700BF00BF00BF94
:10442000666666666666D63F0000000000A08440AF
:104430009A9999BE000025440000484200000000FF
:1044400080B588B042F69840C2F20040029090EDEC
:10445000CE0A9FED433A20EE030A8DED070A9DED4B
:10446000071A90ED300A30EE010A80ED300AD0F8DC
:10447000C010C16190EDCF0A90EDD02A9FED391A9E
:1044800022EE012AA2EE030A80EDCF0A90EDCF0AB8
:10449000B4EE410AF1EE10FA0DDDFFE742F6984066
:1044A000C2F2004090EDCF0A9FED2F1A30EE010AC4
:1044B00080EDCF0AFFE742F69840C2F2004001903B
:1044C00090EDCF0A90EDD11A8DED001A1CF04CFD45
:1044D0009DED001A0198B0EE402A90EDD20AA1EEAF
:1044E000020A8DED060A90F8500358B1FFE70698CE
:1044F00042F69841C2F20041C1F84C03002081F815
:104500005003FFE79DED060A42F69841C2F20041D2
:1045100091EDD31A30EE410A8DED050A9DED060AA4
:1045200091ED7C1A30EE410A8DED040A9DED040AEE
:104530009FED0E1A20EE010A8DED030A9DED050A8E
:104540009DED031A30EE011A91ED7C0A30EE010A5E
:1045500081ED7C0A0698C1F84C0308B080BD00BF0D
:104560006F12833ADB0FC940DB0FC9C00AD7A33CE7
:1045700081B042F69840C2F20040007801460091B6
:1045800020B1FFE70098012825D082E046F2E02024
:10459000C2F20040B0F91A00B0F5C87F08DCFFE7AE
:1045A00046F2E020C2F20040C07D012809D1FFE7B9
:1045B00042F69841C2F200410120487081F8340F60
:1045C00008E042F69841C2F200410020487081F8AC
:1045D000340FFFE75EE042F69841C2F2004101204D
:1045E00081F8340F46F2E020C2F20040407A0228FF
:1045F00008D1FFE742F69841C2F20041012081F85C
:10460000350F07E042F69841C2F20041002081F8E0
:10461000350FFFE74FF2B840C2F2014090ED0A0AB1
:10462000B7EE001AB4EE410AF1EE10FA08D1FFE736
:1046300042F69841C2F20041012081F8360F07E0AE
:1046400042F69841C2F20041002081F8360FFFE7A0
:1046500042F69840C2F2004090F8350FC00780B192
:10466000FFE742F69840C2F2004090F8360FC007CC
:1046700038B9FFE742F69841C2F200410220487083
:1046800006E042F69841C2F2004100204870FFE780
:1046900000E0FFE701B0704780B586B040F2A83176
:1046A000C2F2004191ED050AB1EE400A42F698408F
:1046B000C2F2004080ED2F0A496BC0F8AC10B0F890
:1046C000500441F6AE61411A4FF67C00C2F201403F
:1046D0000180B0F90000B0F5805F09DDFFE74FF61B
:1046E0007C01C2F201410888A0F50050088013E067
:1046F0004FF67C00C2F20140B0F9000010F5805F77
:1047000009DAFFE74FF67C01C2F20141088800F5A3
:1047100000500880FFE7FFE742F69840C2F20040F1
:1047200090ED2B0A4FF67C01C2F20141B1F9001065
:1047300001EE101AB8EEC11A9FEDE42A21EE021A1A
:104740009FEDE32AA1EE020A80ED020AD0F8781369
:10475000816140F2A831C2F2004191ED040AB1EE4C
:10476000400A80ED7B0A096BC0F8E41100F2946006
:1047700090ED000A9FEDD71A30EE010A8DED050A83
:104780009DED050A9FEDD41AB4EE410AF1EE10FA40
:1047900009DDFFE79DED050A9FEDCD1A30EE010A18
:1047A0008DED050A13E09DED050A9FEDCC1AB4EEE0
:1047B000410AF1EE10FA09DAFFE79DED050A9FEDD7
:1047C000C81A30EE010A8DED050AFFE7FFE70599EB
:1047D00042F69840C2F20040C0F8941200F5AF6073
:1047E00090ED000AB8EE081A30EE010A8DED040AC9
:1047F0009DED040A9FEDBB1AB4EE410AF1EE10FAEA
:1048000009DDFFE79DED040A9FEDB71A30EE010ABE
:104810008DED040A13E09DED040A9FEDB41AB4EE89
:10482000410AF1EE10FA09DAFFE79DED040A9FED67
:10483000B01A30EE010A8DED040AFFE7FFE742F6F9
:104840009840C2F2004090ED791A9DED040A9FED68
:10485000A92AA0EE021A9FEDA80A31EE001A80EDF7
:10486000A41AD0F87416C0F89C129DED041AA1EE9B
:10487000420A9FED991A31EE403A90ED790A90ED97
:10488000A52A30EE030A30EE420A42F2C051C2F2CB
:10489000004101F27C5181ED000A90EDA50AB4EED1
:1048A000410AF1EE10FA0DDDFFE742F69840C2F240
:1048B000004090EDA50A9FED861A30EE010A80EDCA
:1048C000A50A1BE042F69840C2F2004090EDA50A0E
:1048D0009FED821AB4EE410AF1EE10FA0DDAFFE70D
:1048E00042F69840C2F2004090EDA50A9FED7C1A76
:1048F00030EE010A80EDA50AFFE7FFE742F6984097
:10490000C2F2004090EDA50A9FED7C1AB4EE410A78
:10491000F1EE10FA1DDBFFE742F69840C2F20040CC
:1049200090EDA50A9FEDEB1AB4EE410AF1EE10FAF4
:104930000FDCFFE742F69841C2F200410020C4F2CA
:104940007020C1F800020020CCF25010C1F804021F
:1049500071E042F69840C2F2004090EDA50AB2EE36
:10496000041AB4EE410AF1EE10FA28DBFFE742F632
:104970009840C2F2004090EDA50A9FEDD51AB4EE22
:10498000410AF1EE10FA1ADAFFE742F69840C2F255
:1049900000400021C4F2BA21C0F8001290EDA50A2F
:1049A000BBEE021A20EE010AB2EE041A80EE010AF2
:1049B0009FEDC91A30EE010A80ED810A3AE042F615
:1049C0009840C2F2004090EDA50AB2EE0E1AB4EE85
:1049D000410AF1EE10FA1DDAFFE742F69840C2F202
:1049E000004090EDA50AB9EE041AB4EE410AF1EECA
:1049F00010FA0FDBFFE742F69841C2F200410020B7
:104A0000C4F2BA20C1F800020020C4F2B420C1F8F8
:104A100004020EE042F69841C2F200410020C4F2C6
:104A2000BA20C1F800020020CCF22010C1F8040224
:104A3000FFE7FFE7FFE742F69840C2F2004002902E
:104A400042F2C051C2F2004101F27C5191ED002AC4
:104A500090ED800A90EDA51A30EE020A9FED9B2A98
:104A600031EE421A30EE010A80ED7E0A91ED003AF5
:104A700090ED810A90EDA51A30EE030A31EE421A4C
:104A800030EE010A80ED7F0A0021039190ED2B0AA0
:104A900090ED2C1A30EE410A9FED901AB4EE410AC7
:104AA000F1EE10FA2CDAFFE742F69840C2F200402D
:104AB00090ED2B0A90ED2C2A9FED831A31EE421ACD
:104AC00030EE010A8DED030A4BE000BF0000003913
:104AD0000000B4C3C1C7034300003443000034C323
:104AE0000000B443DB0F4940DB0FC9C0DB0F49C0F6
:104AF000DB0FC940E12E65420000B4420000704265
:104B000042F69840C2F2004090ED2B0A90ED2C1A2C
:104B100030EE410A9FED721AB4EE410AF1EE10FA3E
:104B200011DDFFE742F69840C2F2004090ED2B0AFB
:104B300090ED2C1A9FED622A30EE020A30EE410A07
:104B40008DED030A0CE042F69840C2F2004090ED71
:104B50002B0A90ED2C1A30EE410A8DED030AFFE787
:104B6000FFE79DED031A42F69840C2F2004090ED37
:104B70002D0A30EE010A80ED2D0AFFE742F698403B
:104B8000C2F2004090ED2D1A90ED300A30EE410A4D
:104B900001209FED4C1AB4EE410AF1EE10FA01909B
:104BA00015DAFFE742F69840C2F2004090ED2D0A78
:104BB00090ED301A30EE410A9FED421A0020B4EE1B
:104BC000410AF1EE10FAA8BF01200190FFE7019819
:104BD000C00700283FD0FFE742F69840C2F20040ED
:104BE00090ED2D1A90ED300A30EE410A9FED351A06
:104BF000B4EE410AF1EE10FA0DDBFFE742F6984001
:104C0000C2F2004090ED300A9FED2D1A30EE010AFD
:104C100080ED300AFFE742F69840C2F2004090ED86
:104C20002D0A90ED301A30EE410A9FED261AB4EEAF
:104C3000410AF1EE10FA0DDBFFE742F69840C2F2AE
:104C4000004090ED300A9FED201A30EE010A80ED11
:104C5000300AFFE792E742F69840C2F20040D0F8EF
:104C6000AC10C0F8B01090ED2D0A4FF67C01C2F2E6
:104C70000141B1F9001001EE101AB8EEC11A9FED12
:104C80000F2A21EE021A9FED0E2AA1EE020A80EDF4
:104C9000040A4FF2B841C2F20141497B00EE101AFA
:104CA000B8EE400A00F55A60FEF752FE4FF2E440BB
:104CB000C2F2014080ED000A06B080BD000000395C
:104CC0000000B4C3000034430000B4430000B44209
:104CD000000070420000DC420000BA42000087C3BE
:104CE000000087430000000046F2DC10C2F20040E2
:104CF000007842F2C051C2F2004191F87415884226
:104D000001D1FFE72AE042F2C050C2F2004090F821
:104D1000741546F2DC12C2F20042117090F874056C
:104D200001280DD1FFE742F69841C2F2004148F256
:104D30000000C4F23B6048664FF07C5008650DE00F
:104D400042F69841C2F200410020C4F27A4048661F
:104D50004CF6CD40C3F6CC500865FFE77047000025
:104D600084B042F69840C2F2004090ED300A9FEDC8
:104D7000B91A80EE010AB5EE400AF1EE10FA13DD21
:104D8000FFE742F69840C2F2004090ED300A9FEDF6
:104D9000B11A80EE010AB6EE001A30EE010ABDEE3D
:104DA000C00A8DED030A12E042F69840C2F20040BC
:104DB00090ED300A9FEDA71A80EE010ABEEE001AB0
:104DC00030EE010ABDEEC00A8DED030AFFE79DED4E
:104DD000030AB8EEC01A4FF2B840C2F2014090ED9B
:104DE000010A9FED9C2AA1EE020A42F69840C2F207
:104DF000004090ED301A30EE410A9FED971AB4EE64
:104E0000410AF1EE10FA13DDFFE79DED030AB8EE5B
:104E1000C02A4FF2B840C2F2014090ED010A9FED66
:104E20008D1AA2EE010A30EE410A8DED020A42E02F
:104E30009DED030AB8EEC01A4FF2B840C2F201402D
:104E400090ED010A9FED832AA1EE020A42F69840F6
:104E5000C2F2004090ED301A30EE410A9FED7F1A09
:104E6000B4EE410AF1EE10FA13DAFFE79DED030A02
:104E7000B8EEC02A4FF2B840C2F2014090ED010AEC
:104E80009FED741AA2EE010A30EE010A8DED020ABE
:104E900010E09DED030AB8EEC01A4FF2B840C2F21E
:104EA000014090ED010A9FED6B2AA1EE020A8DED03
:104EB000020AFFE7FFE7029942F69840C2F200407B
:104EC000C0F8C01090ED021A90ED2B0A30EE410AA6
:104ED0004FF68000C2F2014080ED000AFFE74FF676
:104EE0008000C2F2014090ED000A9FED5B1AB4EE23
:104EF000410AF1EE10FA0DDDFFE74FF68000C2F235
:104F0000014090ED000A9FED561A30EE010A80ED47
:104F1000000AE4E7FFE74FF68000C2F2014090ED9F
:104F2000000A9FED4E1AB4EE410AF1EE10FA0DDAC6
:104F3000FFE74FF68000C2F2014090ED000A9FEDBE
:104F4000451A30EE010A80ED000AE4E74FF68000D2
:104F5000C2F2014090ED000AB5EE400AF1EE10FAFF
:104F60000BDAFFE74FF68000C2F2014090ED000A35
:104F7000B1EE400A80ED000AFFE74FF68000C2F272
:104F8000014090ED000AB3EE021AB4EE410AF1EED0
:104F900010FA09DCFFE742F69840C2F2004090F8B0
:104FA000360FC00740B1FFE742F69841C2F2004118
:104FB000D1F8C000C861FFE74FF2B840C2F201402B
:104FC000816842F69840C2F20040C0F8F01190EDBE
:104FD0007C0A90ED7F1AB4EE410AF1EE10FA09DC7A
:104FE000FFE742F69840C2F2004090ED7F0A8DED57
:104FF000010A24E042F69840C2F2004090ED7C0A9B
:1050000090ED7E1AB4EE410AF1EE10FA09DBFFE7EB
:1050100042F69840C2F2004090ED7E0A8DED000A03
:1050200008E042F69840C2F2004090ED7C0A8DED17
:10503000000AFFE79DED000A8DED010AFFE79DEDF7
:10504000010A42F69840C2F2004080ED7C0A04B0AA
:10505000704700BF0000B44300003443000034C375
:105060000000B4C30000000080B58AB0089004F0CE
:105070006BFE0490089828B9FFE701208DF82700FF
:1050800000F0AABC089890F8350002280ED0FFE77F
:10509000089980204865FFE70899002081F83400CE
:1050A000FFE701208DF8270000F096BC0898016802
:1050B00001201022C4F202029142039000F0A3806A
:1050C000FFE70898016801202822C4F202029142F9
:1050D000039000F09880FFE70898016801204022C3
:1050E000C4F202029142039000F08D80FFE708981D
:1050F000016801205822C4F202029142039000F09C
:105100008280FFE70898016801207022C4F2020241
:105110009142039077D0FFE7089801680120882228
:10512000C4F20202914203906DD0FFE70898016833
:105130000120A022C4F202029142039063D0FFE753
:10514000089801680120B822C4F20202914203903B
:1051500059D0FFE708980168012040F21042C4F2DC
:105160000202914203904ED0FFE7089801680120A7
:1051700040F22842C4F202029142039043D0FFE77A
:1051800008980168012040F24042C4F202029142B4
:10519000039038D0FFE708980168012040F2584298
:1051A000C4F20202914203902DD0FFE708980168F3
:1051B000012040F27042C4F202029142039022D0D8
:1051C000FFE708980168012040F28842C4F2020219
:1051D0009142039017D0FFE708980168012040F240
:1051E000A042C4F20202914203900CD0FFE708985B
:1051F00000684FF64831CBF6FD710844B0FA80F0F4
:1052000040090390FFE70398C00780B1FFE70898C3
:105210000168086820F01E00086008980168486965
:1052200020F08000486108980068059009E008981F
:105230000168086820F00E00086008980068059072
:10524000FFE70898016801201022C4F2020291428F
:10525000029000F00381FFE70898016801202822EE
:10526000C4F202029142029000F0F880FFE7089831
:10527000016801204022C4F202029142029000F033
:10528000ED80FFE70898016801205822C4F202026D
:105290009142029000F0E280FFE708980168012047
:1052A0007022C4F202029142029000F0D780FFE720
:1052B0000898016801208822C4F2020291420290FB
:1052C00000F0CC80FFE7089801680120A022C4F21A
:1052D00002029142029000F0C180FFE70898016845
:1052E0000120B822C4F202029142029000F0B6807E
:1052F000FFE708980168012040F21042C4F2020260
:105300009142029000F0AA80FFE70898016801200E
:1053100040F22842C4F202029142029000F09E80C4
:10532000FFE708980168012040F24042C4F20202FF
:105330009142029000F09280FFE7089801680120F6
:1053400040F25842C4F202029142029000F086807C
:10535000FFE708980168012040F27042C4F202029F
:10536000914202907AD0FFE708980168012040F24C
:105370008842C4F20202914202906FD0FFE708987F
:105380000168012040F2A042C4F202029142029060
:1053900064D0FFE708980168012040F2B842C4F2E7
:1053A00002029142029059D0FFE70898016801205B
:1053B00045F20842C5F60202914202904ED0FFE744
:1053C00008980168012045F21C42C5F6020291428C
:1053D000029043D0FFE708980168012045F230426F
:1053E000C5F602029142029038D0FFE708980168A2
:1053F000012045F24442C5F60202914202902DD0AE
:10540000FFE708980168012045F25842C5F60202FC
:105410009142029022D0FFE708980168012045F2EE
:105420006C42C5F602029142029017D0FFE708983D
:105430000168012045F28042C5F6020291420290C5
:105440000CD0FFE7089800684AF66C31CAF2FD718B
:105450000844B0FA80F040090290FFE70298C007C4
:1054600038B1FFE70898016E086820F48070086082
:10547000FFE7089800681021C4F20201884200F09A
:105480008180FFE7089800682821C4F20201884261
:1054900078D0FFE7089800684021C4F202018842F2
:1054A00070D0FFE7089800685821C4F202018842D2
:1054B00068D0FFE7089800687021C4F202018842B2
:1054C00060D0FFE7089800688821C4F20201884292
:1054D00058D0FFE708980068A021C4F20201884272
:1054E00050D0FFE708980068B821C4F20201884252
:1054F00048D0FFE70898006840F21041C4F202016A
:1055000088423FD0FFE70898006840F22841C4F283
:105510000201884236D0FFE70898006840F2404117
:10552000C4F2020188422DD0FFE70898006840F2DB
:105530005841C4F20201884224D0FFE7089800686D
:1055400040F27041C4F2020188421BD0FFE7089884
:10555000006840F28841C4F20201884212D0FFE79D
:105560000898006840F2A041C4F20201884209D0C4
:10557000FFE70898006840F2B841C4F2020188428F
:1055800007D1FFE708980168086820F0010008606B
:1055900006E008980168086820F001000860FFE74D
:1055A000FFE705980068C007C8B1FFE704F0CCFB2F
:1055B0000499401A062811D3FFE70899202048656E
:1055C0000899032081F83500FFE70899002081F849
:1055D0003400FFE701208DF82700FDE1E1E708989E
:1055E000016801201022C4F202029142019000F0F1
:1055F000A380FFE70898016801202822C4F2020274
:105600009142019000F09880FFE70898016801201E
:105610004022C4F202029142019000F08D80FFE727
:105620000898016801205822C4F2020291420190B8
:1056300000F08280FFE70898016801207022C4F220
:1056400002029142019077D0FFE70898016801209B
:105650008822C4F20202914201906DD0FFE70898BF
:1056600001680120A022C4F202029142019063D09D
:10567000FFE7089801680120B822C4F202029142B3
:10568000019059D0FFE708980168012040F21042CC
:10569000C4F20202914201904ED0FFE708980168DF
:1056A000012040F22842C4F202029142019043D00C
:1056B000FFE708980168012040F24042C4F202026C
:1056C0009142019038D0FFE708980168012040F22C
:1056D0005842C4F20202914201902DD0FFE708988F
:1056E0000168012040F27042C4F20202914201902E
:1056F00022D0FFE708980168012040F28842C4F2F6
:1057000002029142019017D0FFE70898016801203A
:1057100040F2A042C4F20202914201900CD0FFE795
:10572000089800684FF64831CBF6FD710844B0FA8E
:1057300080F040090190FFE70198C00760B1FFE7E2
:105740000898806D07900898C06D00F01F013F20F9
:105750008840079988600BE00898806D069008984B
:10576000C06D00F01F010120884006994860FFE7E6
:105770000898016801201022C4F2020291420090B0
:1057800000F00381FFE70898016801202822C4F295
:1057900002029142009000F0F880FFE7089801684B
:1057A00001204022C4F202029142009000F0ED80FC
:1057B000FFE70898016801205822C4F202029142D2
:1057C000009000F0E280FFE7089801680120702255
:1057D000C4F202029142009000F0D780FFE70898DF
:1057E000016801208822C4F202029142009000F078
:1057F000CC80FFE7089801680120A022C4F20202D1
:105800009142009000F0C180FFE7089801680120F4
:10581000B822C4F202029142009000F0B680FFE785
:1058200008980168012040F21042C4F2020291423D
:10583000009000F0AA80FFE708980168012040F27C
:105840002842C4F202029142009000F09E80FFE7DD
:1058500008980168012040F24042C4F202029142DD
:10586000009000F09280FFE708980168012040F264
:105870005842C4F202029142009000F08680FFE795
:1058800008980168012040F27042C4F2020291427D
:1058900000907AD0FFE708980168012040F2884222
:1058A000C4F20202914200906FD0FFE708980168AD
:1058B000012040F2A042C4F202029142009064D062
:1058C000FFE708980168012040F2B842C4F20202E2
:1058D0009142009059D0FFE708980168012045F2F5
:1058E0000842C5F60202914200904ED0FFE70898A8
:1058F0000168012045F21C42C5F602029142009067
:1059000043D0FFE708980168012045F23042C5F610
:1059100002029142009038D0FFE708980168012008
:1059200045F24442C5F60202914200902DD0FFE7B5
:1059300008980168012045F25842C5F602029142DA
:10594000009022D0FFE708980168012045F26C42E0
:10595000C5F602029142009017D0FFE7089801684F
:10596000012045F28042C5F60202914200900CD01F
:10597000FFE7089800684AF66C31CAF2FD710844E6
:10598000B0FA80F040090090FFE70098C007A0B18E
:10599000FFE70898416E806E48600898C06E58B165
:1059A000FFE70898C16E086820F4807008600898C6
:1059B000016F406F4860FFE7FFE70899012081F819
:1059C0003500FFE70899002081F83400FFE7FFE782
:1059D00000208DF82700FFE79DF827000AB080BD62
:1059E00080B586B00490049820B9FFE701208DF8B7
:1059F000170046E3049890F83500022807D0FFE727
:105A000004998020486501208DF8170039E3049837
:105A1000016801201022C4F202029142029000F0BB
:105A2000A380FFE70498016801202822C4F2020243
:105A30009142029000F09880FFE7049801680120ED
:105A40004022C4F202029142029000F08D80FFE7F2
:105A50000498016801205822C4F202029142029087
:105A600000F08280FFE70498016801207022C4F2F0
:105A700002029142029077D0FFE70498016801206A
:105A80008822C4F20202914202906DD0FFE704988E
:105A900001680120A022C4F202029142029063D068
:105AA000FFE7049801680120B822C4F20202914283
:105AB000029059D0FFE704980168012040F210429B
:105AC000C4F20202914202904ED0FFE704980168AE
:105AD000012040F22842C4F202029142029043D0D7
